{
  "_format": "hh-sol-artifact-1",
  "contractName": "DynamicNFT002",
  "sourceName": "contracts/DynamicNFT003.sol",
  "abi": [
    {
      "inputs": [],
      "stateMutability": "nonpayable",
      "type": "constructor"
    },
    {
      "anonymous": false,
      "inputs": [
        {
          "indexed": true,
          "internalType": "address",
          "name": "owner",
          "type": "address"
        },
        {
          "indexed": true,
          "internalType": "address",
          "name": "approved",
          "type": "address"
        },
        {
          "indexed": true,
          "internalType": "uint256",
          "name": "tokenId",
          "type": "uint256"
        }
      ],
      "name": "Approval",
      "type": "event"
    },
    {
      "anonymous": false,
      "inputs": [
        {
          "indexed": true,
          "internalType": "address",
          "name": "owner",
          "type": "address"
        },
        {
          "indexed": true,
          "internalType": "address",
          "name": "operator",
          "type": "address"
        },
        {
          "indexed": false,
          "internalType": "bool",
          "name": "approved",
          "type": "bool"
        }
      ],
      "name": "ApprovalForAll",
      "type": "event"
    },
    {
      "anonymous": false,
      "inputs": [
        {
          "indexed": true,
          "internalType": "address",
          "name": "previousOwner",
          "type": "address"
        },
        {
          "indexed": true,
          "internalType": "address",
          "name": "newOwner",
          "type": "address"
        }
      ],
      "name": "OwnershipTransferred",
      "type": "event"
    },
    {
      "anonymous": false,
      "inputs": [
        {
          "indexed": true,
          "internalType": "address",
          "name": "from",
          "type": "address"
        },
        {
          "indexed": true,
          "internalType": "address",
          "name": "to",
          "type": "address"
        },
        {
          "indexed": true,
          "internalType": "uint256",
          "name": "tokenId",
          "type": "uint256"
        }
      ],
      "name": "Transfer",
      "type": "event"
    },
    {
      "inputs": [
        {
          "internalType": "address",
          "name": "to",
          "type": "address"
        },
        {
          "internalType": "uint256",
          "name": "tokenId",
          "type": "uint256"
        }
      ],
      "name": "approve",
      "outputs": [],
      "stateMutability": "nonpayable",
      "type": "function"
    },
    {
      "inputs": [
        {
          "internalType": "address",
          "name": "owner",
          "type": "address"
        }
      ],
      "name": "balanceOf",
      "outputs": [
        {
          "internalType": "uint256",
          "name": "",
          "type": "uint256"
        }
      ],
      "stateMutability": "view",
      "type": "function"
    },
    {
      "inputs": [
        {
          "internalType": "uint256",
          "name": "_tokenId",
          "type": "uint256"
        },
        {
          "internalType": "uint256",
          "name": "_level",
          "type": "uint256"
        }
      ],
      "name": "changeNFT",
      "outputs": [],
      "stateMutability": "nonpayable",
      "type": "function"
    },
    {
      "inputs": [],
      "name": "contractURI",
      "outputs": [
        {
          "internalType": "string",
          "name": "",
          "type": "string"
        }
      ],
      "stateMutability": "view",
      "type": "function"
    },
    {
      "inputs": [
        {
          "internalType": "uint256",
          "name": "tokenId",
          "type": "uint256"
        }
      ],
      "name": "getApproved",
      "outputs": [
        {
          "internalType": "address",
          "name": "",
          "type": "address"
        }
      ],
      "stateMutability": "view",
      "type": "function"
    },
    {
      "inputs": [
        {
          "internalType": "address",
          "name": "owner",
          "type": "address"
        },
        {
          "internalType": "address",
          "name": "operator",
          "type": "address"
        }
      ],
      "name": "isApprovedForAll",
      "outputs": [
        {
          "internalType": "bool",
          "name": "",
          "type": "bool"
        }
      ],
      "stateMutability": "view",
      "type": "function"
    },
    {
      "inputs": [
        {
          "internalType": "string[3]",
          "name": "_levelURI",
          "type": "string[3]"
        }
      ],
      "name": "mintNFT",
      "outputs": [],
      "stateMutability": "nonpayable",
      "type": "function"
    },
    {
      "inputs": [],
      "name": "name",
      "outputs": [
        {
          "internalType": "string",
          "name": "",
          "type": "string"
        }
      ],
      "stateMutability": "view",
      "type": "function"
    },
    {
      "inputs": [],
      "name": "owner",
      "outputs": [
        {
          "internalType": "address",
          "name": "",
          "type": "address"
        }
      ],
      "stateMutability": "view",
      "type": "function"
    },
    {
      "inputs": [
        {
          "internalType": "uint256",
          "name": "tokenId",
          "type": "uint256"
        }
      ],
      "name": "ownerOf",
      "outputs": [
        {
          "internalType": "address",
          "name": "",
          "type": "address"
        }
      ],
      "stateMutability": "view",
      "type": "function"
    },
    {
      "inputs": [],
      "name": "renounceOwnership",
      "outputs": [],
      "stateMutability": "nonpayable",
      "type": "function"
    },
    {
      "inputs": [
        {
          "internalType": "address",
          "name": "from",
          "type": "address"
        },
        {
          "internalType": "address",
          "name": "to",
          "type": "address"
        },
        {
          "internalType": "uint256",
          "name": "tokenId",
          "type": "uint256"
        }
      ],
      "name": "safeTransferFrom",
      "outputs": [],
      "stateMutability": "nonpayable",
      "type": "function"
    },
    {
      "inputs": [
        {
          "internalType": "address",
          "name": "from",
          "type": "address"
        },
        {
          "internalType": "address",
          "name": "to",
          "type": "address"
        },
        {
          "internalType": "uint256",
          "name": "tokenId",
          "type": "uint256"
        },
        {
          "internalType": "bytes",
          "name": "_data",
          "type": "bytes"
        }
      ],
      "name": "safeTransferFrom",
      "outputs": [],
      "stateMutability": "nonpayable",
      "type": "function"
    },
    {
      "inputs": [
        {
          "internalType": "address",
          "name": "operator",
          "type": "address"
        },
        {
          "internalType": "bool",
          "name": "approved",
          "type": "bool"
        }
      ],
      "name": "setApprovalForAll",
      "outputs": [],
      "stateMutability": "nonpayable",
      "type": "function"
    },
    {
      "inputs": [
        {
          "internalType": "bytes4",
          "name": "interfaceId",
          "type": "bytes4"
        }
      ],
      "name": "supportsInterface",
      "outputs": [
        {
          "internalType": "bool",
          "name": "",
          "type": "bool"
        }
      ],
      "stateMutability": "view",
      "type": "function"
    },
    {
      "inputs": [],
      "name": "symbol",
      "outputs": [
        {
          "internalType": "string",
          "name": "",
          "type": "string"
        }
      ],
      "stateMutability": "view",
      "type": "function"
    },
    {
      "inputs": [
        {
          "internalType": "uint256",
          "name": "index",
          "type": "uint256"
        }
      ],
      "name": "tokenByIndex",
      "outputs": [
        {
          "internalType": "uint256",
          "name": "",
          "type": "uint256"
        }
      ],
      "stateMutability": "view",
      "type": "function"
    },
    {
      "inputs": [
        {
          "internalType": "address",
          "name": "owner",
          "type": "address"
        },
        {
          "internalType": "uint256",
          "name": "index",
          "type": "uint256"
        }
      ],
      "name": "tokenOfOwnerByIndex",
      "outputs": [
        {
          "internalType": "uint256",
          "name": "",
          "type": "uint256"
        }
      ],
      "stateMutability": "view",
      "type": "function"
    },
    {
      "inputs": [
        {
          "internalType": "uint256",
          "name": "_tokenId",
          "type": "uint256"
        }
      ],
      "name": "tokenURI",
      "outputs": [
        {
          "internalType": "string",
          "name": "uri",
          "type": "string"
        }
      ],
      "stateMutability": "view",
      "type": "function"
    },
    {
      "inputs": [
        {
          "internalType": "uint256",
          "name": "",
          "type": "uint256"
        }
      ],
      "name": "toons",
      "outputs": [
        {
          "internalType": "uint256",
          "name": "level",
          "type": "uint256"
        }
      ],
      "stateMutability": "view",
      "type": "function"
    },
    {
      "inputs": [],
      "name": "totalSupply",
      "outputs": [
        {
          "internalType": "uint256",
          "name": "",
          "type": "uint256"
        }
      ],
      "stateMutability": "view",
      "type": "function"
    },
    {
      "inputs": [
        {
          "internalType": "address",
          "name": "from",
          "type": "address"
        },
        {
          "internalType": "address",
          "name": "to",
          "type": "address"
        },
        {
          "internalType": "uint256",
          "name": "tokenId",
          "type": "uint256"
        }
      ],
      "name": "transferFrom",
      "outputs": [],
      "stateMutability": "nonpayable",
      "type": "function"
    },
    {
      "inputs": [
        {
          "internalType": "address",
          "name": "newOwner",
          "type": "address"
        }
      ],
      "name": "transferOwnership",
      "outputs": [],
      "stateMutability": "nonpayable",
      "type": "function"
    }
  ],
  "bytecode": "0x608060405260405180608001604052806050815260200162003bf360509139600f908051906020019062000035929190620001d8565b503480156200004357600080fd5b506040518060400160405280600d81526020017f44796e616d69634e4654303032000000000000000000000000000000000000008152506040518060400160405280600481526020017f444e4654000000000000000000000000000000000000000000000000000000008152508160009080519060200190620000c8929190620001d8565b508060019080519060200190620000e1929190620001d8565b50505062000104620000f86200010a60201b60201c565b6200011260201b60201c565b620002ed565b600033905090565b6000600a60009054906101000a900473ffffffffffffffffffffffffffffffffffffffff16905081600a60006101000a81548173ffffffffffffffffffffffffffffffffffffffff021916908373ffffffffffffffffffffffffffffffffffffffff1602179055508173ffffffffffffffffffffffffffffffffffffffff168173ffffffffffffffffffffffffffffffffffffffff167f8be0079c531659141344cd1fd0a4f28419497f9722a3daafe3b4186f6b6457e060405160405180910390a35050565b828054620001e69062000288565b90600052602060002090601f0160209004810192826200020a576000855562000256565b82601f106200022557805160ff191683800117855562000256565b8280016001018555821562000256579182015b828111156200025557825182559160200191906001019062000238565b5b50905062000265919062000269565b5090565b5b80821115620002845760008160009055506001016200026a565b5090565b60006002820490506001821680620002a157607f821691505b60208210811415620002b857620002b7620002be565b5b50919050565b7f4e487b7100000000000000000000000000000000000000000000000000000000600052602260045260246000fd5b6138f680620002fd6000396000f3fe608060405234801561001057600080fd5b506004361061014d5760003560e01c80636b9f68fa116100c3578063a22cb4651161007c578063a22cb465146103b0578063b88d4fde146103cc578063c87b56dd146103e8578063e8a3d48514610418578063e985e9c514610436578063f2fde38b146104665761014d565b80636b9f68fa146102ee57806370a082311461030a578063715018a61461033a5780638da5cb5b1461034457806395d89b4114610362578063971e7011146103805761014d565b806323b872dd1161011557806323b872dd1461020a5780632f745c591461022657806342842e0e146102565780634f6ccce7146102725780636352211e146102a25780636451a896146102d25761014d565b806301ffc9a71461015257806306fdde0314610182578063081812fc146101a0578063095ea7b3146101d057806318160ddd146101ec575b600080fd5b61016c60048036038101906101679190612864565b610482565b6040516101799190612cca565b60405180910390f35b61018a6104fc565b6040516101979190612ce5565b60405180910390f35b6101ba60048036038101906101b591906128be565b61058e565b6040516101c79190612c63565b60405180910390f35b6101ea60048036038101906101e591906127db565b610613565b005b6101f461072b565b6040516102019190612f67565b60405180910390f35b610224600480360381019061021f91906126c5565b610738565b005b610240600480360381019061023b91906127db565b610798565b60405161024d9190612f67565b60405180910390f35b610270600480360381019061026b91906126c5565b61083d565b005b61028c600480360381019061028791906128be565b61089d565b6040516102999190612f67565b60405180910390f35b6102bc60048036038101906102b791906128be565b61090e565b6040516102c99190612c63565b60405180910390f35b6102ec60048036038101906102e791906128eb565b6109c0565b005b6103086004803603810190610303919061281b565b610a5b565b005b610324600480360381019061031f9190612658565b610b51565b6040516103319190612f67565b60405180910390f35b610342610c09565b005b61034c610c91565b6040516103599190612c63565b60405180910390f35b61036a610cbb565b6040516103779190612ce5565b60405180910390f35b61039a600480360381019061039591906128be565b610d4d565b6040516103a79190612f67565b60405180910390f35b6103ca60048036038101906103c5919061279b565b610d6b565b005b6103e660048036038101906103e19190612718565b610d81565b005b61040260048036038101906103fd91906128be565b610de3565b60405161040f9190612ce5565b60405180910390f35b610420611069565b60405161042d9190612ce5565b60405180910390f35b610450600480360381019061044b9190612685565b6110fb565b60405161045d9190612cca565b60405180910390f35b610480600480360381019061047b9190612658565b61118f565b005b60007f780e9d63000000000000000000000000000000000000000000000000000000007bffffffffffffffffffffffffffffffffffffffffffffffffffffffff1916827bffffffffffffffffffffffffffffffffffffffffffffffffffffffff191614806104f557506104f482611287565b5b9050919050565b60606000805461050b906131a7565b80601f0160208091040260200160405190810160405280929190818152602001828054610537906131a7565b80156105845780601f1061055957610100808354040283529160200191610584565b820191906000526020600020905b81548152906001019060200180831161056757829003601f168201915b5050505050905090565b600061059982611369565b6105d8576040517f08c379a00000000000000000000000000000000000000000000000000000000081526004016105cf90612e87565b60405180910390fd5b6004600083815260200190815260200160002060009054906101000a900473ffffffffffffffffffffffffffffffffffffffff169050919050565b600061061e8261090e565b90508073ffffffffffffffffffffffffffffffffffffffff168373ffffffffffffffffffffffffffffffffffffffff16141561068f576040517f08c379a000000000000000000000000000000000000000000000000000000000815260040161068690612f07565b60405180910390fd5b8073ffffffffffffffffffffffffffffffffffffffff166106ae6113d5565b73ffffffffffffffffffffffffffffffffffffffff1614806106dd57506106dc816106d76113d5565b6110fb565b5b61071c576040517f08c379a000000000000000000000000000000000000000000000000000000000815260040161071390612e07565b60405180910390fd5b61072683836113dd565b505050565b6000600880549050905090565b6107496107436113d5565b82611496565b610788576040517f08c379a000000000000000000000000000000000000000000000000000000000815260040161077f90612f27565b60405180910390fd5b610793838383611574565b505050565b60006107a383610b51565b82106107e4576040517f08c379a00000000000000000000000000000000000000000000000000000000081526004016107db90612d07565b60405180910390fd5b600660008473ffffffffffffffffffffffffffffffffffffffff1673ffffffffffffffffffffffffffffffffffffffff168152602001908152602001600020600083815260200190815260200160002054905092915050565b61084e6108486113d5565b82611496565b61088d576040517f08c379a000000000000000000000000000000000000000000000000000000000815260040161088490612f27565b60405180910390fd5b610898838383611574565b505050565b60006108a761072b565b82106108e8576040517f08c379a00000000000000000000000000000000000000000000000000000000081526004016108df90612f47565b60405180910390fd5b600882815481106108fc576108fb613297565b5b90600052602060002001549050919050565b6000806002600084815260200190815260200160002060009054906101000a900473ffffffffffffffffffffffffffffffffffffffff169050600073ffffffffffffffffffffffffffffffffffffffff168173ffffffffffffffffffffffffffffffffffffffff1614156109b7576040517f08c379a00000000000000000000000000000000000000000000000000000000081526004016109ae90612e47565b60405180910390fd5b80915050919050565b6109c98261090e565b73ffffffffffffffffffffffffffffffffffffffff163373ffffffffffffffffffffffffffffffffffffffff1614610a36576040517f08c379a0000000000000000000000000000000000000000000000000000000008152600401610a2d90612ee7565b60405180910390fd5b6000600e60008481526020019081526020016000209050818160000181905550505050565b610a636113d5565b73ffffffffffffffffffffffffffffffffffffffff16610a81610c91565b73ffffffffffffffffffffffffffffffffffffffff1614610ad7576040517f08c379a0000000000000000000000000000000000000000000000000000000008152600401610ace90612ea7565b60405180910390fd5b6000610ae161072b565b9050600060405180602001604052806001815250905082600b906003610b08929190612305565b5080600e6000600185610b1b9190613067565b815260200190815260200160002060008201518160000155905050610b4c33600184610b479190613067565b6117db565b505050565b60008073ffffffffffffffffffffffffffffffffffffffff168273ffffffffffffffffffffffffffffffffffffffff161415610bc2576040517f08c379a0000000000000000000000000000000000000000000000000000000008152600401610bb990612e27565b60405180910390fd5b600360008373ffffffffffffffffffffffffffffffffffffffff1673ffffffffffffffffffffffffffffffffffffffff168152602001908152602001600020549050919050565b610c116113d5565b73ffffffffffffffffffffffffffffffffffffffff16610c2f610c91565b73ffffffffffffffffffffffffffffffffffffffff1614610c85576040517f08c379a0000000000000000000000000000000000000000000000000000000008152600401610c7c90612ea7565b60405180910390fd5b610c8f60006117f9565b565b6000600a60009054906101000a900473ffffffffffffffffffffffffffffffffffffffff16905090565b606060018054610cca906131a7565b80601f0160208091040260200160405190810160405280929190818152602001828054610cf6906131a7565b8015610d435780601f10610d1857610100808354040283529160200191610d43565b820191906000526020600020905b815481529060010190602001808311610d2657829003601f168201915b5050505050905090565b600e6020528060005260406000206000915090508060000154905081565b610d7d610d766113d5565b83836118bf565b5050565b610d92610d8c6113d5565b83611496565b610dd1576040517f08c379a0000000000000000000000000000000000000000000000000000000008152600401610dc890612f27565b60405180910390fd5b610ddd84848484611a2c565b50505050565b6060610dee82611369565b610e2d576040517f08c379a0000000000000000000000000000000000000000000000000000000008152600401610e2490612ec7565b60405180910390fd5b6000600e60008481526020019081526020016000206040518060200160405290816000820154815250509050600181600001511415610f0d57600b600060038110610e7b57610e7a613297565b5b018054610e87906131a7565b80601f0160208091040260200160405190810160405280929190818152602001828054610eb3906131a7565b8015610f005780601f10610ed557610100808354040283529160200191610f00565b820191906000526020600020905b815481529060010190602001808311610ee357829003601f168201915b5050505050915050611064565b600281600001511415610fc157600b600160038110610f2f57610f2e613297565b5b018054610f3b906131a7565b80601f0160208091040260200160405190810160405280929190818152602001828054610f67906131a7565b8015610fb45780601f10610f8957610100808354040283529160200191610fb4565b820191906000526020600020905b815481529060010190602001808311610f9757829003601f168201915b5050505050915050611064565b600b600260038110610fd657610fd5613297565b5b018054610fe2906131a7565b80601f016020809104026020016040519081016040528092919081815260200182805461100e906131a7565b801561105b5780601f106110305761010080835404028352916020019161105b565b820191906000526020600020905b81548152906001019060200180831161103e57829003601f168201915b50505050509150505b919050565b6060600f8054611078906131a7565b80601f01602080910402602001604051908101604052809291908181526020018280546110a4906131a7565b80156110f15780601f106110c6576101008083540402835291602001916110f1565b820191906000526020600020905b8154815290600101906020018083116110d457829003601f168201915b5050505050905090565b6000600560008473ffffffffffffffffffffffffffffffffffffffff1673ffffffffffffffffffffffffffffffffffffffff16815260200190815260200160002060008373ffffffffffffffffffffffffffffffffffffffff1673ffffffffffffffffffffffffffffffffffffffff16815260200190815260200160002060009054906101000a900460ff16905092915050565b6111976113d5565b73ffffffffffffffffffffffffffffffffffffffff166111b5610c91565b73ffffffffffffffffffffffffffffffffffffffff161461120b576040517f08c379a000000000000000000000000000000000000000000000000000000000815260040161120290612ea7565b60405180910390fd5b600073ffffffffffffffffffffffffffffffffffffffff168173ffffffffffffffffffffffffffffffffffffffff16141561127b576040517f08c379a000000000000000000000000000000000000000000000000000000000815260040161127290612d47565b60405180910390fd5b611284816117f9565b50565b60007f80ac58cd000000000000000000000000000000000000000000000000000000007bffffffffffffffffffffffffffffffffffffffffffffffffffffffff1916827bffffffffffffffffffffffffffffffffffffffffffffffffffffffff1916148061135257507f5b5e139f000000000000000000000000000000000000000000000000000000007bffffffffffffffffffffffffffffffffffffffffffffffffffffffff1916827bffffffffffffffffffffffffffffffffffffffffffffffffffffffff1916145b80611362575061136182611a88565b5b9050919050565b60008073ffffffffffffffffffffffffffffffffffffffff166002600084815260200190815260200160002060009054906101000a900473ffffffffffffffffffffffffffffffffffffffff1673ffffffffffffffffffffffffffffffffffffffff1614159050919050565b600033905090565b816004600083815260200190815260200160002060006101000a81548173ffffffffffffffffffffffffffffffffffffffff021916908373ffffffffffffffffffffffffffffffffffffffff160217905550808273ffffffffffffffffffffffffffffffffffffffff166114508361090e565b73ffffffffffffffffffffffffffffffffffffffff167f8c5be1e5ebec7d5bd14f71427d1e84f3dd0314c0f7b2291e5b200ac8c7c3b92560405160405180910390a45050565b60006114a182611369565b6114e0576040517f08c379a00000000000000000000000000000000000000000000000000000000081526004016114d790612de7565b60405180910390fd5b60006114eb8361090e565b90508073ffffffffffffffffffffffffffffffffffffffff168473ffffffffffffffffffffffffffffffffffffffff16148061152d575061152c81856110fb565b5b8061156b57508373ffffffffffffffffffffffffffffffffffffffff166115538461058e565b73ffffffffffffffffffffffffffffffffffffffff16145b91505092915050565b8273ffffffffffffffffffffffffffffffffffffffff166115948261090e565b73ffffffffffffffffffffffffffffffffffffffff16146115ea576040517f08c379a00000000000000000000000000000000000000000000000000000000081526004016115e190612d67565b60405180910390fd5b600073ffffffffffffffffffffffffffffffffffffffff168273ffffffffffffffffffffffffffffffffffffffff16141561165a576040517f08c379a000000000000000000000000000000000000000000000000000000000815260040161165190612da7565b60405180910390fd5b611665838383611af2565b6116706000826113dd565b6001600360008573ffffffffffffffffffffffffffffffffffffffff1673ffffffffffffffffffffffffffffffffffffffff16815260200190815260200160002060008282546116c091906130bd565b925050819055506001600360008473ffffffffffffffffffffffffffffffffffffffff1673ffffffffffffffffffffffffffffffffffffffff16815260200190815260200160002060008282546117179190613067565b92505081905550816002600083815260200190815260200160002060006101000a81548173ffffffffffffffffffffffffffffffffffffffff021916908373ffffffffffffffffffffffffffffffffffffffff160217905550808273ffffffffffffffffffffffffffffffffffffffff168473ffffffffffffffffffffffffffffffffffffffff167fddf252ad1be2c89b69c2b068fc378daa952ba7f163c4a11628f55a4df523b3ef60405160405180910390a46117d6838383611c06565b505050565b6117f5828260405180602001604052806000815250611c0b565b5050565b6000600a60009054906101000a900473ffffffffffffffffffffffffffffffffffffffff16905081600a60006101000a81548173ffffffffffffffffffffffffffffffffffffffff021916908373ffffffffffffffffffffffffffffffffffffffff1602179055508173ffffffffffffffffffffffffffffffffffffffff168173ffffffffffffffffffffffffffffffffffffffff167f8be0079c531659141344cd1fd0a4f28419497f9722a3daafe3b4186f6b6457e060405160405180910390a35050565b8173ffffffffffffffffffffffffffffffffffffffff168373ffffffffffffffffffffffffffffffffffffffff16141561192e576040517f08c379a000000000000000000000000000000000000000000000000000000000815260040161192590612dc7565b60405180910390fd5b80600560008573ffffffffffffffffffffffffffffffffffffffff1673ffffffffffffffffffffffffffffffffffffffff16815260200190815260200160002060008473ffffffffffffffffffffffffffffffffffffffff1673ffffffffffffffffffffffffffffffffffffffff16815260200190815260200160002060006101000a81548160ff0219169083151502179055508173ffffffffffffffffffffffffffffffffffffffff168373ffffffffffffffffffffffffffffffffffffffff167f17307eab39ab6107e8899845ad3d59bd9653f200f220920489ca2b5937696c3183604051611a1f9190612cca565b60405180910390a3505050565b611a37848484611574565b611a4384848484611c66565b611a82576040517f08c379a0000000000000000000000000000000000000000000000000000000008152600401611a7990612d27565b60405180910390fd5b50505050565b60007f01ffc9a7000000000000000000000000000000000000000000000000000000007bffffffffffffffffffffffffffffffffffffffffffffffffffffffff1916827bffffffffffffffffffffffffffffffffffffffffffffffffffffffff1916149050919050565b611afd838383611dfd565b600073ffffffffffffffffffffffffffffffffffffffff168373ffffffffffffffffffffffffffffffffffffffff161415611b4057611b3b81611e02565b611b7f565b8173ffffffffffffffffffffffffffffffffffffffff168373ffffffffffffffffffffffffffffffffffffffff1614611b7e57611b7d8382611e4b565b5b5b600073ffffffffffffffffffffffffffffffffffffffff168273ffffffffffffffffffffffffffffffffffffffff161415611bc257611bbd81611fb8565b611c01565b8273ffffffffffffffffffffffffffffffffffffffff168273ffffffffffffffffffffffffffffffffffffffff1614611c0057611bff8282612089565b5b5b505050565b505050565b611c158383612108565b611c226000848484611c66565b611c61576040517f08c379a0000000000000000000000000000000000000000000000000000000008152600401611c5890612d27565b60405180910390fd5b505050565b6000611c878473ffffffffffffffffffffffffffffffffffffffff166122e2565b15611df0578373ffffffffffffffffffffffffffffffffffffffff1663150b7a02611cb06113d5565b8786866040518563ffffffff1660e01b8152600401611cd29493929190612c7e565b602060405180830381600087803b158015611cec57600080fd5b505af1925050508015611d1d57506040513d601f19601f82011682018060405250810190611d1a9190612891565b60015b611da0573d8060008114611d4d576040519150601f19603f3d011682016040523d82523d6000602084013e611d52565b606091505b50600081511415611d98576040517f08c379a0000000000000000000000000000000000000000000000000000000008152600401611d8f90612d27565b60405180910390fd5b805181602001fd5b63150b7a0260e01b7bffffffffffffffffffffffffffffffffffffffffffffffffffffffff1916817bffffffffffffffffffffffffffffffffffffffffffffffffffffffff191614915050611df5565b600190505b949350505050565b505050565b6008805490506009600083815260200190815260200160002081905550600881908060018154018082558091505060019003906000526020600020016000909190919091505550565b60006001611e5884610b51565b611e6291906130bd565b9050600060076000848152602001908152602001600020549050818114611f47576000600660008673ffffffffffffffffffffffffffffffffffffffff1673ffffffffffffffffffffffffffffffffffffffff168152602001908152602001600020600084815260200190815260200160002054905080600660008773ffffffffffffffffffffffffffffffffffffffff1673ffffffffffffffffffffffffffffffffffffffff168152602001908152602001600020600084815260200190815260200160002081905550816007600083815260200190815260200160002081905550505b6007600084815260200190815260200160002060009055600660008573ffffffffffffffffffffffffffffffffffffffff1673ffffffffffffffffffffffffffffffffffffffff16815260200190815260200160002060008381526020019081526020016000206000905550505050565b60006001600880549050611fcc91906130bd565b9050600060096000848152602001908152602001600020549050600060088381548110611ffc57611ffb613297565b5b90600052602060002001549050806008838154811061201e5761201d613297565b5b90600052602060002001819055508160096000838152602001908152602001600020819055506009600085815260200190815260200160002060009055600880548061206d5761206c613268565b5b6001900381819060005260206000200160009055905550505050565b600061209483610b51565b905081600660008573ffffffffffffffffffffffffffffffffffffffff1673ffffffffffffffffffffffffffffffffffffffff168152602001908152602001600020600083815260200190815260200160002081905550806007600084815260200190815260200160002081905550505050565b600073ffffffffffffffffffffffffffffffffffffffff168273ffffffffffffffffffffffffffffffffffffffff161415612178576040517f08c379a000000000000000000000000000000000000000000000000000000000815260040161216f90612e67565b60405180910390fd5b61218181611369565b156121c1576040517f08c379a00000000000000000000000000000000000000000000000000000000081526004016121b890612d87565b60405180910390fd5b6121cd60008383611af2565b6001600360008473ffffffffffffffffffffffffffffffffffffffff1673ffffffffffffffffffffffffffffffffffffffff168152602001908152602001600020600082825461221d9190613067565b92505081905550816002600083815260200190815260200160002060006101000a81548173ffffffffffffffffffffffffffffffffffffffff021916908373ffffffffffffffffffffffffffffffffffffffff160217905550808273ffffffffffffffffffffffffffffffffffffffff16600073ffffffffffffffffffffffffffffffffffffffff167fddf252ad1be2c89b69c2b068fc378daa952ba7f163c4a11628f55a4df523b3ef60405160405180910390a46122de60008383611c06565b5050565b6000808273ffffffffffffffffffffffffffffffffffffffff163b119050919050565b8260038101928215612347579160200282015b82811115612346578251829080519060200190612336929190612358565b5091602001919060010190612318565b5b50905061235491906123de565b5090565b828054612364906131a7565b90600052602060002090601f01602090048101928261238657600085556123cd565b82601f1061239f57805160ff19168380011785556123cd565b828001600101855582156123cd579182015b828111156123cc5782518255916020019190600101906123b1565b5b5090506123da9190612402565b5090565b5b808211156123fe57600081816123f5919061241f565b506001016123df565b5090565b5b8082111561241b576000816000905550600101612403565b5090565b50805461242b906131a7565b6000825580601f1061243d575061245c565b601f01602090049060005260206000209081019061245b9190612402565b5b50565b600061247261246d84612fa7565b612f82565b9050808285602086028201111561248c5761248b6132fa565b5b60005b858110156124da57813567ffffffffffffffff8111156124b2576124b16132f5565b5b8086016124bf8982612615565b8552602085019450602084019350505060018101905061248f565b5050509392505050565b60006124f76124f284612fcd565b612f82565b905082815260208101848484011115612513576125126132ff565b5b61251e848285613165565b509392505050565b600061253961253484612ffe565b612f82565b905082815260208101848484011115612555576125546132ff565b5b612560848285613165565b509392505050565b60008135905061257781613864565b92915050565b600082601f830112612592576125916132f5565b5b600361259f84828561245f565b91505092915050565b6000813590506125b78161387b565b92915050565b6000813590506125cc81613892565b92915050565b6000815190506125e181613892565b92915050565b600082601f8301126125fc576125fb6132f5565b5b813561260c8482602086016124e4565b91505092915050565b600082601f83011261262a576126296132f5565b5b813561263a848260208601612526565b91505092915050565b600081359050612652816138a9565b92915050565b60006020828403121561266e5761266d613309565b5b600061267c84828501612568565b91505092915050565b6000806040838503121561269c5761269b613309565b5b60006126aa85828601612568565b92505060206126bb85828601612568565b9150509250929050565b6000806000606084860312156126de576126dd613309565b5b60006126ec86828701612568565b93505060206126fd86828701612568565b925050604061270e86828701612643565b9150509250925092565b6000806000806080858703121561273257612731613309565b5b600061274087828801612568565b945050602061275187828801612568565b935050604061276287828801612643565b925050606085013567ffffffffffffffff81111561278357612782613304565b5b61278f878288016125e7565b91505092959194509250565b600080604083850312156127b2576127b1613309565b5b60006127c085828601612568565b92505060206127d1858286016125a8565b9150509250929050565b600080604083850312156127f2576127f1613309565b5b600061280085828601612568565b925050602061281185828601612643565b9150509250929050565b60006020828403121561283157612830613309565b5b600082013567ffffffffffffffff81111561284f5761284e613304565b5b61285b8482850161257d565b91505092915050565b60006020828403121561287a57612879613309565b5b6000612888848285016125bd565b91505092915050565b6000602082840312156128a7576128a6613309565b5b60006128b5848285016125d2565b91505092915050565b6000602082840312156128d4576128d3613309565b5b60006128e284828501612643565b91505092915050565b6000806040838503121561290257612901613309565b5b600061291085828601612643565b925050602061292185828601612643565b9150509250929050565b612934816130f1565b82525050565b61294381613103565b82525050565b60006129548261302f565b61295e8185613045565b935061296e818560208601613174565b6129778161330e565b840191505092915050565b600061298d8261303a565b6129978185613056565b93506129a7818560208601613174565b6129b08161330e565b840191505092915050565b60006129c8602b83613056565b91506129d38261331f565b604082019050919050565b60006129eb603283613056565b91506129f68261336e565b604082019050919050565b6000612a0e602683613056565b9150612a19826133bd565b604082019050919050565b6000612a31602583613056565b9150612a3c8261340c565b604082019050919050565b6000612a54601c83613056565b9150612a5f8261345b565b602082019050919050565b6000612a77602483613056565b9150612a8282613484565b604082019050919050565b6000612a9a601983613056565b9150612aa5826134d3565b602082019050919050565b6000612abd602c83613056565b9150612ac8826134fc565b604082019050919050565b6000612ae0603883613056565b9150612aeb8261354b565b604082019050919050565b6000612b03602a83613056565b9150612b0e8261359a565b604082019050919050565b6000612b26602983613056565b9150612b31826135e9565b604082019050919050565b6000612b49602083613056565b9150612b5482613638565b602082019050919050565b6000612b6c602c83613056565b9150612b7782613661565b604082019050919050565b6000612b8f602083613056565b9150612b9a826136b0565b602082019050919050565b6000612bb2602f83613056565b9150612bbd826136d9565b604082019050919050565b6000612bd5602283613056565b9150612be082613728565b604082019050919050565b6000612bf8602183613056565b9150612c0382613777565b604082019050919050565b6000612c1b603183613056565b9150612c26826137c6565b604082019050919050565b6000612c3e602c83613056565b9150612c4982613815565b604082019050919050565b612c5d8161315b565b82525050565b6000602082019050612c78600083018461292b565b92915050565b6000608082019050612c93600083018761292b565b612ca0602083018661292b565b612cad6040830185612c54565b8181036060830152612cbf8184612949565b905095945050505050565b6000602082019050612cdf600083018461293a565b92915050565b60006020820190508181036000830152612cff8184612982565b905092915050565b60006020820190508181036000830152612d20816129bb565b9050919050565b60006020820190508181036000830152612d40816129de565b9050919050565b60006020820190508181036000830152612d6081612a01565b9050919050565b60006020820190508181036000830152612d8081612a24565b9050919050565b60006020820190508181036000830152612da081612a47565b9050919050565b60006020820190508181036000830152612dc081612a6a565b9050919050565b60006020820190508181036000830152612de081612a8d565b9050919050565b60006020820190508181036000830152612e0081612ab0565b9050919050565b60006020820190508181036000830152612e2081612ad3565b9050919050565b60006020820190508181036000830152612e4081612af6565b9050919050565b60006020820190508181036000830152612e6081612b19565b9050919050565b60006020820190508181036000830152612e8081612b3c565b9050919050565b60006020820190508181036000830152612ea081612b5f565b9050919050565b60006020820190508181036000830152612ec081612b82565b9050919050565b60006020820190508181036000830152612ee081612ba5565b9050919050565b60006020820190508181036000830152612f0081612bc8565b9050919050565b60006020820190508181036000830152612f2081612beb565b9050919050565b60006020820190508181036000830152612f4081612c0e565b9050919050565b60006020820190508181036000830152612f6081612c31565b9050919050565b6000602082019050612f7c6000830184612c54565b92915050565b6000612f8c612f9d565b9050612f9882826131d9565b919050565b6000604051905090565b600067ffffffffffffffff821115612fc257612fc16132c6565b5b602082029050919050565b600067ffffffffffffffff821115612fe857612fe76132c6565b5b612ff18261330e565b9050602081019050919050565b600067ffffffffffffffff821115613019576130186132c6565b5b6130228261330e565b9050602081019050919050565b600081519050919050565b600081519050919050565b600082825260208201905092915050565b600082825260208201905092915050565b60006130728261315b565b915061307d8361315b565b9250827fffffffffffffffffffffffffffffffffffffffffffffffffffffffffffffffff038211156130b2576130b161320a565b5b828201905092915050565b60006130c88261315b565b91506130d38361315b565b9250828210156130e6576130e561320a565b5b828203905092915050565b60006130fc8261313b565b9050919050565b60008115159050919050565b60007fffffffff0000000000000000000000000000000000000000000000000000000082169050919050565b600073ffffffffffffffffffffffffffffffffffffffff82169050919050565b6000819050919050565b82818337600083830152505050565b60005b83811015613192578082015181840152602081019050613177565b838111156131a1576000848401525b50505050565b600060028204905060018216806131bf57607f821691505b602082108114156131d3576131d2613239565b5b50919050565b6131e28261330e565b810181811067ffffffffffffffff82111715613201576132006132c6565b5b80604052505050565b7f4e487b7100000000000000000000000000000000000000000000000000000000600052601160045260246000fd5b7f4e487b7100000000000000000000000000000000000000000000000000000000600052602260045260246000fd5b7f4e487b7100000000000000000000000000000000000000000000000000000000600052603160045260246000fd5b7f4e487b7100000000000000000000000000000000000000000000000000000000600052603260045260246000fd5b7f4e487b7100000000000000000000000000000000000000000000000000000000600052604160045260246000fd5b600080fd5b600080fd5b600080fd5b600080fd5b600080fd5b6000601f19601f8301169050919050565b7f455243373231456e756d657261626c653a206f776e657220696e646578206f7560008201527f74206f6620626f756e6473000000000000000000000000000000000000000000602082015250565b7f4552433732313a207472616e7366657220746f206e6f6e20455243373231526560008201527f63656976657220696d706c656d656e7465720000000000000000000000000000602082015250565b7f4f776e61626c653a206e6577206f776e657220697320746865207a65726f206160008201527f6464726573730000000000000000000000000000000000000000000000000000602082015250565b7f4552433732313a207472616e736665722066726f6d20696e636f72726563742060008201527f6f776e6572000000000000000000000000000000000000000000000000000000602082015250565b7f4552433732313a20746f6b656e20616c7265616479206d696e74656400000000600082015250565b7f4552433732313a207472616e7366657220746f20746865207a65726f2061646460008201527f7265737300000000000000000000000000000000000000000000000000000000602082015250565b7f4552433732313a20617070726f766520746f2063616c6c657200000000000000600082015250565b7f4552433732313a206f70657261746f7220717565727920666f72206e6f6e657860008201527f697374656e7420746f6b656e0000000000000000000000000000000000000000602082015250565b7f4552433732313a20617070726f76652063616c6c6572206973206e6f74206f7760008201527f6e6572206e6f7220617070726f76656420666f7220616c6c0000000000000000602082015250565b7f4552433732313a2062616c616e636520717565727920666f7220746865207a6560008201527f726f206164647265737300000000000000000000000000000000000000000000602082015250565b7f4552433732313a206f776e657220717565727920666f72206e6f6e657869737460008201527f656e7420746f6b656e0000000000000000000000000000000000000000000000602082015250565b7f4552433732313a206d696e7420746f20746865207a65726f2061646472657373600082015250565b7f4552433732313a20617070726f76656420717565727920666f72206e6f6e657860008201527f697374656e7420746f6b656e0000000000000000000000000000000000000000602082015250565b7f4f776e61626c653a2063616c6c6572206973206e6f7420746865206f776e6572600082015250565b7f4552433732314d657461646174613a2055524920717565727920666f72206e6f60008201527f6e6578697374656e7420746f6b656e0000000000000000000000000000000000602082015250565b7f596f7520617265206e6f7420746865206f776e6572206f662074686973204e4660008201527f542e000000000000000000000000000000000000000000000000000000000000602082015250565b7f4552433732313a20617070726f76616c20746f2063757272656e74206f776e6560008201527f7200000000000000000000000000000000000000000000000000000000000000602082015250565b7f4552433732313a207472616e736665722063616c6c6572206973206e6f74206f60008201527f776e6572206e6f7220617070726f766564000000000000000000000000000000602082015250565b7f455243373231456e756d657261626c653a20676c6f62616c20696e646578206f60008201527f7574206f6620626f756e64730000000000000000000000000000000000000000602082015250565b61386d816130f1565b811461387857600080fd5b50565b61388481613103565b811461388f57600080fd5b50565b61389b8161310f565b81146138a657600080fd5b50565b6138b28161315b565b81146138bd57600080fd5b5056fea2646970667358221220e0acaf2f9a31fc5d10c4f3986b7f8063e2a01de6122dd559d16a7ef5b8c80c9864736f6c63430008060033697066733a2f2f62616679726569677634737572366d367871336c716b367165356437626f793661627974797a7665377166777671797a74716f373369677a7279792f6d657461646174612e6a736f6e",
  "linkReferences": {},
  "deployedLinkReferences": {}
}