{
  "_format": "hh-sol-artifact-1",
  "contractName": "DynamicNFT002",
  "sourceName": "contracts/DynamicNFT003.sol",
  "abi": [
    {
      "inputs": [],
      "stateMutability": "nonpayable",
      "type": "constructor"
    },
    {
      "anonymous": false,
      "inputs": [
        {
          "indexed": true,
          "internalType": "address",
          "name": "owner",
          "type": "address"
        },
        {
          "indexed": true,
          "internalType": "address",
          "name": "approved",
          "type": "address"
        },
        {
          "indexed": true,
          "internalType": "uint256",
          "name": "tokenId",
          "type": "uint256"
        }
      ],
      "name": "Approval",
      "type": "event"
    },
    {
      "anonymous": false,
      "inputs": [
        {
          "indexed": true,
          "internalType": "address",
          "name": "owner",
          "type": "address"
        },
        {
          "indexed": true,
          "internalType": "address",
          "name": "operator",
          "type": "address"
        },
        {
          "indexed": false,
          "internalType": "bool",
          "name": "approved",
          "type": "bool"
        }
      ],
      "name": "ApprovalForAll",
      "type": "event"
    },
    {
      "anonymous": false,
      "inputs": [
        {
          "indexed": true,
          "internalType": "address",
          "name": "previousOwner",
          "type": "address"
        },
        {
          "indexed": true,
          "internalType": "address",
          "name": "newOwner",
          "type": "address"
        }
      ],
      "name": "OwnershipTransferred",
      "type": "event"
    },
    {
      "anonymous": false,
      "inputs": [
        {
          "indexed": true,
          "internalType": "address",
          "name": "from",
          "type": "address"
        },
        {
          "indexed": true,
          "internalType": "address",
          "name": "to",
          "type": "address"
        },
        {
          "indexed": true,
          "internalType": "uint256",
          "name": "tokenId",
          "type": "uint256"
        }
      ],
      "name": "Transfer",
      "type": "event"
    },
    {
      "inputs": [
        {
          "internalType": "address",
          "name": "to",
          "type": "address"
        },
        {
          "internalType": "uint256",
          "name": "tokenId",
          "type": "uint256"
        }
      ],
      "name": "approve",
      "outputs": [],
      "stateMutability": "nonpayable",
      "type": "function"
    },
    {
      "inputs": [
        {
          "internalType": "address",
          "name": "owner",
          "type": "address"
        }
      ],
      "name": "balanceOf",
      "outputs": [
        {
          "internalType": "uint256",
          "name": "",
          "type": "uint256"
        }
      ],
      "stateMutability": "view",
      "type": "function"
    },
    {
      "inputs": [
        {
          "internalType": "uint256",
          "name": "_tokenId",
          "type": "uint256"
        },
        {
          "internalType": "uint256",
          "name": "_level",
          "type": "uint256"
        }
      ],
      "name": "changeNFT",
      "outputs": [],
      "stateMutability": "nonpayable",
      "type": "function"
    },
    {
      "inputs": [],
      "name": "contractURI",
      "outputs": [
        {
          "internalType": "string",
          "name": "",
          "type": "string"
        }
      ],
      "stateMutability": "view",
      "type": "function"
    },
    {
      "inputs": [
        {
          "internalType": "uint256",
          "name": "tokenId",
          "type": "uint256"
        }
      ],
      "name": "getApproved",
      "outputs": [
        {
          "internalType": "address",
          "name": "",
          "type": "address"
        }
      ],
      "stateMutability": "view",
      "type": "function"
    },
    {
      "inputs": [
        {
          "internalType": "address",
          "name": "owner",
          "type": "address"
        },
        {
          "internalType": "address",
          "name": "operator",
          "type": "address"
        }
      ],
      "name": "isApprovedForAll",
      "outputs": [
        {
          "internalType": "bool",
          "name": "",
          "type": "bool"
        }
      ],
      "stateMutability": "view",
      "type": "function"
    },
    {
      "inputs": [
        {
          "internalType": "uint256",
          "name": "",
          "type": "uint256"
        }
      ],
      "name": "items",
      "outputs": [
        {
          "internalType": "uint256",
          "name": "level",
          "type": "uint256"
        }
      ],
      "stateMutability": "view",
      "type": "function"
    },
    {
      "inputs": [
        {
          "internalType": "string[]",
          "name": "_levelURI",
          "type": "string[]"
        }
      ],
      "name": "mintNFT",
      "outputs": [],
      "stateMutability": "nonpayable",
      "type": "function"
    },
    {
      "inputs": [],
      "name": "name",
      "outputs": [
        {
          "internalType": "string",
          "name": "",
          "type": "string"
        }
      ],
      "stateMutability": "view",
      "type": "function"
    },
    {
      "inputs": [],
      "name": "owner",
      "outputs": [
        {
          "internalType": "address",
          "name": "",
          "type": "address"
        }
      ],
      "stateMutability": "view",
      "type": "function"
    },
    {
      "inputs": [
        {
          "internalType": "uint256",
          "name": "tokenId",
          "type": "uint256"
        }
      ],
      "name": "ownerOf",
      "outputs": [
        {
          "internalType": "address",
          "name": "",
          "type": "address"
        }
      ],
      "stateMutability": "view",
      "type": "function"
    },
    {
      "inputs": [],
      "name": "renounceOwnership",
      "outputs": [],
      "stateMutability": "nonpayable",
      "type": "function"
    },
    {
      "inputs": [
        {
          "internalType": "address",
          "name": "from",
          "type": "address"
        },
        {
          "internalType": "address",
          "name": "to",
          "type": "address"
        },
        {
          "internalType": "uint256",
          "name": "tokenId",
          "type": "uint256"
        }
      ],
      "name": "safeTransferFrom",
      "outputs": [],
      "stateMutability": "nonpayable",
      "type": "function"
    },
    {
      "inputs": [
        {
          "internalType": "address",
          "name": "from",
          "type": "address"
        },
        {
          "internalType": "address",
          "name": "to",
          "type": "address"
        },
        {
          "internalType": "uint256",
          "name": "tokenId",
          "type": "uint256"
        },
        {
          "internalType": "bytes",
          "name": "_data",
          "type": "bytes"
        }
      ],
      "name": "safeTransferFrom",
      "outputs": [],
      "stateMutability": "nonpayable",
      "type": "function"
    },
    {
      "inputs": [
        {
          "internalType": "address",
          "name": "operator",
          "type": "address"
        },
        {
          "internalType": "bool",
          "name": "approved",
          "type": "bool"
        }
      ],
      "name": "setApprovalForAll",
      "outputs": [],
      "stateMutability": "nonpayable",
      "type": "function"
    },
    {
      "inputs": [
        {
          "internalType": "bytes4",
          "name": "interfaceId",
          "type": "bytes4"
        }
      ],
      "name": "supportsInterface",
      "outputs": [
        {
          "internalType": "bool",
          "name": "",
          "type": "bool"
        }
      ],
      "stateMutability": "view",
      "type": "function"
    },
    {
      "inputs": [],
      "name": "symbol",
      "outputs": [
        {
          "internalType": "string",
          "name": "",
          "type": "string"
        }
      ],
      "stateMutability": "view",
      "type": "function"
    },
    {
      "inputs": [
        {
          "internalType": "uint256",
          "name": "index",
          "type": "uint256"
        }
      ],
      "name": "tokenByIndex",
      "outputs": [
        {
          "internalType": "uint256",
          "name": "",
          "type": "uint256"
        }
      ],
      "stateMutability": "view",
      "type": "function"
    },
    {
      "inputs": [
        {
          "internalType": "address",
          "name": "owner",
          "type": "address"
        },
        {
          "internalType": "uint256",
          "name": "index",
          "type": "uint256"
        }
      ],
      "name": "tokenOfOwnerByIndex",
      "outputs": [
        {
          "internalType": "uint256",
          "name": "",
          "type": "uint256"
        }
      ],
      "stateMutability": "view",
      "type": "function"
    },
    {
      "inputs": [
        {
          "internalType": "uint256",
          "name": "_tokenId",
          "type": "uint256"
        }
      ],
      "name": "tokenURI",
      "outputs": [
        {
          "internalType": "string",
          "name": "uri",
          "type": "string"
        }
      ],
      "stateMutability": "view",
      "type": "function"
    },
    {
      "inputs": [],
      "name": "totalSupply",
      "outputs": [
        {
          "internalType": "uint256",
          "name": "",
          "type": "uint256"
        }
      ],
      "stateMutability": "view",
      "type": "function"
    },
    {
      "inputs": [
        {
          "internalType": "address",
          "name": "from",
          "type": "address"
        },
        {
          "internalType": "address",
          "name": "to",
          "type": "address"
        },
        {
          "internalType": "uint256",
          "name": "tokenId",
          "type": "uint256"
        }
      ],
      "name": "transferFrom",
      "outputs": [],
      "stateMutability": "nonpayable",
      "type": "function"
    },
    {
      "inputs": [
        {
          "internalType": "address",
          "name": "newOwner",
          "type": "address"
        }
      ],
      "name": "transferOwnership",
      "outputs": [],
      "stateMutability": "nonpayable",
      "type": "function"
    }
  ],
  "bytecode": "0x608060405260405180602001604052806000815250600d90805190602001906200002b929190620001ce565b503480156200003957600080fd5b506040518060400160405280600981526020017f426f78696e674e465400000000000000000000000000000000000000000000008152506040518060400160405280600481526020017f426f784e000000000000000000000000000000000000000000000000000000008152508160009080519060200190620000be929190620001ce565b508060019080519060200190620000d7929190620001ce565b505050620000fa620000ee6200010060201b60201c565b6200010860201b60201c565b620002e3565b600033905090565b6000600a60009054906101000a900473ffffffffffffffffffffffffffffffffffffffff16905081600a60006101000a81548173ffffffffffffffffffffffffffffffffffffffff021916908373ffffffffffffffffffffffffffffffffffffffff1602179055508173ffffffffffffffffffffffffffffffffffffffff168173ffffffffffffffffffffffffffffffffffffffff167f8be0079c531659141344cd1fd0a4f28419497f9722a3daafe3b4186f6b6457e060405160405180910390a35050565b828054620001dc906200027e565b90600052602060002090601f0160209004810192826200020057600085556200024c565b82601f106200021b57805160ff19168380011785556200024c565b828001600101855582156200024c579182015b828111156200024b5782518255916020019190600101906200022e565b5b5090506200025b91906200025f565b5090565b5b808211156200027a57600081600090555060010162000260565b5090565b600060028204905060018216806200029757607f821691505b60208210811415620002ae57620002ad620002b4565b5b50919050565b7f4e487b7100000000000000000000000000000000000000000000000000000000600052602260045260246000fd5b61364580620002f36000396000f3fe608060405234801561001057600080fd5b506004361061014d5760003560e01c8063704affad116100c3578063b88d4fde1161007c578063b88d4fde1461039c578063bfb231d2146103b8578063c87b56dd146103e8578063e8a3d48514610418578063e985e9c514610436578063f2fde38b146104665761014d565b8063704affad146102ee57806370a082311461030a578063715018a61461033a5780638da5cb5b1461034457806395d89b4114610362578063a22cb465146103805761014d565b806323b872dd1161011557806323b872dd1461020a5780632f745c591461022657806342842e0e146102565780634f6ccce7146102725780636352211e146102a25780636451a896146102d25761014d565b806301ffc9a71461015257806306fdde0314610182578063081812fc146101a0578063095ea7b3146101d057806318160ddd146101ec575b600080fd5b61016c6004803603810190610167919061263f565b610482565b6040516101799190612a82565b60405180910390f35b61018a6104fc565b6040516101979190612a9d565b60405180910390f35b6101ba60048036038101906101b59190612699565b61058e565b6040516101c79190612a1b565b60405180910390f35b6101ea60048036038101906101e591906125b6565b610613565b005b6101f461072b565b6040516102019190612cff565b60405180910390f35b610224600480360381019061021f91906124a0565b610738565b005b610240600480360381019061023b91906125b6565b610798565b60405161024d9190612cff565b60405180910390f35b610270600480360381019061026b91906124a0565b61083d565b005b61028c60048036038101906102879190612699565b61089d565b6040516102999190612cff565b60405180910390f35b6102bc60048036038101906102b79190612699565b61090e565b6040516102c99190612a1b565b60405180910390f35b6102ec60048036038101906102e791906126c6565b6109c0565b005b610308600480360381019061030391906125f6565b6109e5565b005b610324600480360381019061031f9190612433565b610a64565b6040516103319190612cff565b60405180910390f35b610342610b1c565b005b61034c610ba4565b6040516103599190612a1b565b60405180910390f35b61036a610bce565b6040516103779190612a9d565b60405180910390f35b61039a60048036038101906103959190612576565b610c60565b005b6103b660048036038101906103b191906124f3565b610c76565b005b6103d260048036038101906103cd9190612699565b610cd8565b6040516103df9190612cff565b60405180910390f35b61040260048036038101906103fd9190612699565b610cf6565b60405161040f9190612a9d565b60405180910390f35b610420610e2b565b60405161042d9190612a9d565b60405180910390f35b610450600480360381019061044b9190612460565b610ebd565b60405161045d9190612a82565b60405180910390f35b610480600480360381019061047b9190612433565b610f51565b005b60007f780e9d63000000000000000000000000000000000000000000000000000000007bffffffffffffffffffffffffffffffffffffffffffffffffffffffff1916827bffffffffffffffffffffffffffffffffffffffffffffffffffffffff191614806104f557506104f482611049565b5b9050919050565b60606000805461050b90612f45565b80601f016020809104026020016040519081016040528092919081815260200182805461053790612f45565b80156105845780601f1061055957610100808354040283529160200191610584565b820191906000526020600020905b81548152906001019060200180831161056757829003601f168201915b5050505050905090565b60006105998261112b565b6105d8576040517f08c379a00000000000000000000000000000000000000000000000000000000081526004016105cf90612c3f565b60405180910390fd5b6004600083815260200190815260200160002060009054906101000a900473ffffffffffffffffffffffffffffffffffffffff169050919050565b600061061e8261090e565b90508073ffffffffffffffffffffffffffffffffffffffff168373ffffffffffffffffffffffffffffffffffffffff16141561068f576040517f08c379a000000000000000000000000000000000000000000000000000000000815260040161068690612c9f565b60405180910390fd5b8073ffffffffffffffffffffffffffffffffffffffff166106ae611197565b73ffffffffffffffffffffffffffffffffffffffff1614806106dd57506106dc816106d7611197565b610ebd565b5b61071c576040517f08c379a000000000000000000000000000000000000000000000000000000000815260040161071390612bbf565b60405180910390fd5b610726838361119f565b505050565b6000600880549050905090565b610749610743611197565b82611258565b610788576040517f08c379a000000000000000000000000000000000000000000000000000000000815260040161077f90612cbf565b60405180910390fd5b610793838383611336565b505050565b60006107a383610a64565b82106107e4576040517f08c379a00000000000000000000000000000000000000000000000000000000081526004016107db90612abf565b60405180910390fd5b600660008473ffffffffffffffffffffffffffffffffffffffff1673ffffffffffffffffffffffffffffffffffffffff168152602001908152602001600020600083815260200190815260200160002054905092915050565b61084e610848611197565b82611258565b61088d576040517f08c379a000000000000000000000000000000000000000000000000000000000815260040161088490612cbf565b60405180910390fd5b610898838383611336565b505050565b60006108a761072b565b82106108e8576040517f08c379a00000000000000000000000000000000000000000000000000000000081526004016108df90612cdf565b60405180910390fd5b600882815481106108fc576108fb613035565b5b90600052602060002001549050919050565b6000806002600084815260200190815260200160002060009054906101000a900473ffffffffffffffffffffffffffffffffffffffff169050600073ffffffffffffffffffffffffffffffffffffffff168173ffffffffffffffffffffffffffffffffffffffff1614156109b7576040517f08c379a00000000000000000000000000000000000000000000000000000000081526004016109ae90612bff565b60405180910390fd5b80915050919050565b6000600c60008481526020019081526020016000209050818160000181905550505050565b60006109ef61072b565b9050600060405180602001604052806001815250905082600b9080519060200190610a1b9291906120c7565b5080600c6000600185610a2e9190612e05565b815260200190815260200160002060008201518160000155905050610a5f33600184610a5a9190612e05565b61159d565b505050565b60008073ffffffffffffffffffffffffffffffffffffffff168273ffffffffffffffffffffffffffffffffffffffff161415610ad5576040517f08c379a0000000000000000000000000000000000000000000000000000000008152600401610acc90612bdf565b60405180910390fd5b600360008373ffffffffffffffffffffffffffffffffffffffff1673ffffffffffffffffffffffffffffffffffffffff168152602001908152602001600020549050919050565b610b24611197565b73ffffffffffffffffffffffffffffffffffffffff16610b42610ba4565b73ffffffffffffffffffffffffffffffffffffffff1614610b98576040517f08c379a0000000000000000000000000000000000000000000000000000000008152600401610b8f90612c5f565b60405180910390fd5b610ba260006115bb565b565b6000600a60009054906101000a900473ffffffffffffffffffffffffffffffffffffffff16905090565b606060018054610bdd90612f45565b80601f0160208091040260200160405190810160405280929190818152602001828054610c0990612f45565b8015610c565780601f10610c2b57610100808354040283529160200191610c56565b820191906000526020600020905b815481529060010190602001808311610c3957829003601f168201915b5050505050905090565b610c72610c6b611197565b8383611681565b5050565b610c87610c81611197565b83611258565b610cc6576040517f08c379a0000000000000000000000000000000000000000000000000000000008152600401610cbd90612cbf565b60405180910390fd5b610cd2848484846117ee565b50505050565b600c6020528060005260406000206000915090508060000154905081565b6060610d018261112b565b610d40576040517f08c379a0000000000000000000000000000000000000000000000000000000008152600401610d3790612c7f565b60405180910390fd5b6000600c60008481526020019081526020016000206040518060200160405290816000820154815250509050600b60018260000151610d7f9190612e5b565b81548110610d9057610d8f613035565b5b906000526020600020018054610da590612f45565b80601f0160208091040260200160405190810160405280929190818152602001828054610dd190612f45565b8015610e1e5780601f10610df357610100808354040283529160200191610e1e565b820191906000526020600020905b815481529060010190602001808311610e0157829003601f168201915b5050505050915050919050565b6060600d8054610e3a90612f45565b80601f0160208091040260200160405190810160405280929190818152602001828054610e6690612f45565b8015610eb35780601f10610e8857610100808354040283529160200191610eb3565b820191906000526020600020905b815481529060010190602001808311610e9657829003601f168201915b5050505050905090565b6000600560008473ffffffffffffffffffffffffffffffffffffffff1673ffffffffffffffffffffffffffffffffffffffff16815260200190815260200160002060008373ffffffffffffffffffffffffffffffffffffffff1673ffffffffffffffffffffffffffffffffffffffff16815260200190815260200160002060009054906101000a900460ff16905092915050565b610f59611197565b73ffffffffffffffffffffffffffffffffffffffff16610f77610ba4565b73ffffffffffffffffffffffffffffffffffffffff1614610fcd576040517f08c379a0000000000000000000000000000000000000000000000000000000008152600401610fc490612c5f565b60405180910390fd5b600073ffffffffffffffffffffffffffffffffffffffff168173ffffffffffffffffffffffffffffffffffffffff16141561103d576040517f08c379a000000000000000000000000000000000000000000000000000000000815260040161103490612aff565b60405180910390fd5b611046816115bb565b50565b60007f80ac58cd000000000000000000000000000000000000000000000000000000007bffffffffffffffffffffffffffffffffffffffffffffffffffffffff1916827bffffffffffffffffffffffffffffffffffffffffffffffffffffffff1916148061111457507f5b5e139f000000000000000000000000000000000000000000000000000000007bffffffffffffffffffffffffffffffffffffffffffffffffffffffff1916827bffffffffffffffffffffffffffffffffffffffffffffffffffffffff1916145b8061112457506111238261184a565b5b9050919050565b60008073ffffffffffffffffffffffffffffffffffffffff166002600084815260200190815260200160002060009054906101000a900473ffffffffffffffffffffffffffffffffffffffff1673ffffffffffffffffffffffffffffffffffffffff1614159050919050565b600033905090565b816004600083815260200190815260200160002060006101000a81548173ffffffffffffffffffffffffffffffffffffffff021916908373ffffffffffffffffffffffffffffffffffffffff160217905550808273ffffffffffffffffffffffffffffffffffffffff166112128361090e565b73ffffffffffffffffffffffffffffffffffffffff167f8c5be1e5ebec7d5bd14f71427d1e84f3dd0314c0f7b2291e5b200ac8c7c3b92560405160405180910390a45050565b60006112638261112b565b6112a2576040517f08c379a000000000000000000000000000000000000000000000000000000000815260040161129990612b9f565b60405180910390fd5b60006112ad8361090e565b90508073ffffffffffffffffffffffffffffffffffffffff168473ffffffffffffffffffffffffffffffffffffffff1614806112ef57506112ee8185610ebd565b5b8061132d57508373ffffffffffffffffffffffffffffffffffffffff166113158461058e565b73ffffffffffffffffffffffffffffffffffffffff16145b91505092915050565b8273ffffffffffffffffffffffffffffffffffffffff166113568261090e565b73ffffffffffffffffffffffffffffffffffffffff16146113ac576040517f08c379a00000000000000000000000000000000000000000000000000000000081526004016113a390612b1f565b60405180910390fd5b600073ffffffffffffffffffffffffffffffffffffffff168273ffffffffffffffffffffffffffffffffffffffff16141561141c576040517f08c379a000000000000000000000000000000000000000000000000000000000815260040161141390612b5f565b60405180910390fd5b6114278383836118b4565b61143260008261119f565b6001600360008573ffffffffffffffffffffffffffffffffffffffff1673ffffffffffffffffffffffffffffffffffffffff16815260200190815260200160002060008282546114829190612e5b565b925050819055506001600360008473ffffffffffffffffffffffffffffffffffffffff1673ffffffffffffffffffffffffffffffffffffffff16815260200190815260200160002060008282546114d99190612e05565b92505081905550816002600083815260200190815260200160002060006101000a81548173ffffffffffffffffffffffffffffffffffffffff021916908373ffffffffffffffffffffffffffffffffffffffff160217905550808273ffffffffffffffffffffffffffffffffffffffff168473ffffffffffffffffffffffffffffffffffffffff167fddf252ad1be2c89b69c2b068fc378daa952ba7f163c4a11628f55a4df523b3ef60405160405180910390a46115988383836119c8565b505050565b6115b78282604051806020016040528060008152506119cd565b5050565b6000600a60009054906101000a900473ffffffffffffffffffffffffffffffffffffffff16905081600a60006101000a81548173ffffffffffffffffffffffffffffffffffffffff021916908373ffffffffffffffffffffffffffffffffffffffff1602179055508173ffffffffffffffffffffffffffffffffffffffff168173ffffffffffffffffffffffffffffffffffffffff167f8be0079c531659141344cd1fd0a4f28419497f9722a3daafe3b4186f6b6457e060405160405180910390a35050565b8173ffffffffffffffffffffffffffffffffffffffff168373ffffffffffffffffffffffffffffffffffffffff1614156116f0576040517f08c379a00000000000000000000000000000000000000000000000000000000081526004016116e790612b7f565b60405180910390fd5b80600560008573ffffffffffffffffffffffffffffffffffffffff1673ffffffffffffffffffffffffffffffffffffffff16815260200190815260200160002060008473ffffffffffffffffffffffffffffffffffffffff1673ffffffffffffffffffffffffffffffffffffffff16815260200190815260200160002060006101000a81548160ff0219169083151502179055508173ffffffffffffffffffffffffffffffffffffffff168373ffffffffffffffffffffffffffffffffffffffff167f17307eab39ab6107e8899845ad3d59bd9653f200f220920489ca2b5937696c31836040516117e19190612a82565b60405180910390a3505050565b6117f9848484611336565b61180584848484611a28565b611844576040517f08c379a000000000000000000000000000000000000000000000000000000000815260040161183b90612adf565b60405180910390fd5b50505050565b60007f01ffc9a7000000000000000000000000000000000000000000000000000000007bffffffffffffffffffffffffffffffffffffffffffffffffffffffff1916827bffffffffffffffffffffffffffffffffffffffffffffffffffffffff1916149050919050565b6118bf838383611bbf565b600073ffffffffffffffffffffffffffffffffffffffff168373ffffffffffffffffffffffffffffffffffffffff161415611902576118fd81611bc4565b611941565b8173ffffffffffffffffffffffffffffffffffffffff168373ffffffffffffffffffffffffffffffffffffffff16146119405761193f8382611c0d565b5b5b600073ffffffffffffffffffffffffffffffffffffffff168273ffffffffffffffffffffffffffffffffffffffff1614156119845761197f81611d7a565b6119c3565b8273ffffffffffffffffffffffffffffffffffffffff168273ffffffffffffffffffffffffffffffffffffffff16146119c2576119c18282611e4b565b5b5b505050565b505050565b6119d78383611eca565b6119e46000848484611a28565b611a23576040517f08c379a0000000000000000000000000000000000000000000000000000000008152600401611a1a90612adf565b60405180910390fd5b505050565b6000611a498473ffffffffffffffffffffffffffffffffffffffff166120a4565b15611bb2578373ffffffffffffffffffffffffffffffffffffffff1663150b7a02611a72611197565b8786866040518563ffffffff1660e01b8152600401611a949493929190612a36565b602060405180830381600087803b158015611aae57600080fd5b505af1925050508015611adf57506040513d601f19601f82011682018060405250810190611adc919061266c565b60015b611b62573d8060008114611b0f576040519150601f19603f3d011682016040523d82523d6000602084013e611b14565b606091505b50600081511415611b5a576040517f08c379a0000000000000000000000000000000000000000000000000000000008152600401611b5190612adf565b60405180910390fd5b805181602001fd5b63150b7a0260e01b7bffffffffffffffffffffffffffffffffffffffffffffffffffffffff1916817bffffffffffffffffffffffffffffffffffffffffffffffffffffffff191614915050611bb7565b600190505b949350505050565b505050565b6008805490506009600083815260200190815260200160002081905550600881908060018154018082558091505060019003906000526020600020016000909190919091505550565b60006001611c1a84610a64565b611c249190612e5b565b9050600060076000848152602001908152602001600020549050818114611d09576000600660008673ffffffffffffffffffffffffffffffffffffffff1673ffffffffffffffffffffffffffffffffffffffff168152602001908152602001600020600084815260200190815260200160002054905080600660008773ffffffffffffffffffffffffffffffffffffffff1673ffffffffffffffffffffffffffffffffffffffff168152602001908152602001600020600084815260200190815260200160002081905550816007600083815260200190815260200160002081905550505b6007600084815260200190815260200160002060009055600660008573ffffffffffffffffffffffffffffffffffffffff1673ffffffffffffffffffffffffffffffffffffffff16815260200190815260200160002060008381526020019081526020016000206000905550505050565b60006001600880549050611d8e9190612e5b565b9050600060096000848152602001908152602001600020549050600060088381548110611dbe57611dbd613035565b5b906000526020600020015490508060088381548110611de057611ddf613035565b5b906000526020600020018190555081600960008381526020019081526020016000208190555060096000858152602001908152602001600020600090556008805480611e2f57611e2e613006565b5b6001900381819060005260206000200160009055905550505050565b6000611e5683610a64565b905081600660008573ffffffffffffffffffffffffffffffffffffffff1673ffffffffffffffffffffffffffffffffffffffff168152602001908152602001600020600083815260200190815260200160002081905550806007600084815260200190815260200160002081905550505050565b600073ffffffffffffffffffffffffffffffffffffffff168273ffffffffffffffffffffffffffffffffffffffff161415611f3a576040517f08c379a0000000000000000000000000000000000000000000000000000000008152600401611f3190612c1f565b60405180910390fd5b611f438161112b565b15611f83576040517f08c379a0000000000000000000000000000000000000000000000000000000008152600401611f7a90612b3f565b60405180910390fd5b611f8f600083836118b4565b6001600360008473ffffffffffffffffffffffffffffffffffffffff1673ffffffffffffffffffffffffffffffffffffffff1681526020019081526020016000206000828254611fdf9190612e05565b92505081905550816002600083815260200190815260200160002060006101000a81548173ffffffffffffffffffffffffffffffffffffffff021916908373ffffffffffffffffffffffffffffffffffffffff160217905550808273ffffffffffffffffffffffffffffffffffffffff16600073ffffffffffffffffffffffffffffffffffffffff167fddf252ad1be2c89b69c2b068fc378daa952ba7f163c4a11628f55a4df523b3ef60405160405180910390a46120a0600083836119c8565b5050565b6000808273ffffffffffffffffffffffffffffffffffffffff163b119050919050565b828054828255906000526020600020908101928215612116579160200282015b82811115612115578251829080519060200190612105929190612127565b50916020019190600101906120e7565b5b50905061212391906121ad565b5090565b82805461213390612f45565b90600052602060002090601f016020900481019282612155576000855561219c565b82601f1061216e57805160ff191683800117855561219c565b8280016001018555821561219c579182015b8281111561219b578251825591602001919060010190612180565b5b5090506121a991906121d1565b5090565b5b808211156121cd57600081816121c491906121ee565b506001016121ae565b5090565b5b808211156121ea5760008160009055506001016121d2565b5090565b5080546121fa90612f45565b6000825580601f1061220c575061222b565b601f01602090049060005260206000209081019061222a91906121d1565b5b50565b600061224161223c84612d3f565b612d1a565b9050808382526020820190508285602086028201111561226457612263613098565b5b60005b858110156122b257813567ffffffffffffffff81111561228a57612289613093565b5b80860161229789826123f0565b85526020850194506020840193505050600181019050612267565b5050509392505050565b60006122cf6122ca84612d6b565b612d1a565b9050828152602081018484840111156122eb576122ea61309d565b5b6122f6848285612f03565b509392505050565b600061231161230c84612d9c565b612d1a565b90508281526020810184848401111561232d5761232c61309d565b5b612338848285612f03565b509392505050565b60008135905061234f816135b3565b92915050565b600082601f83011261236a57612369613093565b5b813561237a84826020860161222e565b91505092915050565b600081359050612392816135ca565b92915050565b6000813590506123a7816135e1565b92915050565b6000815190506123bc816135e1565b92915050565b600082601f8301126123d7576123d6613093565b5b81356123e78482602086016122bc565b91505092915050565b600082601f83011261240557612404613093565b5b81356124158482602086016122fe565b91505092915050565b60008135905061242d816135f8565b92915050565b600060208284031215612449576124486130a7565b5b600061245784828501612340565b91505092915050565b60008060408385031215612477576124766130a7565b5b600061248585828601612340565b925050602061249685828601612340565b9150509250929050565b6000806000606084860312156124b9576124b86130a7565b5b60006124c786828701612340565b93505060206124d886828701612340565b92505060406124e98682870161241e565b9150509250925092565b6000806000806080858703121561250d5761250c6130a7565b5b600061251b87828801612340565b945050602061252c87828801612340565b935050604061253d8782880161241e565b925050606085013567ffffffffffffffff81111561255e5761255d6130a2565b5b61256a878288016123c2565b91505092959194509250565b6000806040838503121561258d5761258c6130a7565b5b600061259b85828601612340565b92505060206125ac85828601612383565b9150509250929050565b600080604083850312156125cd576125cc6130a7565b5b60006125db85828601612340565b92505060206125ec8582860161241e565b9150509250929050565b60006020828403121561260c5761260b6130a7565b5b600082013567ffffffffffffffff81111561262a576126296130a2565b5b61263684828501612355565b91505092915050565b600060208284031215612655576126546130a7565b5b600061266384828501612398565b91505092915050565b600060208284031215612682576126816130a7565b5b6000612690848285016123ad565b91505092915050565b6000602082840312156126af576126ae6130a7565b5b60006126bd8482850161241e565b91505092915050565b600080604083850312156126dd576126dc6130a7565b5b60006126eb8582860161241e565b92505060206126fc8582860161241e565b9150509250929050565b61270f81612e8f565b82525050565b61271e81612ea1565b82525050565b600061272f82612dcd565b6127398185612de3565b9350612749818560208601612f12565b612752816130ac565b840191505092915050565b600061276882612dd8565b6127728185612df4565b9350612782818560208601612f12565b61278b816130ac565b840191505092915050565b60006127a3602b83612df4565b91506127ae826130bd565b604082019050919050565b60006127c6603283612df4565b91506127d18261310c565b604082019050919050565b60006127e9602683612df4565b91506127f48261315b565b604082019050919050565b600061280c602583612df4565b9150612817826131aa565b604082019050919050565b600061282f601c83612df4565b915061283a826131f9565b602082019050919050565b6000612852602483612df4565b915061285d82613222565b604082019050919050565b6000612875601983612df4565b915061288082613271565b602082019050919050565b6000612898602c83612df4565b91506128a38261329a565b604082019050919050565b60006128bb603883612df4565b91506128c6826132e9565b604082019050919050565b60006128de602a83612df4565b91506128e982613338565b604082019050919050565b6000612901602983612df4565b915061290c82613387565b604082019050919050565b6000612924602083612df4565b915061292f826133d6565b602082019050919050565b6000612947602c83612df4565b9150612952826133ff565b604082019050919050565b600061296a602083612df4565b91506129758261344e565b602082019050919050565b600061298d602f83612df4565b915061299882613477565b604082019050919050565b60006129b0602183612df4565b91506129bb826134c6565b604082019050919050565b60006129d3603183612df4565b91506129de82613515565b604082019050919050565b60006129f6602c83612df4565b9150612a0182613564565b604082019050919050565b612a1581612ef9565b82525050565b6000602082019050612a306000830184612706565b92915050565b6000608082019050612a4b6000830187612706565b612a586020830186612706565b612a656040830185612a0c565b8181036060830152612a778184612724565b905095945050505050565b6000602082019050612a976000830184612715565b92915050565b60006020820190508181036000830152612ab7818461275d565b905092915050565b60006020820190508181036000830152612ad881612796565b9050919050565b60006020820190508181036000830152612af8816127b9565b9050919050565b60006020820190508181036000830152612b18816127dc565b9050919050565b60006020820190508181036000830152612b38816127ff565b9050919050565b60006020820190508181036000830152612b5881612822565b9050919050565b60006020820190508181036000830152612b7881612845565b9050919050565b60006020820190508181036000830152612b9881612868565b9050919050565b60006020820190508181036000830152612bb88161288b565b9050919050565b60006020820190508181036000830152612bd8816128ae565b9050919050565b60006020820190508181036000830152612bf8816128d1565b9050919050565b60006020820190508181036000830152612c18816128f4565b9050919050565b60006020820190508181036000830152612c3881612917565b9050919050565b60006020820190508181036000830152612c588161293a565b9050919050565b60006020820190508181036000830152612c788161295d565b9050919050565b60006020820190508181036000830152612c9881612980565b9050919050565b60006020820190508181036000830152612cb8816129a3565b9050919050565b60006020820190508181036000830152612cd8816129c6565b9050919050565b60006020820190508181036000830152612cf8816129e9565b9050919050565b6000602082019050612d146000830184612a0c565b92915050565b6000612d24612d35565b9050612d308282612f77565b919050565b6000604051905090565b600067ffffffffffffffff821115612d5a57612d59613064565b5b602082029050602081019050919050565b600067ffffffffffffffff821115612d8657612d85613064565b5b612d8f826130ac565b9050602081019050919050565b600067ffffffffffffffff821115612db757612db6613064565b5b612dc0826130ac565b9050602081019050919050565b600081519050919050565b600081519050919050565b600082825260208201905092915050565b600082825260208201905092915050565b6000612e1082612ef9565b9150612e1b83612ef9565b9250827fffffffffffffffffffffffffffffffffffffffffffffffffffffffffffffffff03821115612e5057612e4f612fa8565b5b828201905092915050565b6000612e6682612ef9565b9150612e7183612ef9565b925082821015612e8457612e83612fa8565b5b828203905092915050565b6000612e9a82612ed9565b9050919050565b60008115159050919050565b60007fffffffff0000000000000000000000000000000000000000000000000000000082169050919050565b600073ffffffffffffffffffffffffffffffffffffffff82169050919050565b6000819050919050565b82818337600083830152505050565b60005b83811015612f30578082015181840152602081019050612f15565b83811115612f3f576000848401525b50505050565b60006002820490506001821680612f5d57607f821691505b60208210811415612f7157612f70612fd7565b5b50919050565b612f80826130ac565b810181811067ffffffffffffffff82111715612f9f57612f9e613064565b5b80604052505050565b7f4e487b7100000000000000000000000000000000000000000000000000000000600052601160045260246000fd5b7f4e487b7100000000000000000000000000000000000000000000000000000000600052602260045260246000fd5b7f4e487b7100000000000000000000000000000000000000000000000000000000600052603160045260246000fd5b7f4e487b7100000000000000000000000000000000000000000000000000000000600052603260045260246000fd5b7f4e487b7100000000000000000000000000000000000000000000000000000000600052604160045260246000fd5b600080fd5b600080fd5b600080fd5b600080fd5b600080fd5b6000601f19601f8301169050919050565b7f455243373231456e756d657261626c653a206f776e657220696e646578206f7560008201527f74206f6620626f756e6473000000000000000000000000000000000000000000602082015250565b7f4552433732313a207472616e7366657220746f206e6f6e20455243373231526560008201527f63656976657220696d706c656d656e7465720000000000000000000000000000602082015250565b7f4f776e61626c653a206e6577206f776e657220697320746865207a65726f206160008201527f6464726573730000000000000000000000000000000000000000000000000000602082015250565b7f4552433732313a207472616e736665722066726f6d20696e636f72726563742060008201527f6f776e6572000000000000000000000000000000000000000000000000000000602082015250565b7f4552433732313a20746f6b656e20616c7265616479206d696e74656400000000600082015250565b7f4552433732313a207472616e7366657220746f20746865207a65726f2061646460008201527f7265737300000000000000000000000000000000000000000000000000000000602082015250565b7f4552433732313a20617070726f766520746f2063616c6c657200000000000000600082015250565b7f4552433732313a206f70657261746f7220717565727920666f72206e6f6e657860008201527f697374656e7420746f6b656e0000000000000000000000000000000000000000602082015250565b7f4552433732313a20617070726f76652063616c6c6572206973206e6f74206f7760008201527f6e6572206e6f7220617070726f76656420666f7220616c6c0000000000000000602082015250565b7f4552433732313a2062616c616e636520717565727920666f7220746865207a6560008201527f726f206164647265737300000000000000000000000000000000000000000000602082015250565b7f4552433732313a206f776e657220717565727920666f72206e6f6e657869737460008201527f656e7420746f6b656e0000000000000000000000000000000000000000000000602082015250565b7f4552433732313a206d696e7420746f20746865207a65726f2061646472657373600082015250565b7f4552433732313a20617070726f76656420717565727920666f72206e6f6e657860008201527f697374656e7420746f6b656e0000000000000000000000000000000000000000602082015250565b7f4f776e61626c653a2063616c6c6572206973206e6f7420746865206f776e6572600082015250565b7f4552433732314d657461646174613a2055524920717565727920666f72206e6f60008201527f6e6578697374656e7420746f6b656e0000000000000000000000000000000000602082015250565b7f4552433732313a20617070726f76616c20746f2063757272656e74206f776e6560008201527f7200000000000000000000000000000000000000000000000000000000000000602082015250565b7f4552433732313a207472616e736665722063616c6c6572206973206e6f74206f60008201527f776e6572206e6f7220617070726f766564000000000000000000000000000000602082015250565b7f455243373231456e756d657261626c653a20676c6f62616c20696e646578206f60008201527f7574206f6620626f756e64730000000000000000000000000000000000000000602082015250565b6135bc81612e8f565b81146135c757600080fd5b50565b6135d381612ea1565b81146135de57600080fd5b50565b6135ea81612ead565b81146135f557600080fd5b50565b61360181612ef9565b811461360c57600080fd5b5056fea26469706673582212203e63bc247b487f53dce915bc2785a6c38eea1fc2d3a46163118af4bd5f91bd6b64736f6c63430008060033",
  "linkReferences": {},
  "deployedLinkReferences": {}
}