{
  "_format": "hh-sol-artifact-1",
  "contractName": "DynamicNFT002",
  "sourceName": "contracts/DynamicNFT003.sol",
  "abi": [
    {
      "inputs": [],
      "stateMutability": "nonpayable",
      "type": "constructor"
    },
    {
      "anonymous": false,
      "inputs": [
        {
          "indexed": true,
          "internalType": "address",
          "name": "owner",
          "type": "address"
        },
        {
          "indexed": true,
          "internalType": "address",
          "name": "approved",
          "type": "address"
        },
        {
          "indexed": true,
          "internalType": "uint256",
          "name": "tokenId",
          "type": "uint256"
        }
      ],
      "name": "Approval",
      "type": "event"
    },
    {
      "anonymous": false,
      "inputs": [
        {
          "indexed": true,
          "internalType": "address",
          "name": "owner",
          "type": "address"
        },
        {
          "indexed": true,
          "internalType": "address",
          "name": "operator",
          "type": "address"
        },
        {
          "indexed": false,
          "internalType": "bool",
          "name": "approved",
          "type": "bool"
        }
      ],
      "name": "ApprovalForAll",
      "type": "event"
    },
    {
      "anonymous": false,
      "inputs": [
        {
          "indexed": true,
          "internalType": "address",
          "name": "previousOwner",
          "type": "address"
        },
        {
          "indexed": true,
          "internalType": "address",
          "name": "newOwner",
          "type": "address"
        }
      ],
      "name": "OwnershipTransferred",
      "type": "event"
    },
    {
      "anonymous": false,
      "inputs": [
        {
          "indexed": true,
          "internalType": "address",
          "name": "from",
          "type": "address"
        },
        {
          "indexed": true,
          "internalType": "address",
          "name": "to",
          "type": "address"
        },
        {
          "indexed": true,
          "internalType": "uint256",
          "name": "tokenId",
          "type": "uint256"
        }
      ],
      "name": "Transfer",
      "type": "event"
    },
    {
      "inputs": [
        {
          "internalType": "address",
          "name": "to",
          "type": "address"
        },
        {
          "internalType": "uint256",
          "name": "tokenId",
          "type": "uint256"
        }
      ],
      "name": "approve",
      "outputs": [],
      "stateMutability": "nonpayable",
      "type": "function"
    },
    {
      "inputs": [
        {
          "internalType": "address",
          "name": "owner",
          "type": "address"
        }
      ],
      "name": "balanceOf",
      "outputs": [
        {
          "internalType": "uint256",
          "name": "",
          "type": "uint256"
        }
      ],
      "stateMutability": "view",
      "type": "function"
    },
    {
      "inputs": [
        {
          "internalType": "uint256",
          "name": "_tokenId",
          "type": "uint256"
        },
        {
          "internalType": "uint256",
          "name": "_level",
          "type": "uint256"
        }
      ],
      "name": "changeNFT",
      "outputs": [],
      "stateMutability": "nonpayable",
      "type": "function"
    },
    {
      "inputs": [],
      "name": "contractURI",
      "outputs": [
        {
          "internalType": "string",
          "name": "",
          "type": "string"
        }
      ],
      "stateMutability": "view",
      "type": "function"
    },
    {
      "inputs": [
        {
          "internalType": "uint256",
          "name": "tokenId",
          "type": "uint256"
        }
      ],
      "name": "getApproved",
      "outputs": [
        {
          "internalType": "address",
          "name": "",
          "type": "address"
        }
      ],
      "stateMutability": "view",
      "type": "function"
    },
    {
      "inputs": [
        {
          "internalType": "address",
          "name": "owner",
          "type": "address"
        },
        {
          "internalType": "address",
          "name": "operator",
          "type": "address"
        }
      ],
      "name": "isApprovedForAll",
      "outputs": [
        {
          "internalType": "bool",
          "name": "",
          "type": "bool"
        }
      ],
      "stateMutability": "view",
      "type": "function"
    },
    {
      "inputs": [
        {
          "internalType": "uint256",
          "name": "",
          "type": "uint256"
        }
      ],
      "name": "items",
      "outputs": [
        {
          "internalType": "uint256",
          "name": "level",
          "type": "uint256"
        }
      ],
      "stateMutability": "view",
      "type": "function"
    },
    {
      "inputs": [
        {
          "internalType": "string[]",
          "name": "_levelURI",
          "type": "string[]"
        }
      ],
      "name": "mintNFT",
      "outputs": [],
      "stateMutability": "nonpayable",
      "type": "function"
    },
    {
      "inputs": [],
      "name": "name",
      "outputs": [
        {
          "internalType": "string",
          "name": "",
          "type": "string"
        }
      ],
      "stateMutability": "view",
      "type": "function"
    },
    {
      "inputs": [],
      "name": "owner",
      "outputs": [
        {
          "internalType": "address",
          "name": "",
          "type": "address"
        }
      ],
      "stateMutability": "view",
      "type": "function"
    },
    {
      "inputs": [
        {
          "internalType": "uint256",
          "name": "tokenId",
          "type": "uint256"
        }
      ],
      "name": "ownerOf",
      "outputs": [
        {
          "internalType": "address",
          "name": "",
          "type": "address"
        }
      ],
      "stateMutability": "view",
      "type": "function"
    },
    {
      "inputs": [],
      "name": "renounceOwnership",
      "outputs": [],
      "stateMutability": "nonpayable",
      "type": "function"
    },
    {
      "inputs": [
        {
          "internalType": "address",
          "name": "from",
          "type": "address"
        },
        {
          "internalType": "address",
          "name": "to",
          "type": "address"
        },
        {
          "internalType": "uint256",
          "name": "tokenId",
          "type": "uint256"
        }
      ],
      "name": "safeTransferFrom",
      "outputs": [],
      "stateMutability": "nonpayable",
      "type": "function"
    },
    {
      "inputs": [
        {
          "internalType": "address",
          "name": "from",
          "type": "address"
        },
        {
          "internalType": "address",
          "name": "to",
          "type": "address"
        },
        {
          "internalType": "uint256",
          "name": "tokenId",
          "type": "uint256"
        },
        {
          "internalType": "bytes",
          "name": "_data",
          "type": "bytes"
        }
      ],
      "name": "safeTransferFrom",
      "outputs": [],
      "stateMutability": "nonpayable",
      "type": "function"
    },
    {
      "inputs": [
        {
          "internalType": "address",
          "name": "operator",
          "type": "address"
        },
        {
          "internalType": "bool",
          "name": "approved",
          "type": "bool"
        }
      ],
      "name": "setApprovalForAll",
      "outputs": [],
      "stateMutability": "nonpayable",
      "type": "function"
    },
    {
      "inputs": [
        {
          "internalType": "bytes4",
          "name": "interfaceId",
          "type": "bytes4"
        }
      ],
      "name": "supportsInterface",
      "outputs": [
        {
          "internalType": "bool",
          "name": "",
          "type": "bool"
        }
      ],
      "stateMutability": "view",
      "type": "function"
    },
    {
      "inputs": [],
      "name": "symbol",
      "outputs": [
        {
          "internalType": "string",
          "name": "",
          "type": "string"
        }
      ],
      "stateMutability": "view",
      "type": "function"
    },
    {
      "inputs": [
        {
          "internalType": "uint256",
          "name": "index",
          "type": "uint256"
        }
      ],
      "name": "tokenByIndex",
      "outputs": [
        {
          "internalType": "uint256",
          "name": "",
          "type": "uint256"
        }
      ],
      "stateMutability": "view",
      "type": "function"
    },
    {
      "inputs": [
        {
          "internalType": "address",
          "name": "owner",
          "type": "address"
        },
        {
          "internalType": "uint256",
          "name": "index",
          "type": "uint256"
        }
      ],
      "name": "tokenOfOwnerByIndex",
      "outputs": [
        {
          "internalType": "uint256",
          "name": "",
          "type": "uint256"
        }
      ],
      "stateMutability": "view",
      "type": "function"
    },
    {
      "inputs": [
        {
          "internalType": "uint256",
          "name": "_tokenId",
          "type": "uint256"
        }
      ],
      "name": "tokenURI",
      "outputs": [
        {
          "internalType": "string",
          "name": "uri",
          "type": "string"
        }
      ],
      "stateMutability": "view",
      "type": "function"
    },
    {
      "inputs": [],
      "name": "totalSupply",
      "outputs": [
        {
          "internalType": "uint256",
          "name": "",
          "type": "uint256"
        }
      ],
      "stateMutability": "view",
      "type": "function"
    },
    {
      "inputs": [
        {
          "internalType": "address",
          "name": "from",
          "type": "address"
        },
        {
          "internalType": "address",
          "name": "to",
          "type": "address"
        },
        {
          "internalType": "uint256",
          "name": "tokenId",
          "type": "uint256"
        }
      ],
      "name": "transferFrom",
      "outputs": [],
      "stateMutability": "nonpayable",
      "type": "function"
    },
    {
      "inputs": [
        {
          "internalType": "address",
          "name": "newOwner",
          "type": "address"
        }
      ],
      "name": "transferOwnership",
      "outputs": [],
      "stateMutability": "nonpayable",
      "type": "function"
    }
  ],
  "bytecode": "0x608060405260405180602001604052806000815250600d90805190602001906200002b929190620001ce565b503480156200003957600080fd5b506040518060400160405280600d81526020017f4c657669617468616e734e4654000000000000000000000000000000000000008152506040518060400160405280600381526020017f4c455600000000000000000000000000000000000000000000000000000000008152508160009080519060200190620000be929190620001ce565b508060019080519060200190620000d7929190620001ce565b505050620000fa620000ee6200010060201b60201c565b6200010860201b60201c565b620002e3565b600033905090565b6000600a60009054906101000a900473ffffffffffffffffffffffffffffffffffffffff16905081600a60006101000a81548173ffffffffffffffffffffffffffffffffffffffff021916908373ffffffffffffffffffffffffffffffffffffffff1602179055508173ffffffffffffffffffffffffffffffffffffffff168173ffffffffffffffffffffffffffffffffffffffff167f8be0079c531659141344cd1fd0a4f28419497f9722a3daafe3b4186f6b6457e060405160405180910390a35050565b828054620001dc906200027e565b90600052602060002090601f0160209004810192826200020057600085556200024c565b82601f106200021b57805160ff19168380011785556200024c565b828001600101855582156200024c579182015b828111156200024b5782518255916020019190600101906200022e565b5b5090506200025b91906200025f565b5090565b5b808211156200027a57600081600090555060010162000260565b5090565b600060028204905060018216806200029757607f821691505b60208210811415620002ae57620002ad620002b4565b5b50919050565b7f4e487b7100000000000000000000000000000000000000000000000000000000600052602260045260246000fd5b6136c180620002f36000396000f3fe608060405234801561001057600080fd5b506004361061014d5760003560e01c8063704affad116100c3578063b88d4fde1161007c578063b88d4fde1461039c578063bfb231d2146103b8578063c87b56dd146103e8578063e8a3d48514610418578063e985e9c514610436578063f2fde38b146104665761014d565b8063704affad146102ee57806370a082311461030a578063715018a61461033a5780638da5cb5b1461034457806395d89b4114610362578063a22cb465146103805761014d565b806323b872dd1161011557806323b872dd1461020a5780632f745c591461022657806342842e0e146102565780634f6ccce7146102725780636352211e146102a25780636451a896146102d25761014d565b806301ffc9a71461015257806306fdde0314610182578063081812fc146101a0578063095ea7b3146101d057806318160ddd146101ec575b600080fd5b61016c600480360381019061016791906126bb565b610482565b6040516101799190612afe565b60405180910390f35b61018a6104fc565b6040516101979190612b19565b60405180910390f35b6101ba60048036038101906101b59190612715565b61058e565b6040516101c79190612a97565b60405180910390f35b6101ea60048036038101906101e59190612632565b610613565b005b6101f461072b565b6040516102019190612d7b565b60405180910390f35b610224600480360381019061021f919061251c565b610738565b005b610240600480360381019061023b9190612632565b610798565b60405161024d9190612d7b565b60405180910390f35b610270600480360381019061026b919061251c565b61083d565b005b61028c60048036038101906102879190612715565b61089d565b6040516102999190612d7b565b60405180910390f35b6102bc60048036038101906102b79190612715565b61090e565b6040516102c99190612a97565b60405180910390f35b6102ec60048036038101906102e79190612742565b6109c0565b005b61030860048036038101906103039190612672565b6109e5565b005b610324600480360381019061031f91906124af565b610ae0565b6040516103319190612d7b565b60405180910390f35b610342610b98565b005b61034c610c20565b6040516103599190612a97565b60405180910390f35b61036a610c4a565b6040516103779190612b19565b60405180910390f35b61039a600480360381019061039591906125f2565b610cdc565b005b6103b660048036038101906103b1919061256f565b610cf2565b005b6103d260048036038101906103cd9190612715565b610d54565b6040516103df9190612d7b565b60405180910390f35b61040260048036038101906103fd9190612715565b610d72565b60405161040f9190612b19565b60405180910390f35b610420610ea7565b60405161042d9190612b19565b60405180910390f35b610450600480360381019061044b91906124dc565b610f39565b60405161045d9190612afe565b60405180910390f35b610480600480360381019061047b91906124af565b610fcd565b005b60007f780e9d63000000000000000000000000000000000000000000000000000000007bffffffffffffffffffffffffffffffffffffffffffffffffffffffff1916827bffffffffffffffffffffffffffffffffffffffffffffffffffffffff191614806104f557506104f4826110c5565b5b9050919050565b60606000805461050b90612fc1565b80601f016020809104026020016040519081016040528092919081815260200182805461053790612fc1565b80156105845780601f1061055957610100808354040283529160200191610584565b820191906000526020600020905b81548152906001019060200180831161056757829003601f168201915b5050505050905090565b6000610599826111a7565b6105d8576040517f08c379a00000000000000000000000000000000000000000000000000000000081526004016105cf90612cbb565b60405180910390fd5b6004600083815260200190815260200160002060009054906101000a900473ffffffffffffffffffffffffffffffffffffffff169050919050565b600061061e8261090e565b90508073ffffffffffffffffffffffffffffffffffffffff168373ffffffffffffffffffffffffffffffffffffffff16141561068f576040517f08c379a000000000000000000000000000000000000000000000000000000000815260040161068690612d1b565b60405180910390fd5b8073ffffffffffffffffffffffffffffffffffffffff166106ae611213565b73ffffffffffffffffffffffffffffffffffffffff1614806106dd57506106dc816106d7611213565b610f39565b5b61071c576040517f08c379a000000000000000000000000000000000000000000000000000000000815260040161071390612c3b565b60405180910390fd5b610726838361121b565b505050565b6000600880549050905090565b610749610743611213565b826112d4565b610788576040517f08c379a000000000000000000000000000000000000000000000000000000000815260040161077f90612d3b565b60405180910390fd5b6107938383836113b2565b505050565b60006107a383610ae0565b82106107e4576040517f08c379a00000000000000000000000000000000000000000000000000000000081526004016107db90612b3b565b60405180910390fd5b600660008473ffffffffffffffffffffffffffffffffffffffff1673ffffffffffffffffffffffffffffffffffffffff168152602001908152602001600020600083815260200190815260200160002054905092915050565b61084e610848611213565b826112d4565b61088d576040517f08c379a000000000000000000000000000000000000000000000000000000000815260040161088490612d3b565b60405180910390fd5b6108988383836113b2565b505050565b60006108a761072b565b82106108e8576040517f08c379a00000000000000000000000000000000000000000000000000000000081526004016108df90612d5b565b60405180910390fd5b600882815481106108fc576108fb6130b1565b5b90600052602060002001549050919050565b6000806002600084815260200190815260200160002060009054906101000a900473ffffffffffffffffffffffffffffffffffffffff169050600073ffffffffffffffffffffffffffffffffffffffff168173ffffffffffffffffffffffffffffffffffffffff1614156109b7576040517f08c379a00000000000000000000000000000000000000000000000000000000081526004016109ae90612c7b565b60405180910390fd5b80915050919050565b6000600c60008481526020019081526020016000209050818160000181905550505050565b6109ed611213565b73ffffffffffffffffffffffffffffffffffffffff16610a0b610c20565b73ffffffffffffffffffffffffffffffffffffffff1614610a61576040517f08c379a0000000000000000000000000000000000000000000000000000000008152600401610a5890612cdb565b60405180910390fd5b6000610a6b61072b565b9050600060405180602001604052806001815250905082600b9080519060200190610a97929190612143565b5080600c6000600185610aaa9190612e81565b815260200190815260200160002060008201518160000155905050610adb33600184610ad69190612e81565b611619565b505050565b60008073ffffffffffffffffffffffffffffffffffffffff168273ffffffffffffffffffffffffffffffffffffffff161415610b51576040517f08c379a0000000000000000000000000000000000000000000000000000000008152600401610b4890612c5b565b60405180910390fd5b600360008373ffffffffffffffffffffffffffffffffffffffff1673ffffffffffffffffffffffffffffffffffffffff168152602001908152602001600020549050919050565b610ba0611213565b73ffffffffffffffffffffffffffffffffffffffff16610bbe610c20565b73ffffffffffffffffffffffffffffffffffffffff1614610c14576040517f08c379a0000000000000000000000000000000000000000000000000000000008152600401610c0b90612cdb565b60405180910390fd5b610c1e6000611637565b565b6000600a60009054906101000a900473ffffffffffffffffffffffffffffffffffffffff16905090565b606060018054610c5990612fc1565b80601f0160208091040260200160405190810160405280929190818152602001828054610c8590612fc1565b8015610cd25780601f10610ca757610100808354040283529160200191610cd2565b820191906000526020600020905b815481529060010190602001808311610cb557829003601f168201915b5050505050905090565b610cee610ce7611213565b83836116fd565b5050565b610d03610cfd611213565b836112d4565b610d42576040517f08c379a0000000000000000000000000000000000000000000000000000000008152600401610d3990612d3b565b60405180910390fd5b610d4e8484848461186a565b50505050565b600c6020528060005260406000206000915090508060000154905081565b6060610d7d826111a7565b610dbc576040517f08c379a0000000000000000000000000000000000000000000000000000000008152600401610db390612cfb565b60405180910390fd5b6000600c60008481526020019081526020016000206040518060200160405290816000820154815250509050600b60018260000151610dfb9190612ed7565b81548110610e0c57610e0b6130b1565b5b906000526020600020018054610e2190612fc1565b80601f0160208091040260200160405190810160405280929190818152602001828054610e4d90612fc1565b8015610e9a5780601f10610e6f57610100808354040283529160200191610e9a565b820191906000526020600020905b815481529060010190602001808311610e7d57829003601f168201915b5050505050915050919050565b6060600d8054610eb690612fc1565b80601f0160208091040260200160405190810160405280929190818152602001828054610ee290612fc1565b8015610f2f5780601f10610f0457610100808354040283529160200191610f2f565b820191906000526020600020905b815481529060010190602001808311610f1257829003601f168201915b5050505050905090565b6000600560008473ffffffffffffffffffffffffffffffffffffffff1673ffffffffffffffffffffffffffffffffffffffff16815260200190815260200160002060008373ffffffffffffffffffffffffffffffffffffffff1673ffffffffffffffffffffffffffffffffffffffff16815260200190815260200160002060009054906101000a900460ff16905092915050565b610fd5611213565b73ffffffffffffffffffffffffffffffffffffffff16610ff3610c20565b73ffffffffffffffffffffffffffffffffffffffff1614611049576040517f08c379a000000000000000000000000000000000000000000000000000000000815260040161104090612cdb565b60405180910390fd5b600073ffffffffffffffffffffffffffffffffffffffff168173ffffffffffffffffffffffffffffffffffffffff1614156110b9576040517f08c379a00000000000000000000000000000000000000000000000000000000081526004016110b090612b7b565b60405180910390fd5b6110c281611637565b50565b60007f80ac58cd000000000000000000000000000000000000000000000000000000007bffffffffffffffffffffffffffffffffffffffffffffffffffffffff1916827bffffffffffffffffffffffffffffffffffffffffffffffffffffffff1916148061119057507f5b5e139f000000000000000000000000000000000000000000000000000000007bffffffffffffffffffffffffffffffffffffffffffffffffffffffff1916827bffffffffffffffffffffffffffffffffffffffffffffffffffffffff1916145b806111a0575061119f826118c6565b5b9050919050565b60008073ffffffffffffffffffffffffffffffffffffffff166002600084815260200190815260200160002060009054906101000a900473ffffffffffffffffffffffffffffffffffffffff1673ffffffffffffffffffffffffffffffffffffffff1614159050919050565b600033905090565b816004600083815260200190815260200160002060006101000a81548173ffffffffffffffffffffffffffffffffffffffff021916908373ffffffffffffffffffffffffffffffffffffffff160217905550808273ffffffffffffffffffffffffffffffffffffffff1661128e8361090e565b73ffffffffffffffffffffffffffffffffffffffff167f8c5be1e5ebec7d5bd14f71427d1e84f3dd0314c0f7b2291e5b200ac8c7c3b92560405160405180910390a45050565b60006112df826111a7565b61131e576040517f08c379a000000000000000000000000000000000000000000000000000000000815260040161131590612c1b565b60405180910390fd5b60006113298361090e565b90508073ffffffffffffffffffffffffffffffffffffffff168473ffffffffffffffffffffffffffffffffffffffff16148061136b575061136a8185610f39565b5b806113a957508373ffffffffffffffffffffffffffffffffffffffff166113918461058e565b73ffffffffffffffffffffffffffffffffffffffff16145b91505092915050565b8273ffffffffffffffffffffffffffffffffffffffff166113d28261090e565b73ffffffffffffffffffffffffffffffffffffffff1614611428576040517f08c379a000000000000000000000000000000000000000000000000000000000815260040161141f90612b9b565b60405180910390fd5b600073ffffffffffffffffffffffffffffffffffffffff168273ffffffffffffffffffffffffffffffffffffffff161415611498576040517f08c379a000000000000000000000000000000000000000000000000000000000815260040161148f90612bdb565b60405180910390fd5b6114a3838383611930565b6114ae60008261121b565b6001600360008573ffffffffffffffffffffffffffffffffffffffff1673ffffffffffffffffffffffffffffffffffffffff16815260200190815260200160002060008282546114fe9190612ed7565b925050819055506001600360008473ffffffffffffffffffffffffffffffffffffffff1673ffffffffffffffffffffffffffffffffffffffff16815260200190815260200160002060008282546115559190612e81565b92505081905550816002600083815260200190815260200160002060006101000a81548173ffffffffffffffffffffffffffffffffffffffff021916908373ffffffffffffffffffffffffffffffffffffffff160217905550808273ffffffffffffffffffffffffffffffffffffffff168473ffffffffffffffffffffffffffffffffffffffff167fddf252ad1be2c89b69c2b068fc378daa952ba7f163c4a11628f55a4df523b3ef60405160405180910390a4611614838383611a44565b505050565b611633828260405180602001604052806000815250611a49565b5050565b6000600a60009054906101000a900473ffffffffffffffffffffffffffffffffffffffff16905081600a60006101000a81548173ffffffffffffffffffffffffffffffffffffffff021916908373ffffffffffffffffffffffffffffffffffffffff1602179055508173ffffffffffffffffffffffffffffffffffffffff168173ffffffffffffffffffffffffffffffffffffffff167f8be0079c531659141344cd1fd0a4f28419497f9722a3daafe3b4186f6b6457e060405160405180910390a35050565b8173ffffffffffffffffffffffffffffffffffffffff168373ffffffffffffffffffffffffffffffffffffffff16141561176c576040517f08c379a000000000000000000000000000000000000000000000000000000000815260040161176390612bfb565b60405180910390fd5b80600560008573ffffffffffffffffffffffffffffffffffffffff1673ffffffffffffffffffffffffffffffffffffffff16815260200190815260200160002060008473ffffffffffffffffffffffffffffffffffffffff1673ffffffffffffffffffffffffffffffffffffffff16815260200190815260200160002060006101000a81548160ff0219169083151502179055508173ffffffffffffffffffffffffffffffffffffffff168373ffffffffffffffffffffffffffffffffffffffff167f17307eab39ab6107e8899845ad3d59bd9653f200f220920489ca2b5937696c318360405161185d9190612afe565b60405180910390a3505050565b6118758484846113b2565b61188184848484611aa4565b6118c0576040517f08c379a00000000000000000000000000000000000000000000000000000000081526004016118b790612b5b565b60405180910390fd5b50505050565b60007f01ffc9a7000000000000000000000000000000000000000000000000000000007bffffffffffffffffffffffffffffffffffffffffffffffffffffffff1916827bffffffffffffffffffffffffffffffffffffffffffffffffffffffff1916149050919050565b61193b838383611c3b565b600073ffffffffffffffffffffffffffffffffffffffff168373ffffffffffffffffffffffffffffffffffffffff16141561197e5761197981611c40565b6119bd565b8173ffffffffffffffffffffffffffffffffffffffff168373ffffffffffffffffffffffffffffffffffffffff16146119bc576119bb8382611c89565b5b5b600073ffffffffffffffffffffffffffffffffffffffff168273ffffffffffffffffffffffffffffffffffffffff161415611a00576119fb81611df6565b611a3f565b8273ffffffffffffffffffffffffffffffffffffffff168273ffffffffffffffffffffffffffffffffffffffff1614611a3e57611a3d8282611ec7565b5b5b505050565b505050565b611a538383611f46565b611a606000848484611aa4565b611a9f576040517f08c379a0000000000000000000000000000000000000000000000000000000008152600401611a9690612b5b565b60405180910390fd5b505050565b6000611ac58473ffffffffffffffffffffffffffffffffffffffff16612120565b15611c2e578373ffffffffffffffffffffffffffffffffffffffff1663150b7a02611aee611213565b8786866040518563ffffffff1660e01b8152600401611b109493929190612ab2565b602060405180830381600087803b158015611b2a57600080fd5b505af1925050508015611b5b57506040513d601f19601f82011682018060405250810190611b5891906126e8565b60015b611bde573d8060008114611b8b576040519150601f19603f3d011682016040523d82523d6000602084013e611b90565b606091505b50600081511415611bd6576040517f08c379a0000000000000000000000000000000000000000000000000000000008152600401611bcd90612b5b565b60405180910390fd5b805181602001fd5b63150b7a0260e01b7bffffffffffffffffffffffffffffffffffffffffffffffffffffffff1916817bffffffffffffffffffffffffffffffffffffffffffffffffffffffff191614915050611c33565b600190505b949350505050565b505050565b6008805490506009600083815260200190815260200160002081905550600881908060018154018082558091505060019003906000526020600020016000909190919091505550565b60006001611c9684610ae0565b611ca09190612ed7565b9050600060076000848152602001908152602001600020549050818114611d85576000600660008673ffffffffffffffffffffffffffffffffffffffff1673ffffffffffffffffffffffffffffffffffffffff168152602001908152602001600020600084815260200190815260200160002054905080600660008773ffffffffffffffffffffffffffffffffffffffff1673ffffffffffffffffffffffffffffffffffffffff168152602001908152602001600020600084815260200190815260200160002081905550816007600083815260200190815260200160002081905550505b6007600084815260200190815260200160002060009055600660008573ffffffffffffffffffffffffffffffffffffffff1673ffffffffffffffffffffffffffffffffffffffff16815260200190815260200160002060008381526020019081526020016000206000905550505050565b60006001600880549050611e0a9190612ed7565b9050600060096000848152602001908152602001600020549050600060088381548110611e3a57611e396130b1565b5b906000526020600020015490508060088381548110611e5c57611e5b6130b1565b5b906000526020600020018190555081600960008381526020019081526020016000208190555060096000858152602001908152602001600020600090556008805480611eab57611eaa613082565b5b6001900381819060005260206000200160009055905550505050565b6000611ed283610ae0565b905081600660008573ffffffffffffffffffffffffffffffffffffffff1673ffffffffffffffffffffffffffffffffffffffff168152602001908152602001600020600083815260200190815260200160002081905550806007600084815260200190815260200160002081905550505050565b600073ffffffffffffffffffffffffffffffffffffffff168273ffffffffffffffffffffffffffffffffffffffff161415611fb6576040517f08c379a0000000000000000000000000000000000000000000000000000000008152600401611fad90612c9b565b60405180910390fd5b611fbf816111a7565b15611fff576040517f08c379a0000000000000000000000000000000000000000000000000000000008152600401611ff690612bbb565b60405180910390fd5b61200b60008383611930565b6001600360008473ffffffffffffffffffffffffffffffffffffffff1673ffffffffffffffffffffffffffffffffffffffff168152602001908152602001600020600082825461205b9190612e81565b92505081905550816002600083815260200190815260200160002060006101000a81548173ffffffffffffffffffffffffffffffffffffffff021916908373ffffffffffffffffffffffffffffffffffffffff160217905550808273ffffffffffffffffffffffffffffffffffffffff16600073ffffffffffffffffffffffffffffffffffffffff167fddf252ad1be2c89b69c2b068fc378daa952ba7f163c4a11628f55a4df523b3ef60405160405180910390a461211c60008383611a44565b5050565b6000808273ffffffffffffffffffffffffffffffffffffffff163b119050919050565b828054828255906000526020600020908101928215612192579160200282015b828111156121915782518290805190602001906121819291906121a3565b5091602001919060010190612163565b5b50905061219f9190612229565b5090565b8280546121af90612fc1565b90600052602060002090601f0160209004810192826121d15760008555612218565b82601f106121ea57805160ff1916838001178555612218565b82800160010185558215612218579182015b828111156122175782518255916020019190600101906121fc565b5b509050612225919061224d565b5090565b5b808211156122495760008181612240919061226a565b5060010161222a565b5090565b5b8082111561226657600081600090555060010161224e565b5090565b50805461227690612fc1565b6000825580601f1061228857506122a7565b601f0160209004906000526020600020908101906122a6919061224d565b5b50565b60006122bd6122b884612dbb565b612d96565b905080838252602082019050828560208602820111156122e0576122df613114565b5b60005b8581101561232e57813567ffffffffffffffff8111156123065761230561310f565b5b808601612313898261246c565b855260208501945060208401935050506001810190506122e3565b5050509392505050565b600061234b61234684612de7565b612d96565b90508281526020810184848401111561236757612366613119565b5b612372848285612f7f565b509392505050565b600061238d61238884612e18565b612d96565b9050828152602081018484840111156123a9576123a8613119565b5b6123b4848285612f7f565b509392505050565b6000813590506123cb8161362f565b92915050565b600082601f8301126123e6576123e561310f565b5b81356123f68482602086016122aa565b91505092915050565b60008135905061240e81613646565b92915050565b6000813590506124238161365d565b92915050565b6000815190506124388161365d565b92915050565b600082601f8301126124535761245261310f565b5b8135612463848260208601612338565b91505092915050565b600082601f8301126124815761248061310f565b5b813561249184826020860161237a565b91505092915050565b6000813590506124a981613674565b92915050565b6000602082840312156124c5576124c4613123565b5b60006124d3848285016123bc565b91505092915050565b600080604083850312156124f3576124f2613123565b5b6000612501858286016123bc565b9250506020612512858286016123bc565b9150509250929050565b60008060006060848603121561253557612534613123565b5b6000612543868287016123bc565b9350506020612554868287016123bc565b92505060406125658682870161249a565b9150509250925092565b6000806000806080858703121561258957612588613123565b5b6000612597878288016123bc565b94505060206125a8878288016123bc565b93505060406125b98782880161249a565b925050606085013567ffffffffffffffff8111156125da576125d961311e565b5b6125e68782880161243e565b91505092959194509250565b6000806040838503121561260957612608613123565b5b6000612617858286016123bc565b9250506020612628858286016123ff565b9150509250929050565b6000806040838503121561264957612648613123565b5b6000612657858286016123bc565b92505060206126688582860161249a565b9150509250929050565b60006020828403121561268857612687613123565b5b600082013567ffffffffffffffff8111156126a6576126a561311e565b5b6126b2848285016123d1565b91505092915050565b6000602082840312156126d1576126d0613123565b5b60006126df84828501612414565b91505092915050565b6000602082840312156126fe576126fd613123565b5b600061270c84828501612429565b91505092915050565b60006020828403121561272b5761272a613123565b5b60006127398482850161249a565b91505092915050565b6000806040838503121561275957612758613123565b5b60006127678582860161249a565b92505060206127788582860161249a565b9150509250929050565b61278b81612f0b565b82525050565b61279a81612f1d565b82525050565b60006127ab82612e49565b6127b58185612e5f565b93506127c5818560208601612f8e565b6127ce81613128565b840191505092915050565b60006127e482612e54565b6127ee8185612e70565b93506127fe818560208601612f8e565b61280781613128565b840191505092915050565b600061281f602b83612e70565b915061282a82613139565b604082019050919050565b6000612842603283612e70565b915061284d82613188565b604082019050919050565b6000612865602683612e70565b9150612870826131d7565b604082019050919050565b6000612888602583612e70565b915061289382613226565b604082019050919050565b60006128ab601c83612e70565b91506128b682613275565b602082019050919050565b60006128ce602483612e70565b91506128d98261329e565b604082019050919050565b60006128f1601983612e70565b91506128fc826132ed565b602082019050919050565b6000612914602c83612e70565b915061291f82613316565b604082019050919050565b6000612937603883612e70565b915061294282613365565b604082019050919050565b600061295a602a83612e70565b9150612965826133b4565b604082019050919050565b600061297d602983612e70565b915061298882613403565b604082019050919050565b60006129a0602083612e70565b91506129ab82613452565b602082019050919050565b60006129c3602c83612e70565b91506129ce8261347b565b604082019050919050565b60006129e6602083612e70565b91506129f1826134ca565b602082019050919050565b6000612a09602f83612e70565b9150612a14826134f3565b604082019050919050565b6000612a2c602183612e70565b9150612a3782613542565b604082019050919050565b6000612a4f603183612e70565b9150612a5a82613591565b604082019050919050565b6000612a72602c83612e70565b9150612a7d826135e0565b604082019050919050565b612a9181612f75565b82525050565b6000602082019050612aac6000830184612782565b92915050565b6000608082019050612ac76000830187612782565b612ad46020830186612782565b612ae16040830185612a88565b8181036060830152612af381846127a0565b905095945050505050565b6000602082019050612b136000830184612791565b92915050565b60006020820190508181036000830152612b3381846127d9565b905092915050565b60006020820190508181036000830152612b5481612812565b9050919050565b60006020820190508181036000830152612b7481612835565b9050919050565b60006020820190508181036000830152612b9481612858565b9050919050565b60006020820190508181036000830152612bb48161287b565b9050919050565b60006020820190508181036000830152612bd48161289e565b9050919050565b60006020820190508181036000830152612bf4816128c1565b9050919050565b60006020820190508181036000830152612c14816128e4565b9050919050565b60006020820190508181036000830152612c3481612907565b9050919050565b60006020820190508181036000830152612c548161292a565b9050919050565b60006020820190508181036000830152612c748161294d565b9050919050565b60006020820190508181036000830152612c9481612970565b9050919050565b60006020820190508181036000830152612cb481612993565b9050919050565b60006020820190508181036000830152612cd4816129b6565b9050919050565b60006020820190508181036000830152612cf4816129d9565b9050919050565b60006020820190508181036000830152612d14816129fc565b9050919050565b60006020820190508181036000830152612d3481612a1f565b9050919050565b60006020820190508181036000830152612d5481612a42565b9050919050565b60006020820190508181036000830152612d7481612a65565b9050919050565b6000602082019050612d906000830184612a88565b92915050565b6000612da0612db1565b9050612dac8282612ff3565b919050565b6000604051905090565b600067ffffffffffffffff821115612dd657612dd56130e0565b5b602082029050602081019050919050565b600067ffffffffffffffff821115612e0257612e016130e0565b5b612e0b82613128565b9050602081019050919050565b600067ffffffffffffffff821115612e3357612e326130e0565b5b612e3c82613128565b9050602081019050919050565b600081519050919050565b600081519050919050565b600082825260208201905092915050565b600082825260208201905092915050565b6000612e8c82612f75565b9150612e9783612f75565b9250827fffffffffffffffffffffffffffffffffffffffffffffffffffffffffffffffff03821115612ecc57612ecb613024565b5b828201905092915050565b6000612ee282612f75565b9150612eed83612f75565b925082821015612f0057612eff613024565b5b828203905092915050565b6000612f1682612f55565b9050919050565b60008115159050919050565b60007fffffffff0000000000000000000000000000000000000000000000000000000082169050919050565b600073ffffffffffffffffffffffffffffffffffffffff82169050919050565b6000819050919050565b82818337600083830152505050565b60005b83811015612fac578082015181840152602081019050612f91565b83811115612fbb576000848401525b50505050565b60006002820490506001821680612fd957607f821691505b60208210811415612fed57612fec613053565b5b50919050565b612ffc82613128565b810181811067ffffffffffffffff8211171561301b5761301a6130e0565b5b80604052505050565b7f4e487b7100000000000000000000000000000000000000000000000000000000600052601160045260246000fd5b7f4e487b7100000000000000000000000000000000000000000000000000000000600052602260045260246000fd5b7f4e487b7100000000000000000000000000000000000000000000000000000000600052603160045260246000fd5b7f4e487b7100000000000000000000000000000000000000000000000000000000600052603260045260246000fd5b7f4e487b7100000000000000000000000000000000000000000000000000000000600052604160045260246000fd5b600080fd5b600080fd5b600080fd5b600080fd5b600080fd5b6000601f19601f8301169050919050565b7f455243373231456e756d657261626c653a206f776e657220696e646578206f7560008201527f74206f6620626f756e6473000000000000000000000000000000000000000000602082015250565b7f4552433732313a207472616e7366657220746f206e6f6e20455243373231526560008201527f63656976657220696d706c656d656e7465720000000000000000000000000000602082015250565b7f4f776e61626c653a206e6577206f776e657220697320746865207a65726f206160008201527f6464726573730000000000000000000000000000000000000000000000000000602082015250565b7f4552433732313a207472616e736665722066726f6d20696e636f72726563742060008201527f6f776e6572000000000000000000000000000000000000000000000000000000602082015250565b7f4552433732313a20746f6b656e20616c7265616479206d696e74656400000000600082015250565b7f4552433732313a207472616e7366657220746f20746865207a65726f2061646460008201527f7265737300000000000000000000000000000000000000000000000000000000602082015250565b7f4552433732313a20617070726f766520746f2063616c6c657200000000000000600082015250565b7f4552433732313a206f70657261746f7220717565727920666f72206e6f6e657860008201527f697374656e7420746f6b656e0000000000000000000000000000000000000000602082015250565b7f4552433732313a20617070726f76652063616c6c6572206973206e6f74206f7760008201527f6e6572206e6f7220617070726f76656420666f7220616c6c0000000000000000602082015250565b7f4552433732313a2062616c616e636520717565727920666f7220746865207a6560008201527f726f206164647265737300000000000000000000000000000000000000000000602082015250565b7f4552433732313a206f776e657220717565727920666f72206e6f6e657869737460008201527f656e7420746f6b656e0000000000000000000000000000000000000000000000602082015250565b7f4552433732313a206d696e7420746f20746865207a65726f2061646472657373600082015250565b7f4552433732313a20617070726f76656420717565727920666f72206e6f6e657860008201527f697374656e7420746f6b656e0000000000000000000000000000000000000000602082015250565b7f4f776e61626c653a2063616c6c6572206973206e6f7420746865206f776e6572600082015250565b7f4552433732314d657461646174613a2055524920717565727920666f72206e6f60008201527f6e6578697374656e7420746f6b656e0000000000000000000000000000000000602082015250565b7f4552433732313a20617070726f76616c20746f2063757272656e74206f776e6560008201527f7200000000000000000000000000000000000000000000000000000000000000602082015250565b7f4552433732313a207472616e736665722063616c6c6572206973206e6f74206f60008201527f776e6572206e6f7220617070726f766564000000000000000000000000000000602082015250565b7f455243373231456e756d657261626c653a20676c6f62616c20696e646578206f60008201527f7574206f6620626f756e64730000000000000000000000000000000000000000602082015250565b61363881612f0b565b811461364357600080fd5b50565b61364f81612f1d565b811461365a57600080fd5b50565b61366681612f29565b811461367157600080fd5b50565b61367d81612f75565b811461368857600080fd5b5056fea2646970667358221220e65479b905d7fa6bf33186a4fdcacd080e8f183cdc7327dfbd69a30048c8408364736f6c63430008060033",
  "linkReferences": {},
  "deployedLinkReferences": {}
}