{
  "_format": "hh-sol-artifact-1",
  "contractName": "DynamicNFT002",
  "sourceName": "contracts/DynamicNFT001.sol",
  "abi": [
    {
      "inputs": [],
      "stateMutability": "nonpayable",
      "type": "constructor"
    },
    {
      "anonymous": false,
      "inputs": [
        {
          "indexed": true,
          "internalType": "address",
          "name": "owner",
          "type": "address"
        },
        {
          "indexed": true,
          "internalType": "address",
          "name": "approved",
          "type": "address"
        },
        {
          "indexed": true,
          "internalType": "uint256",
          "name": "tokenId",
          "type": "uint256"
        }
      ],
      "name": "Approval",
      "type": "event"
    },
    {
      "anonymous": false,
      "inputs": [
        {
          "indexed": true,
          "internalType": "address",
          "name": "owner",
          "type": "address"
        },
        {
          "indexed": true,
          "internalType": "address",
          "name": "operator",
          "type": "address"
        },
        {
          "indexed": false,
          "internalType": "bool",
          "name": "approved",
          "type": "bool"
        }
      ],
      "name": "ApprovalForAll",
      "type": "event"
    },
    {
      "anonymous": false,
      "inputs": [
        {
          "indexed": true,
          "internalType": "address",
          "name": "previousOwner",
          "type": "address"
        },
        {
          "indexed": true,
          "internalType": "address",
          "name": "newOwner",
          "type": "address"
        }
      ],
      "name": "OwnershipTransferred",
      "type": "event"
    },
    {
      "anonymous": false,
      "inputs": [
        {
          "indexed": true,
          "internalType": "address",
          "name": "from",
          "type": "address"
        },
        {
          "indexed": true,
          "internalType": "address",
          "name": "to",
          "type": "address"
        },
        {
          "indexed": true,
          "internalType": "uint256",
          "name": "tokenId",
          "type": "uint256"
        }
      ],
      "name": "Transfer",
      "type": "event"
    },
    {
      "inputs": [
        {
          "internalType": "address",
          "name": "to",
          "type": "address"
        },
        {
          "internalType": "uint256",
          "name": "tokenId",
          "type": "uint256"
        }
      ],
      "name": "approve",
      "outputs": [],
      "stateMutability": "nonpayable",
      "type": "function"
    },
    {
      "inputs": [
        {
          "internalType": "address",
          "name": "owner",
          "type": "address"
        }
      ],
      "name": "balanceOf",
      "outputs": [
        {
          "internalType": "uint256",
          "name": "",
          "type": "uint256"
        }
      ],
      "stateMutability": "view",
      "type": "function"
    },
    {
      "inputs": [
        {
          "internalType": "uint256",
          "name": "_tokenId",
          "type": "uint256"
        },
        {
          "internalType": "uint256",
          "name": "_level",
          "type": "uint256"
        }
      ],
      "name": "changeNFT",
      "outputs": [],
      "stateMutability": "nonpayable",
      "type": "function"
    },
    {
      "inputs": [],
      "name": "contractURI",
      "outputs": [
        {
          "internalType": "string",
          "name": "",
          "type": "string"
        }
      ],
      "stateMutability": "view",
      "type": "function"
    },
    {
      "inputs": [
        {
          "internalType": "uint256",
          "name": "tokenId",
          "type": "uint256"
        }
      ],
      "name": "getApproved",
      "outputs": [
        {
          "internalType": "address",
          "name": "",
          "type": "address"
        }
      ],
      "stateMutability": "view",
      "type": "function"
    },
    {
      "inputs": [
        {
          "internalType": "address",
          "name": "owner",
          "type": "address"
        },
        {
          "internalType": "address",
          "name": "operator",
          "type": "address"
        }
      ],
      "name": "isApprovedForAll",
      "outputs": [
        {
          "internalType": "bool",
          "name": "",
          "type": "bool"
        }
      ],
      "stateMutability": "view",
      "type": "function"
    },
    {
      "inputs": [
        {
          "internalType": "string",
          "name": "_initBaseURI",
          "type": "string"
        },
        {
          "internalType": "string",
          "name": "_initChangedUri",
          "type": "string"
        }
      ],
      "name": "mintNFT",
      "outputs": [],
      "stateMutability": "nonpayable",
      "type": "function"
    },
    {
      "inputs": [],
      "name": "name",
      "outputs": [
        {
          "internalType": "string",
          "name": "",
          "type": "string"
        }
      ],
      "stateMutability": "view",
      "type": "function"
    },
    {
      "inputs": [],
      "name": "owner",
      "outputs": [
        {
          "internalType": "address",
          "name": "",
          "type": "address"
        }
      ],
      "stateMutability": "view",
      "type": "function"
    },
    {
      "inputs": [
        {
          "internalType": "uint256",
          "name": "tokenId",
          "type": "uint256"
        }
      ],
      "name": "ownerOf",
      "outputs": [
        {
          "internalType": "address",
          "name": "",
          "type": "address"
        }
      ],
      "stateMutability": "view",
      "type": "function"
    },
    {
      "inputs": [],
      "name": "renounceOwnership",
      "outputs": [],
      "stateMutability": "nonpayable",
      "type": "function"
    },
    {
      "inputs": [
        {
          "internalType": "address",
          "name": "from",
          "type": "address"
        },
        {
          "internalType": "address",
          "name": "to",
          "type": "address"
        },
        {
          "internalType": "uint256",
          "name": "tokenId",
          "type": "uint256"
        }
      ],
      "name": "safeTransferFrom",
      "outputs": [],
      "stateMutability": "nonpayable",
      "type": "function"
    },
    {
      "inputs": [
        {
          "internalType": "address",
          "name": "from",
          "type": "address"
        },
        {
          "internalType": "address",
          "name": "to",
          "type": "address"
        },
        {
          "internalType": "uint256",
          "name": "tokenId",
          "type": "uint256"
        },
        {
          "internalType": "bytes",
          "name": "_data",
          "type": "bytes"
        }
      ],
      "name": "safeTransferFrom",
      "outputs": [],
      "stateMutability": "nonpayable",
      "type": "function"
    },
    {
      "inputs": [
        {
          "internalType": "address",
          "name": "operator",
          "type": "address"
        },
        {
          "internalType": "bool",
          "name": "approved",
          "type": "bool"
        }
      ],
      "name": "setApprovalForAll",
      "outputs": [],
      "stateMutability": "nonpayable",
      "type": "function"
    },
    {
      "inputs": [
        {
          "internalType": "bytes4",
          "name": "interfaceId",
          "type": "bytes4"
        }
      ],
      "name": "supportsInterface",
      "outputs": [
        {
          "internalType": "bool",
          "name": "",
          "type": "bool"
        }
      ],
      "stateMutability": "view",
      "type": "function"
    },
    {
      "inputs": [],
      "name": "symbol",
      "outputs": [
        {
          "internalType": "string",
          "name": "",
          "type": "string"
        }
      ],
      "stateMutability": "view",
      "type": "function"
    },
    {
      "inputs": [
        {
          "internalType": "uint256",
          "name": "index",
          "type": "uint256"
        }
      ],
      "name": "tokenByIndex",
      "outputs": [
        {
          "internalType": "uint256",
          "name": "",
          "type": "uint256"
        }
      ],
      "stateMutability": "view",
      "type": "function"
    },
    {
      "inputs": [
        {
          "internalType": "address",
          "name": "owner",
          "type": "address"
        },
        {
          "internalType": "uint256",
          "name": "index",
          "type": "uint256"
        }
      ],
      "name": "tokenOfOwnerByIndex",
      "outputs": [
        {
          "internalType": "uint256",
          "name": "",
          "type": "uint256"
        }
      ],
      "stateMutability": "view",
      "type": "function"
    },
    {
      "inputs": [
        {
          "internalType": "uint256",
          "name": "_tokenId",
          "type": "uint256"
        }
      ],
      "name": "tokenURI",
      "outputs": [
        {
          "internalType": "string",
          "name": "",
          "type": "string"
        }
      ],
      "stateMutability": "view",
      "type": "function"
    },
    {
      "inputs": [
        {
          "internalType": "uint256",
          "name": "",
          "type": "uint256"
        }
      ],
      "name": "toons",
      "outputs": [
        {
          "internalType": "uint256",
          "name": "level",
          "type": "uint256"
        }
      ],
      "stateMutability": "view",
      "type": "function"
    },
    {
      "inputs": [],
      "name": "totalSupply",
      "outputs": [
        {
          "internalType": "uint256",
          "name": "",
          "type": "uint256"
        }
      ],
      "stateMutability": "view",
      "type": "function"
    },
    {
      "inputs": [
        {
          "internalType": "address",
          "name": "from",
          "type": "address"
        },
        {
          "internalType": "address",
          "name": "to",
          "type": "address"
        },
        {
          "internalType": "uint256",
          "name": "tokenId",
          "type": "uint256"
        }
      ],
      "name": "transferFrom",
      "outputs": [],
      "stateMutability": "nonpayable",
      "type": "function"
    },
    {
      "inputs": [
        {
          "internalType": "address",
          "name": "newOwner",
          "type": "address"
        }
      ],
      "name": "transferOwnership",
      "outputs": [],
      "stateMutability": "nonpayable",
      "type": "function"
    }
  ],
  "bytecode": "0x6080604052604051806080016040528060508152602001620039e460509139600e908051906020019062000035929190620001d8565b503480156200004357600080fd5b506040518060400160405280600d81526020017f44796e616d69634e4654303032000000000000000000000000000000000000008152506040518060400160405280600481526020017f444e4654000000000000000000000000000000000000000000000000000000008152508160009080519060200190620000c8929190620001d8565b508060019080519060200190620000e1929190620001d8565b50505062000104620000f86200010a60201b60201c565b6200011260201b60201c565b620002ed565b600033905090565b6000600a60009054906101000a900473ffffffffffffffffffffffffffffffffffffffff16905081600a60006101000a81548173ffffffffffffffffffffffffffffffffffffffff021916908373ffffffffffffffffffffffffffffffffffffffff1602179055508173ffffffffffffffffffffffffffffffffffffffff168173ffffffffffffffffffffffffffffffffffffffff167f8be0079c531659141344cd1fd0a4f28419497f9722a3daafe3b4186f6b6457e060405160405180910390a35050565b828054620001e69062000288565b90600052602060002090601f0160209004810192826200020a576000855562000256565b82601f106200022557805160ff191683800117855562000256565b8280016001018555821562000256579182015b828111156200025557825182559160200191906001019062000238565b5b50905062000265919062000269565b5090565b5b80821115620002845760008160009055506001016200026a565b5090565b60006002820490506001821680620002a157607f821691505b60208210811415620002b857620002b7620002be565b5b50919050565b7f4e487b7100000000000000000000000000000000000000000000000000000000600052602260045260246000fd5b6136e780620002fd6000396000f3fe608060405234801561001057600080fd5b506004361061014d5760003560e01c806370a08231116100c3578063b88d4fde1161007c578063b88d4fde146103b0578063c87b56dd146103cc578063e8a3d485146103fc578063e96055441461041a578063e985e9c514610436578063f2fde38b146104665761014d565b806370a08231146102ee578063715018a61461031e5780638da5cb5b1461032857806395d89b4114610346578063971e701114610364578063a22cb465146103945761014d565b806323b872dd1161011557806323b872dd1461020a5780632f745c591461022657806342842e0e146102565780634f6ccce7146102725780636352211e146102a25780636451a896146102d25761014d565b806301ffc9a71461015257806306fdde0314610182578063081812fc146101a0578063095ea7b3146101d057806318160ddd146101ec575b600080fd5b61016c60048036038101906101679190612608565b610482565b6040516101799190612ae6565b60405180910390f35b61018a6104fc565b6040516101979190612b01565b60405180910390f35b6101ba60048036038101906101b591906126da565b61058e565b6040516101c79190612a7f565b60405180910390f35b6101ea60048036038101906101e591906125c8565b610613565b005b6101f461072b565b6040516102019190612d83565b60405180910390f35b610224600480360381019061021f91906124b2565b610738565b005b610240600480360381019061023b91906125c8565b610798565b60405161024d9190612d83565b60405180910390f35b610270600480360381019061026b91906124b2565b61083d565b005b61028c600480360381019061028791906126da565b61089d565b6040516102999190612d83565b60405180910390f35b6102bc60048036038101906102b791906126da565b61090e565b6040516102c99190612a7f565b60405180910390f35b6102ec60048036038101906102e79190612707565b6109c0565b005b61030860048036038101906103039190612445565b610a5b565b6040516103159190612d83565b60405180910390f35b610326610b13565b005b610330610b9b565b60405161033d9190612a7f565b60405180910390f35b61034e610bc5565b60405161035b9190612b01565b60405180910390f35b61037e600480360381019061037991906126da565b610c57565b60405161038b9190612d83565b60405180910390f35b6103ae60048036038101906103a99190612588565b610c75565b005b6103ca60048036038101906103c59190612505565b610c8b565b005b6103e660048036038101906103e191906126da565b610ced565b6040516103f39190612b01565b60405180910390f35b610404610eaa565b6040516104119190612b01565b60405180910390f35b610434600480360381019061042f9190612662565b610f3c565b005b610450600480360381019061044b9190612472565b61104f565b60405161045d9190612ae6565b60405180910390f35b610480600480360381019061047b9190612445565b6110e3565b005b60007f780e9d63000000000000000000000000000000000000000000000000000000007bffffffffffffffffffffffffffffffffffffffffffffffffffffffff1916827bffffffffffffffffffffffffffffffffffffffffffffffffffffffff191614806104f557506104f4826111db565b5b9050919050565b60606000805461050b90612f9d565b80601f016020809104026020016040519081016040528092919081815260200182805461053790612f9d565b80156105845780601f1061055957610100808354040283529160200191610584565b820191906000526020600020905b81548152906001019060200180831161056757829003601f168201915b5050505050905090565b6000610599826112bd565b6105d8576040517f08c379a00000000000000000000000000000000000000000000000000000000081526004016105cf90612ca3565b60405180910390fd5b6004600083815260200190815260200160002060009054906101000a900473ffffffffffffffffffffffffffffffffffffffff169050919050565b600061061e8261090e565b90508073ffffffffffffffffffffffffffffffffffffffff168373ffffffffffffffffffffffffffffffffffffffff16141561068f576040517f08c379a000000000000000000000000000000000000000000000000000000000815260040161068690612d23565b60405180910390fd5b8073ffffffffffffffffffffffffffffffffffffffff166106ae611329565b73ffffffffffffffffffffffffffffffffffffffff1614806106dd57506106dc816106d7611329565b61104f565b5b61071c576040517f08c379a000000000000000000000000000000000000000000000000000000000815260040161071390612c23565b60405180910390fd5b6107268383611331565b505050565b6000600880549050905090565b610749610743611329565b826113ea565b610788576040517f08c379a000000000000000000000000000000000000000000000000000000000815260040161077f90612d43565b60405180910390fd5b6107938383836114c8565b505050565b60006107a383610a5b565b82106107e4576040517f08c379a00000000000000000000000000000000000000000000000000000000081526004016107db90612b23565b60405180910390fd5b600660008473ffffffffffffffffffffffffffffffffffffffff1673ffffffffffffffffffffffffffffffffffffffff168152602001908152602001600020600083815260200190815260200160002054905092915050565b61084e610848611329565b826113ea565b61088d576040517f08c379a000000000000000000000000000000000000000000000000000000000815260040161088490612d43565b60405180910390fd5b6108988383836114c8565b505050565b60006108a761072b565b82106108e8576040517f08c379a00000000000000000000000000000000000000000000000000000000081526004016108df90612d63565b60405180910390fd5b600882815481106108fc576108fb61308d565b5b90600052602060002001549050919050565b6000806002600084815260200190815260200160002060009054906101000a900473ffffffffffffffffffffffffffffffffffffffff169050600073ffffffffffffffffffffffffffffffffffffffff168173ffffffffffffffffffffffffffffffffffffffff1614156109b7576040517f08c379a00000000000000000000000000000000000000000000000000000000081526004016109ae90612c63565b60405180910390fd5b80915050919050565b6109c98261090e565b73ffffffffffffffffffffffffffffffffffffffff163373ffffffffffffffffffffffffffffffffffffffff1614610a36576040517f08c379a0000000000000000000000000000000000000000000000000000000008152600401610a2d90612d03565b60405180910390fd5b6000600d60008481526020019081526020016000209050818160000181905550505050565b60008073ffffffffffffffffffffffffffffffffffffffff168273ffffffffffffffffffffffffffffffffffffffff161415610acc576040517f08c379a0000000000000000000000000000000000000000000000000000000008152600401610ac390612c43565b60405180910390fd5b600360008373ffffffffffffffffffffffffffffffffffffffff1673ffffffffffffffffffffffffffffffffffffffff168152602001908152602001600020549050919050565b610b1b611329565b73ffffffffffffffffffffffffffffffffffffffff16610b39610b9b565b73ffffffffffffffffffffffffffffffffffffffff1614610b8f576040517f08c379a0000000000000000000000000000000000000000000000000000000008152600401610b8690612cc3565b60405180910390fd5b610b99600061172f565b565b6000600a60009054906101000a900473ffffffffffffffffffffffffffffffffffffffff16905090565b606060018054610bd490612f9d565b80601f0160208091040260200160405190810160405280929190818152602001828054610c0090612f9d565b8015610c4d5780601f10610c2257610100808354040283529160200191610c4d565b820191906000526020600020905b815481529060010190602001808311610c3057829003601f168201915b5050505050905090565b600d6020528060005260406000206000915090508060000154905081565b610c87610c80611329565b83836117f5565b5050565b610c9c610c96611329565b836113ea565b610cdb576040517f08c379a0000000000000000000000000000000000000000000000000000000008152600401610cd290612d43565b60405180910390fd5b610ce784848484611962565b50505050565b6060610cf8826112bd565b610d37576040517f08c379a0000000000000000000000000000000000000000000000000000000008152600401610d2e90612ce3565b60405180910390fd5b6000600d60008481526020019081526020016000206040518060200160405290816000820154815250509050600181600001511415610e0357600b8054610d7d90612f9d565b80601f0160208091040260200160405190810160405280929190818152602001828054610da990612f9d565b8015610df65780601f10610dcb57610100808354040283529160200191610df6565b820191906000526020600020905b815481529060010190602001808311610dd957829003601f168201915b5050505050915050610ea5565b600281600001511415610ea357600c8054610e1d90612f9d565b80601f0160208091040260200160405190810160405280929190818152602001828054610e4990612f9d565b8015610e965780601f10610e6b57610100808354040283529160200191610e96565b820191906000526020600020905b815481529060010190602001808311610e7957829003601f168201915b5050505050915050610ea5565b505b919050565b6060600e8054610eb990612f9d565b80601f0160208091040260200160405190810160405280929190818152602001828054610ee590612f9d565b8015610f325780601f10610f0757610100808354040283529160200191610f32565b820191906000526020600020905b815481529060010190602001808311610f1557829003601f168201915b5050505050905090565b610f44611329565b73ffffffffffffffffffffffffffffffffffffffff16610f62610b9b565b73ffffffffffffffffffffffffffffffffffffffff1614610fb8576040517f08c379a0000000000000000000000000000000000000000000000000000000008152600401610faf90612cc3565b60405180910390fd5b6000610fc261072b565b9050600060405180602001604052806001815250905082600c9080519060200190610fee929190612259565b5083600b9080519060200190611005929190612259565b5080600d60006001856110189190612e5d565b815260200190815260200160002060008201518160000155905050611049336001846110449190612e5d565b6119be565b50505050565b6000600560008473ffffffffffffffffffffffffffffffffffffffff1673ffffffffffffffffffffffffffffffffffffffff16815260200190815260200160002060008373ffffffffffffffffffffffffffffffffffffffff1673ffffffffffffffffffffffffffffffffffffffff16815260200190815260200160002060009054906101000a900460ff16905092915050565b6110eb611329565b73ffffffffffffffffffffffffffffffffffffffff16611109610b9b565b73ffffffffffffffffffffffffffffffffffffffff161461115f576040517f08c379a000000000000000000000000000000000000000000000000000000000815260040161115690612cc3565b60405180910390fd5b600073ffffffffffffffffffffffffffffffffffffffff168173ffffffffffffffffffffffffffffffffffffffff1614156111cf576040517f08c379a00000000000000000000000000000000000000000000000000000000081526004016111c690612b63565b60405180910390fd5b6111d88161172f565b50565b60007f80ac58cd000000000000000000000000000000000000000000000000000000007bffffffffffffffffffffffffffffffffffffffffffffffffffffffff1916827bffffffffffffffffffffffffffffffffffffffffffffffffffffffff191614806112a657507f5b5e139f000000000000000000000000000000000000000000000000000000007bffffffffffffffffffffffffffffffffffffffffffffffffffffffff1916827bffffffffffffffffffffffffffffffffffffffffffffffffffffffff1916145b806112b657506112b5826119dc565b5b9050919050565b60008073ffffffffffffffffffffffffffffffffffffffff166002600084815260200190815260200160002060009054906101000a900473ffffffffffffffffffffffffffffffffffffffff1673ffffffffffffffffffffffffffffffffffffffff1614159050919050565b600033905090565b816004600083815260200190815260200160002060006101000a81548173ffffffffffffffffffffffffffffffffffffffff021916908373ffffffffffffffffffffffffffffffffffffffff160217905550808273ffffffffffffffffffffffffffffffffffffffff166113a48361090e565b73ffffffffffffffffffffffffffffffffffffffff167f8c5be1e5ebec7d5bd14f71427d1e84f3dd0314c0f7b2291e5b200ac8c7c3b92560405160405180910390a45050565b60006113f5826112bd565b611434576040517f08c379a000000000000000000000000000000000000000000000000000000000815260040161142b90612c03565b60405180910390fd5b600061143f8361090e565b90508073ffffffffffffffffffffffffffffffffffffffff168473ffffffffffffffffffffffffffffffffffffffff1614806114815750611480818561104f565b5b806114bf57508373ffffffffffffffffffffffffffffffffffffffff166114a78461058e565b73ffffffffffffffffffffffffffffffffffffffff16145b91505092915050565b8273ffffffffffffffffffffffffffffffffffffffff166114e88261090e565b73ffffffffffffffffffffffffffffffffffffffff161461153e576040517f08c379a000000000000000000000000000000000000000000000000000000000815260040161153590612b83565b60405180910390fd5b600073ffffffffffffffffffffffffffffffffffffffff168273ffffffffffffffffffffffffffffffffffffffff1614156115ae576040517f08c379a00000000000000000000000000000000000000000000000000000000081526004016115a590612bc3565b60405180910390fd5b6115b9838383611a46565b6115c4600082611331565b6001600360008573ffffffffffffffffffffffffffffffffffffffff1673ffffffffffffffffffffffffffffffffffffffff16815260200190815260200160002060008282546116149190612eb3565b925050819055506001600360008473ffffffffffffffffffffffffffffffffffffffff1673ffffffffffffffffffffffffffffffffffffffff168152602001908152602001600020600082825461166b9190612e5d565b92505081905550816002600083815260200190815260200160002060006101000a81548173ffffffffffffffffffffffffffffffffffffffff021916908373ffffffffffffffffffffffffffffffffffffffff160217905550808273ffffffffffffffffffffffffffffffffffffffff168473ffffffffffffffffffffffffffffffffffffffff167fddf252ad1be2c89b69c2b068fc378daa952ba7f163c4a11628f55a4df523b3ef60405160405180910390a461172a838383611b5a565b505050565b6000600a60009054906101000a900473ffffffffffffffffffffffffffffffffffffffff16905081600a60006101000a81548173ffffffffffffffffffffffffffffffffffffffff021916908373ffffffffffffffffffffffffffffffffffffffff1602179055508173ffffffffffffffffffffffffffffffffffffffff168173ffffffffffffffffffffffffffffffffffffffff167f8be0079c531659141344cd1fd0a4f28419497f9722a3daafe3b4186f6b6457e060405160405180910390a35050565b8173ffffffffffffffffffffffffffffffffffffffff168373ffffffffffffffffffffffffffffffffffffffff161415611864576040517f08c379a000000000000000000000000000000000000000000000000000000000815260040161185b90612be3565b60405180910390fd5b80600560008573ffffffffffffffffffffffffffffffffffffffff1673ffffffffffffffffffffffffffffffffffffffff16815260200190815260200160002060008473ffffffffffffffffffffffffffffffffffffffff1673ffffffffffffffffffffffffffffffffffffffff16815260200190815260200160002060006101000a81548160ff0219169083151502179055508173ffffffffffffffffffffffffffffffffffffffff168373ffffffffffffffffffffffffffffffffffffffff167f17307eab39ab6107e8899845ad3d59bd9653f200f220920489ca2b5937696c31836040516119559190612ae6565b60405180910390a3505050565b61196d8484846114c8565b61197984848484611b5f565b6119b8576040517f08c379a00000000000000000000000000000000000000000000000000000000081526004016119af90612b43565b60405180910390fd5b50505050565b6119d8828260405180602001604052806000815250611cf6565b5050565b60007f01ffc9a7000000000000000000000000000000000000000000000000000000007bffffffffffffffffffffffffffffffffffffffffffffffffffffffff1916827bffffffffffffffffffffffffffffffffffffffffffffffffffffffff1916149050919050565b611a51838383611d51565b600073ffffffffffffffffffffffffffffffffffffffff168373ffffffffffffffffffffffffffffffffffffffff161415611a9457611a8f81611d56565b611ad3565b8173ffffffffffffffffffffffffffffffffffffffff168373ffffffffffffffffffffffffffffffffffffffff1614611ad257611ad18382611d9f565b5b5b600073ffffffffffffffffffffffffffffffffffffffff168273ffffffffffffffffffffffffffffffffffffffff161415611b1657611b1181611f0c565b611b55565b8273ffffffffffffffffffffffffffffffffffffffff168273ffffffffffffffffffffffffffffffffffffffff1614611b5457611b538282611fdd565b5b5b505050565b505050565b6000611b808473ffffffffffffffffffffffffffffffffffffffff1661205c565b15611ce9578373ffffffffffffffffffffffffffffffffffffffff1663150b7a02611ba9611329565b8786866040518563ffffffff1660e01b8152600401611bcb9493929190612a9a565b602060405180830381600087803b158015611be557600080fd5b505af1925050508015611c1657506040513d601f19601f82011682018060405250810190611c139190612635565b60015b611c99573d8060008114611c46576040519150601f19603f3d011682016040523d82523d6000602084013e611c4b565b606091505b50600081511415611c91576040517f08c379a0000000000000000000000000000000000000000000000000000000008152600401611c8890612b43565b60405180910390fd5b805181602001fd5b63150b7a0260e01b7bffffffffffffffffffffffffffffffffffffffffffffffffffffffff1916817bffffffffffffffffffffffffffffffffffffffffffffffffffffffff191614915050611cee565b600190505b949350505050565b611d00838361207f565b611d0d6000848484611b5f565b611d4c576040517f08c379a0000000000000000000000000000000000000000000000000000000008152600401611d4390612b43565b60405180910390fd5b505050565b505050565b6008805490506009600083815260200190815260200160002081905550600881908060018154018082558091505060019003906000526020600020016000909190919091505550565b60006001611dac84610a5b565b611db69190612eb3565b9050600060076000848152602001908152602001600020549050818114611e9b576000600660008673ffffffffffffffffffffffffffffffffffffffff1673ffffffffffffffffffffffffffffffffffffffff168152602001908152602001600020600084815260200190815260200160002054905080600660008773ffffffffffffffffffffffffffffffffffffffff1673ffffffffffffffffffffffffffffffffffffffff168152602001908152602001600020600084815260200190815260200160002081905550816007600083815260200190815260200160002081905550505b6007600084815260200190815260200160002060009055600660008573ffffffffffffffffffffffffffffffffffffffff1673ffffffffffffffffffffffffffffffffffffffff16815260200190815260200160002060008381526020019081526020016000206000905550505050565b60006001600880549050611f209190612eb3565b9050600060096000848152602001908152602001600020549050600060088381548110611f5057611f4f61308d565b5b906000526020600020015490508060088381548110611f7257611f7161308d565b5b906000526020600020018190555081600960008381526020019081526020016000208190555060096000858152602001908152602001600020600090556008805480611fc157611fc061305e565b5b6001900381819060005260206000200160009055905550505050565b6000611fe883610a5b565b905081600660008573ffffffffffffffffffffffffffffffffffffffff1673ffffffffffffffffffffffffffffffffffffffff168152602001908152602001600020600083815260200190815260200160002081905550806007600084815260200190815260200160002081905550505050565b6000808273ffffffffffffffffffffffffffffffffffffffff163b119050919050565b600073ffffffffffffffffffffffffffffffffffffffff168273ffffffffffffffffffffffffffffffffffffffff1614156120ef576040517f08c379a00000000000000000000000000000000000000000000000000000000081526004016120e690612c83565b60405180910390fd5b6120f8816112bd565b15612138576040517f08c379a000000000000000000000000000000000000000000000000000000000815260040161212f90612ba3565b60405180910390fd5b61214460008383611a46565b6001600360008473ffffffffffffffffffffffffffffffffffffffff1673ffffffffffffffffffffffffffffffffffffffff16815260200190815260200160002060008282546121949190612e5d565b92505081905550816002600083815260200190815260200160002060006101000a81548173ffffffffffffffffffffffffffffffffffffffff021916908373ffffffffffffffffffffffffffffffffffffffff160217905550808273ffffffffffffffffffffffffffffffffffffffff16600073ffffffffffffffffffffffffffffffffffffffff167fddf252ad1be2c89b69c2b068fc378daa952ba7f163c4a11628f55a4df523b3ef60405160405180910390a461225560008383611b5a565b5050565b82805461226590612f9d565b90600052602060002090601f01602090048101928261228757600085556122ce565b82601f106122a057805160ff19168380011785556122ce565b828001600101855582156122ce579182015b828111156122cd5782518255916020019190600101906122b2565b5b5090506122db91906122df565b5090565b5b808211156122f85760008160009055506001016122e0565b5090565b600061230f61230a84612dc3565b612d9e565b90508281526020810184848401111561232b5761232a6130f0565b5b612336848285612f5b565b509392505050565b600061235161234c84612df4565b612d9e565b90508281526020810184848401111561236d5761236c6130f0565b5b612378848285612f5b565b509392505050565b60008135905061238f81613655565b92915050565b6000813590506123a48161366c565b92915050565b6000813590506123b981613683565b92915050565b6000815190506123ce81613683565b92915050565b600082601f8301126123e9576123e86130eb565b5b81356123f98482602086016122fc565b91505092915050565b600082601f830112612417576124166130eb565b5b813561242784826020860161233e565b91505092915050565b60008135905061243f8161369a565b92915050565b60006020828403121561245b5761245a6130fa565b5b600061246984828501612380565b91505092915050565b60008060408385031215612489576124886130fa565b5b600061249785828601612380565b92505060206124a885828601612380565b9150509250929050565b6000806000606084860312156124cb576124ca6130fa565b5b60006124d986828701612380565b93505060206124ea86828701612380565b92505060406124fb86828701612430565b9150509250925092565b6000806000806080858703121561251f5761251e6130fa565b5b600061252d87828801612380565b945050602061253e87828801612380565b935050604061254f87828801612430565b925050606085013567ffffffffffffffff8111156125705761256f6130f5565b5b61257c878288016123d4565b91505092959194509250565b6000806040838503121561259f5761259e6130fa565b5b60006125ad85828601612380565b92505060206125be85828601612395565b9150509250929050565b600080604083850312156125df576125de6130fa565b5b60006125ed85828601612380565b92505060206125fe85828601612430565b9150509250929050565b60006020828403121561261e5761261d6130fa565b5b600061262c848285016123aa565b91505092915050565b60006020828403121561264b5761264a6130fa565b5b6000612659848285016123bf565b91505092915050565b60008060408385031215612679576126786130fa565b5b600083013567ffffffffffffffff811115612697576126966130f5565b5b6126a385828601612402565b925050602083013567ffffffffffffffff8111156126c4576126c36130f5565b5b6126d085828601612402565b9150509250929050565b6000602082840312156126f0576126ef6130fa565b5b60006126fe84828501612430565b91505092915050565b6000806040838503121561271e5761271d6130fa565b5b600061272c85828601612430565b925050602061273d85828601612430565b9150509250929050565b61275081612ee7565b82525050565b61275f81612ef9565b82525050565b600061277082612e25565b61277a8185612e3b565b935061278a818560208601612f6a565b612793816130ff565b840191505092915050565b60006127a982612e30565b6127b38185612e4c565b93506127c3818560208601612f6a565b6127cc816130ff565b840191505092915050565b60006127e4602b83612e4c565b91506127ef82613110565b604082019050919050565b6000612807603283612e4c565b91506128128261315f565b604082019050919050565b600061282a602683612e4c565b9150612835826131ae565b604082019050919050565b600061284d602583612e4c565b9150612858826131fd565b604082019050919050565b6000612870601c83612e4c565b915061287b8261324c565b602082019050919050565b6000612893602483612e4c565b915061289e82613275565b604082019050919050565b60006128b6601983612e4c565b91506128c1826132c4565b602082019050919050565b60006128d9602c83612e4c565b91506128e4826132ed565b604082019050919050565b60006128fc603883612e4c565b91506129078261333c565b604082019050919050565b600061291f602a83612e4c565b915061292a8261338b565b604082019050919050565b6000612942602983612e4c565b915061294d826133da565b604082019050919050565b6000612965602083612e4c565b915061297082613429565b602082019050919050565b6000612988602c83612e4c565b915061299382613452565b604082019050919050565b60006129ab602083612e4c565b91506129b6826134a1565b602082019050919050565b60006129ce602f83612e4c565b91506129d9826134ca565b604082019050919050565b60006129f1602283612e4c565b91506129fc82613519565b604082019050919050565b6000612a14602183612e4c565b9150612a1f82613568565b604082019050919050565b6000612a37603183612e4c565b9150612a42826135b7565b604082019050919050565b6000612a5a602c83612e4c565b9150612a6582613606565b604082019050919050565b612a7981612f51565b82525050565b6000602082019050612a946000830184612747565b92915050565b6000608082019050612aaf6000830187612747565b612abc6020830186612747565b612ac96040830185612a70565b8181036060830152612adb8184612765565b905095945050505050565b6000602082019050612afb6000830184612756565b92915050565b60006020820190508181036000830152612b1b818461279e565b905092915050565b60006020820190508181036000830152612b3c816127d7565b9050919050565b60006020820190508181036000830152612b5c816127fa565b9050919050565b60006020820190508181036000830152612b7c8161281d565b9050919050565b60006020820190508181036000830152612b9c81612840565b9050919050565b60006020820190508181036000830152612bbc81612863565b9050919050565b60006020820190508181036000830152612bdc81612886565b9050919050565b60006020820190508181036000830152612bfc816128a9565b9050919050565b60006020820190508181036000830152612c1c816128cc565b9050919050565b60006020820190508181036000830152612c3c816128ef565b9050919050565b60006020820190508181036000830152612c5c81612912565b9050919050565b60006020820190508181036000830152612c7c81612935565b9050919050565b60006020820190508181036000830152612c9c81612958565b9050919050565b60006020820190508181036000830152612cbc8161297b565b9050919050565b60006020820190508181036000830152612cdc8161299e565b9050919050565b60006020820190508181036000830152612cfc816129c1565b9050919050565b60006020820190508181036000830152612d1c816129e4565b9050919050565b60006020820190508181036000830152612d3c81612a07565b9050919050565b60006020820190508181036000830152612d5c81612a2a565b9050919050565b60006020820190508181036000830152612d7c81612a4d565b9050919050565b6000602082019050612d986000830184612a70565b92915050565b6000612da8612db9565b9050612db48282612fcf565b919050565b6000604051905090565b600067ffffffffffffffff821115612dde57612ddd6130bc565b5b612de7826130ff565b9050602081019050919050565b600067ffffffffffffffff821115612e0f57612e0e6130bc565b5b612e18826130ff565b9050602081019050919050565b600081519050919050565b600081519050919050565b600082825260208201905092915050565b600082825260208201905092915050565b6000612e6882612f51565b9150612e7383612f51565b9250827fffffffffffffffffffffffffffffffffffffffffffffffffffffffffffffffff03821115612ea857612ea7613000565b5b828201905092915050565b6000612ebe82612f51565b9150612ec983612f51565b925082821015612edc57612edb613000565b5b828203905092915050565b6000612ef282612f31565b9050919050565b60008115159050919050565b60007fffffffff0000000000000000000000000000000000000000000000000000000082169050919050565b600073ffffffffffffffffffffffffffffffffffffffff82169050919050565b6000819050919050565b82818337600083830152505050565b60005b83811015612f88578082015181840152602081019050612f6d565b83811115612f97576000848401525b50505050565b60006002820490506001821680612fb557607f821691505b60208210811415612fc957612fc861302f565b5b50919050565b612fd8826130ff565b810181811067ffffffffffffffff82111715612ff757612ff66130bc565b5b80604052505050565b7f4e487b7100000000000000000000000000000000000000000000000000000000600052601160045260246000fd5b7f4e487b7100000000000000000000000000000000000000000000000000000000600052602260045260246000fd5b7f4e487b7100000000000000000000000000000000000000000000000000000000600052603160045260246000fd5b7f4e487b7100000000000000000000000000000000000000000000000000000000600052603260045260246000fd5b7f4e487b7100000000000000000000000000000000000000000000000000000000600052604160045260246000fd5b600080fd5b600080fd5b600080fd5b600080fd5b6000601f19601f8301169050919050565b7f455243373231456e756d657261626c653a206f776e657220696e646578206f7560008201527f74206f6620626f756e6473000000000000000000000000000000000000000000602082015250565b7f4552433732313a207472616e7366657220746f206e6f6e20455243373231526560008201527f63656976657220696d706c656d656e7465720000000000000000000000000000602082015250565b7f4f776e61626c653a206e6577206f776e657220697320746865207a65726f206160008201527f6464726573730000000000000000000000000000000000000000000000000000602082015250565b7f4552433732313a207472616e736665722066726f6d20696e636f72726563742060008201527f6f776e6572000000000000000000000000000000000000000000000000000000602082015250565b7f4552433732313a20746f6b656e20616c7265616479206d696e74656400000000600082015250565b7f4552433732313a207472616e7366657220746f20746865207a65726f2061646460008201527f7265737300000000000000000000000000000000000000000000000000000000602082015250565b7f4552433732313a20617070726f766520746f2063616c6c657200000000000000600082015250565b7f4552433732313a206f70657261746f7220717565727920666f72206e6f6e657860008201527f697374656e7420746f6b656e0000000000000000000000000000000000000000602082015250565b7f4552433732313a20617070726f76652063616c6c6572206973206e6f74206f7760008201527f6e6572206e6f7220617070726f76656420666f7220616c6c0000000000000000602082015250565b7f4552433732313a2062616c616e636520717565727920666f7220746865207a6560008201527f726f206164647265737300000000000000000000000000000000000000000000602082015250565b7f4552433732313a206f776e657220717565727920666f72206e6f6e657869737460008201527f656e7420746f6b656e0000000000000000000000000000000000000000000000602082015250565b7f4552433732313a206d696e7420746f20746865207a65726f2061646472657373600082015250565b7f4552433732313a20617070726f76656420717565727920666f72206e6f6e657860008201527f697374656e7420746f6b656e0000000000000000000000000000000000000000602082015250565b7f4f776e61626c653a2063616c6c6572206973206e6f7420746865206f776e6572600082015250565b7f4552433732314d657461646174613a2055524920717565727920666f72206e6f60008201527f6e6578697374656e7420746f6b656e0000000000000000000000000000000000602082015250565b7f596f7520617265206e6f7420746865206f776e6572206f662074686973204e4660008201527f542e000000000000000000000000000000000000000000000000000000000000602082015250565b7f4552433732313a20617070726f76616c20746f2063757272656e74206f776e6560008201527f7200000000000000000000000000000000000000000000000000000000000000602082015250565b7f4552433732313a207472616e736665722063616c6c6572206973206e6f74206f60008201527f776e6572206e6f7220617070726f766564000000000000000000000000000000602082015250565b7f455243373231456e756d657261626c653a20676c6f62616c20696e646578206f60008201527f7574206f6620626f756e64730000000000000000000000000000000000000000602082015250565b61365e81612ee7565b811461366957600080fd5b50565b61367581612ef9565b811461368057600080fd5b50565b61368c81612f05565b811461369757600080fd5b50565b6136a381612f51565b81146136ae57600080fd5b5056fea2646970667358221220daee649212a0f9283e0f3cc8527abc988363fe5c723015b0da3cea4a1b5ad2ef64736f6c63430008060033697066733a2f2f62616679726569677634737572366d367871336c716b367165356437626f793661627974797a7665377166777671797a74716f373369677a7279792f6d657461646174612e6a736f6e",
  "linkReferences": {},
  "deployedLinkReferences": {}
}