{
  "_format": "hh-sol-artifact-1",
  "contractName": "NFTBadgesERC721",
  "sourceName": "contracts/ERC721NFTBadgesContract.sol",
  "abi": [
    {
      "inputs": [],
      "stateMutability": "nonpayable",
      "type": "constructor"
    },
    {
      "anonymous": false,
      "inputs": [
        {
          "indexed": true,
          "internalType": "address",
          "name": "owner",
          "type": "address"
        },
        {
          "indexed": true,
          "internalType": "address",
          "name": "approved",
          "type": "address"
        },
        {
          "indexed": true,
          "internalType": "uint256",
          "name": "tokenId",
          "type": "uint256"
        }
      ],
      "name": "Approval",
      "type": "event"
    },
    {
      "anonymous": false,
      "inputs": [
        {
          "indexed": true,
          "internalType": "address",
          "name": "owner",
          "type": "address"
        },
        {
          "indexed": true,
          "internalType": "address",
          "name": "operator",
          "type": "address"
        },
        {
          "indexed": false,
          "internalType": "bool",
          "name": "approved",
          "type": "bool"
        }
      ],
      "name": "ApprovalForAll",
      "type": "event"
    },
    {
      "anonymous": false,
      "inputs": [
        {
          "indexed": true,
          "internalType": "address",
          "name": "previousOwner",
          "type": "address"
        },
        {
          "indexed": true,
          "internalType": "address",
          "name": "newOwner",
          "type": "address"
        }
      ],
      "name": "OwnershipTransferred",
      "type": "event"
    },
    {
      "anonymous": false,
      "inputs": [
        {
          "indexed": true,
          "internalType": "address",
          "name": "from",
          "type": "address"
        },
        {
          "indexed": true,
          "internalType": "address",
          "name": "to",
          "type": "address"
        },
        {
          "indexed": true,
          "internalType": "uint256",
          "name": "tokenId",
          "type": "uint256"
        }
      ],
      "name": "Transfer",
      "type": "event"
    },
    {
      "inputs": [
        {
          "internalType": "address",
          "name": "to",
          "type": "address"
        },
        {
          "internalType": "uint256",
          "name": "tokenId",
          "type": "uint256"
        }
      ],
      "name": "approve",
      "outputs": [],
      "stateMutability": "nonpayable",
      "type": "function"
    },
    {
      "inputs": [
        {
          "internalType": "address",
          "name": "owner",
          "type": "address"
        }
      ],
      "name": "balanceOf",
      "outputs": [
        {
          "internalType": "uint256",
          "name": "",
          "type": "uint256"
        }
      ],
      "stateMutability": "view",
      "type": "function"
    },
    {
      "inputs": [],
      "name": "contractURI",
      "outputs": [
        {
          "internalType": "string",
          "name": "",
          "type": "string"
        }
      ],
      "stateMutability": "view",
      "type": "function"
    },
    {
      "inputs": [
        {
          "internalType": "uint256",
          "name": "tokenId",
          "type": "uint256"
        }
      ],
      "name": "getApproved",
      "outputs": [
        {
          "internalType": "address",
          "name": "",
          "type": "address"
        }
      ],
      "stateMutability": "view",
      "type": "function"
    },
    {
      "inputs": [
        {
          "internalType": "address",
          "name": "owner",
          "type": "address"
        },
        {
          "internalType": "address",
          "name": "operator",
          "type": "address"
        }
      ],
      "name": "isApprovedForAll",
      "outputs": [
        {
          "internalType": "bool",
          "name": "",
          "type": "bool"
        }
      ],
      "stateMutability": "view",
      "type": "function"
    },
    {
      "inputs": [
        {
          "internalType": "address",
          "name": "to",
          "type": "address"
        },
        {
          "internalType": "string[]",
          "name": "uri",
          "type": "string[]"
        },
        {
          "internalType": "address",
          "name": "royaltyRecipient",
          "type": "address"
        },
        {
          "internalType": "uint256",
          "name": "royaltyValue",
          "type": "uint256"
        }
      ],
      "name": "mintToAddressBatch",
      "outputs": [],
      "stateMutability": "nonpayable",
      "type": "function"
    },
    {
      "inputs": [],
      "name": "name",
      "outputs": [
        {
          "internalType": "string",
          "name": "",
          "type": "string"
        }
      ],
      "stateMutability": "view",
      "type": "function"
    },
    {
      "inputs": [],
      "name": "owner",
      "outputs": [
        {
          "internalType": "address",
          "name": "",
          "type": "address"
        }
      ],
      "stateMutability": "view",
      "type": "function"
    },
    {
      "inputs": [
        {
          "internalType": "uint256",
          "name": "tokenId",
          "type": "uint256"
        }
      ],
      "name": "ownerOf",
      "outputs": [
        {
          "internalType": "address",
          "name": "",
          "type": "address"
        }
      ],
      "stateMutability": "view",
      "type": "function"
    },
    {
      "inputs": [],
      "name": "renounceOwnership",
      "outputs": [],
      "stateMutability": "nonpayable",
      "type": "function"
    },
    {
      "inputs": [
        {
          "internalType": "uint256",
          "name": "tokenId",
          "type": "uint256"
        },
        {
          "internalType": "uint256",
          "name": "value",
          "type": "uint256"
        }
      ],
      "name": "royaltyInfo",
      "outputs": [
        {
          "internalType": "address",
          "name": "receiver",
          "type": "address"
        },
        {
          "internalType": "uint256",
          "name": "royaltyAmount",
          "type": "uint256"
        }
      ],
      "stateMutability": "view",
      "type": "function"
    },
    {
      "inputs": [
        {
          "internalType": "address",
          "name": "to",
          "type": "address"
        },
        {
          "internalType": "string",
          "name": "uri",
          "type": "string"
        },
        {
          "internalType": "address",
          "name": "royaltyRecipient",
          "type": "address"
        },
        {
          "internalType": "uint256",
          "name": "royaltyValue",
          "type": "uint256"
        }
      ],
      "name": "safeMint",
      "outputs": [],
      "stateMutability": "nonpayable",
      "type": "function"
    },
    {
      "inputs": [
        {
          "internalType": "address",
          "name": "from",
          "type": "address"
        },
        {
          "internalType": "address",
          "name": "to",
          "type": "address"
        },
        {
          "internalType": "uint256",
          "name": "tokenId",
          "type": "uint256"
        }
      ],
      "name": "safeTransferFrom",
      "outputs": [],
      "stateMutability": "nonpayable",
      "type": "function"
    },
    {
      "inputs": [
        {
          "internalType": "address",
          "name": "from",
          "type": "address"
        },
        {
          "internalType": "address",
          "name": "to",
          "type": "address"
        },
        {
          "internalType": "uint256",
          "name": "tokenId",
          "type": "uint256"
        },
        {
          "internalType": "bytes",
          "name": "_data",
          "type": "bytes"
        }
      ],
      "name": "safeTransferFrom",
      "outputs": [],
      "stateMutability": "nonpayable",
      "type": "function"
    },
    {
      "inputs": [
        {
          "internalType": "address",
          "name": "operator",
          "type": "address"
        },
        {
          "internalType": "bool",
          "name": "approved",
          "type": "bool"
        }
      ],
      "name": "setApprovalForAll",
      "outputs": [],
      "stateMutability": "nonpayable",
      "type": "function"
    },
    {
      "inputs": [
        {
          "internalType": "bytes4",
          "name": "interfaceId",
          "type": "bytes4"
        }
      ],
      "name": "supportsInterface",
      "outputs": [
        {
          "internalType": "bool",
          "name": "",
          "type": "bool"
        }
      ],
      "stateMutability": "view",
      "type": "function"
    },
    {
      "inputs": [],
      "name": "symbol",
      "outputs": [
        {
          "internalType": "string",
          "name": "",
          "type": "string"
        }
      ],
      "stateMutability": "view",
      "type": "function"
    },
    {
      "inputs": [
        {
          "internalType": "uint256",
          "name": "tokenId",
          "type": "uint256"
        }
      ],
      "name": "tokenURI",
      "outputs": [
        {
          "internalType": "string",
          "name": "",
          "type": "string"
        }
      ],
      "stateMutability": "view",
      "type": "function"
    },
    {
      "inputs": [
        {
          "internalType": "address",
          "name": "from",
          "type": "address"
        },
        {
          "internalType": "address",
          "name": "to",
          "type": "address"
        },
        {
          "internalType": "uint256",
          "name": "tokenId",
          "type": "uint256"
        }
      ],
      "name": "transferFrom",
      "outputs": [],
      "stateMutability": "nonpayable",
      "type": "function"
    },
    {
      "inputs": [
        {
          "internalType": "address",
          "name": "newOwner",
          "type": "address"
        }
      ],
      "name": "transferOwnership",
      "outputs": [],
      "stateMutability": "nonpayable",
      "type": "function"
    }
  ],
  "bytecode": "0x60806040526000600a556040518060400160405280601481526020017f697066733a2f2f6d657461646174612e6a736f6e000000000000000000000000815250600b908051906020019062000056929190620001f9565b503480156200006457600080fd5b506040518060400160405280600981526020017f544f4b454e4e414d4500000000000000000000000000000000000000000000008152506040518060400160405280600781526020017f53594d424f4c45000000000000000000000000000000000000000000000000008152508160009080519060200190620000e9929190620001f9565b50806001908051906020019062000102929190620001f9565b50505062000125620001196200012b60201b60201c565b6200013360201b60201c565b6200030e565b600033905090565b6000600760009054906101000a900473ffffffffffffffffffffffffffffffffffffffff16905081600760006101000a81548173ffffffffffffffffffffffffffffffffffffffff021916908373ffffffffffffffffffffffffffffffffffffffff1602179055508173ffffffffffffffffffffffffffffffffffffffff168173ffffffffffffffffffffffffffffffffffffffff167f8be0079c531659141344cd1fd0a4f28419497f9722a3daafe3b4186f6b6457e060405160405180910390a35050565b8280546200020790620002a9565b90600052602060002090601f0160209004810192826200022b576000855562000277565b82601f106200024657805160ff191683800117855562000277565b8280016001018555821562000277579182015b828111156200027657825182559160200191906001019062000259565b5b5090506200028691906200028a565b5090565b5b80821115620002a55760008160009055506001016200028b565b5090565b60006002820490506001821680620002c257607f821691505b60208210811415620002d957620002d8620002df565b5b50919050565b7f4e487b7100000000000000000000000000000000000000000000000000000000600052602260045260246000fd5b6137b6806200031e6000396000f3fe608060405234801561001057600080fd5b506004361061012c5760003560e01c8063715018a6116100ad578063b88d4fde11610071578063b88d4fde1461032e578063c87b56dd1461034a578063e8a3d4851461037a578063e985e9c514610398578063f2fde38b146103c85761012c565b8063715018a6146102b05780638da5cb5b146102ba57806395d89b41146102d8578063a22cb465146102f6578063b8805c94146103125761012c565b80632a55205a116100f45780632a55205a146101e757806342842e0e14610218578063519f6b6a146102345780636352211e1461025057806370a08231146102805761012c565b806301ffc9a71461013157806306fdde0314610161578063081812fc1461017f578063095ea7b3146101af57806323b872dd146101cb575b600080fd5b61014b6004803603810190610146919061260e565b6103e4565b6040516101589190612ae2565b60405180910390f35b6101696103f6565b6040516101769190612afd565b60405180910390f35b61019960048036038101906101949190612660565b610488565b6040516101a69190612a52565b60405180910390f35b6101c960048036038101906101c491906125d2565b61050d565b005b6101e560048036038101906101e091906123d6565b610625565b005b61020160048036038101906101fc9190612689565b610685565b60405161020f929190612ab9565b60405180910390f35b610232600480360381019061022d91906123d6565b610756565b005b61024e600480360381019061024991906124a0565b6107b6565b005b61026a60048036038101906102659190612660565b6108a4565b6040516102779190612a52565b60405180910390f35b61029a60048036038101906102959190612371565b610956565b6040516102a79190612d7f565b60405180910390f35b6102b8610a0e565b005b6102c2610a96565b6040516102cf9190612a52565b60405180910390f35b6102e0610ac0565b6040516102ed9190612afd565b60405180910390f35b610310600480360381019061030b919061251b565b610b52565b005b61032c60048036038101906103279190612557565b610b68565b005b61034860048036038101906103439190612425565b610c36565b005b610364600480360381019061035f9190612660565b610c98565b6040516103719190612afd565b60405180910390f35b610382610dea565b60405161038f9190612afd565b60405180910390f35b6103b260048036038101906103ad919061239a565b610e7c565b6040516103bf9190612ae2565b60405180910390f35b6103e260048036038101906103dd9190612371565b610f10565b005b60006103ef82611008565b9050919050565b6060600080546104059061305b565b80601f01602080910402602001604051908101604052809291908181526020018280546104319061305b565b801561047e5780601f106104535761010080835404028352916020019161047e565b820191906000526020600020905b81548152906001019060200180831161046157829003601f168201915b5050505050905090565b600061049382611082565b6104d2576040517f08c379a00000000000000000000000000000000000000000000000000000000081526004016104c990612cdf565b60405180910390fd5b6004600083815260200190815260200160002060009054906101000a900473ffffffffffffffffffffffffffffffffffffffff169050919050565b6000610518826108a4565b90508073ffffffffffffffffffffffffffffffffffffffff168373ffffffffffffffffffffffffffffffffffffffff161415610589576040517f08c379a000000000000000000000000000000000000000000000000000000000815260040161058090612d3f565b60405180910390fd5b8073ffffffffffffffffffffffffffffffffffffffff166105a86110ee565b73ffffffffffffffffffffffffffffffffffffffff1614806105d757506105d6816105d16110ee565b610e7c565b5b610616576040517f08c379a000000000000000000000000000000000000000000000000000000000815260040161060d90612c1f565b60405180910390fd5b61062083836110f6565b505050565b6106366106306110ee565b826111af565b610675576040517f08c379a000000000000000000000000000000000000000000000000000000000815260040161066c90612d5f565b60405180910390fd5b61068083838361128d565b505050565b6000806000600860008681526020019081526020016000206040518060400160405290816000820160009054906101000a900473ffffffffffffffffffffffffffffffffffffffff1673ffffffffffffffffffffffffffffffffffffffff1673ffffffffffffffffffffffffffffffffffffffff1681526020016000820160149054906101000a900462ffffff1662ffffff1662ffffff1681525050905080600001519250612710816020015162ffffff16856107429190612f17565b61074c9190612ee6565b9150509250929050565b6107676107616110ee565b826111af565b6107a6576040517f08c379a000000000000000000000000000000000000000000000000000000000815260040161079d90612d5f565b60405180910390fd5b6107b183838361128d565b505050565b6107be6110ee565b73ffffffffffffffffffffffffffffffffffffffff166107dc610a96565b73ffffffffffffffffffffffffffffffffffffffff1614610832576040517f08c379a000000000000000000000000000000000000000000000000000000000815260040161082990612cff565b60405180910390fd5b60005b835181101561089d5761088a8585838151811061087b577f4e487b7100000000000000000000000000000000000000000000000000000000600052603260045260246000fd5b60200260200101518585610b68565b8080610895906130be565b915050610835565b5050505050565b6000806002600084815260200190815260200160002060009054906101000a900473ffffffffffffffffffffffffffffffffffffffff169050600073ffffffffffffffffffffffffffffffffffffffff168173ffffffffffffffffffffffffffffffffffffffff16141561094d576040517f08c379a000000000000000000000000000000000000000000000000000000000815260040161094490612c5f565b60405180910390fd5b80915050919050565b60008073ffffffffffffffffffffffffffffffffffffffff168273ffffffffffffffffffffffffffffffffffffffff1614156109c7576040517f08c379a00000000000000000000000000000000000000000000000000000000081526004016109be90612c3f565b60405180910390fd5b600360008373ffffffffffffffffffffffffffffffffffffffff1673ffffffffffffffffffffffffffffffffffffffff168152602001908152602001600020549050919050565b610a166110ee565b73ffffffffffffffffffffffffffffffffffffffff16610a34610a96565b73ffffffffffffffffffffffffffffffffffffffff1614610a8a576040517f08c379a0000000000000000000000000000000000000000000000000000000008152600401610a8190612cff565b60405180910390fd5b610a9460006114f4565b565b6000600760009054906101000a900473ffffffffffffffffffffffffffffffffffffffff16905090565b606060018054610acf9061305b565b80601f0160208091040260200160405190810160405280929190818152602001828054610afb9061305b565b8015610b485780601f10610b1d57610100808354040283529160200191610b48565b820191906000526020600020905b815481529060010190602001808311610b2b57829003601f168201915b5050505050905090565b610b64610b5d6110ee565b83836115ba565b5050565b610b706110ee565b73ffffffffffffffffffffffffffffffffffffffff16610b8e610a96565b73ffffffffffffffffffffffffffffffffffffffff1614610be4576040517f08c379a0000000000000000000000000000000000000000000000000000000008152600401610bdb90612cff565b60405180910390fd5b6000610bf06009611727565b9050610bfb81611082565b50610c066009611735565b610c10858261174b565b6000821115610c2557610c24818484611769565b5b610c2f8185611865565b5050505050565b610c47610c416110ee565b836111af565b610c86576040517f08c379a0000000000000000000000000000000000000000000000000000000008152600401610c7d90612d5f565b60405180910390fd5b610c92848484846118d9565b50505050565b6060610ca382611082565b610ce2576040517f08c379a0000000000000000000000000000000000000000000000000000000008152600401610cd990612cbf565b60405180910390fd5b6000600660008481526020019081526020016000208054610d029061305b565b80601f0160208091040260200160405190810160405280929190818152602001828054610d2e9061305b565b8015610d7b5780601f10610d5057610100808354040283529160200191610d7b565b820191906000526020600020905b815481529060010190602001808311610d5e57829003601f168201915b505050505090506000610d8c611935565b9050600081511415610da2578192505050610de5565b600082511115610dd7578082604051602001610dbf929190612a2e565b60405160208183030381529060405292505050610de5565b610de08461194c565b925050505b919050565b6060600b8054610df99061305b565b80601f0160208091040260200160405190810160405280929190818152602001828054610e259061305b565b8015610e725780601f10610e4757610100808354040283529160200191610e72565b820191906000526020600020905b815481529060010190602001808311610e5557829003601f168201915b5050505050905090565b6000600560008473ffffffffffffffffffffffffffffffffffffffff1673ffffffffffffffffffffffffffffffffffffffff16815260200190815260200160002060008373ffffffffffffffffffffffffffffffffffffffff1673ffffffffffffffffffffffffffffffffffffffff16815260200190815260200160002060009054906101000a900460ff16905092915050565b610f186110ee565b73ffffffffffffffffffffffffffffffffffffffff16610f36610a96565b73ffffffffffffffffffffffffffffffffffffffff1614610f8c576040517f08c379a0000000000000000000000000000000000000000000000000000000008152600401610f8390612cff565b60405180910390fd5b600073ffffffffffffffffffffffffffffffffffffffff168173ffffffffffffffffffffffffffffffffffffffff161415610ffc576040517f08c379a0000000000000000000000000000000000000000000000000000000008152600401610ff390612b5f565b60405180910390fd5b611005816114f4565b50565b60007f2a55205a000000000000000000000000000000000000000000000000000000007bffffffffffffffffffffffffffffffffffffffffffffffffffffffff1916827bffffffffffffffffffffffffffffffffffffffffffffffffffffffff1916148061107b575061107a826119f3565b5b9050919050565b60008073ffffffffffffffffffffffffffffffffffffffff166002600084815260200190815260200160002060009054906101000a900473ffffffffffffffffffffffffffffffffffffffff1673ffffffffffffffffffffffffffffffffffffffff1614159050919050565b600033905090565b816004600083815260200190815260200160002060006101000a81548173ffffffffffffffffffffffffffffffffffffffff021916908373ffffffffffffffffffffffffffffffffffffffff160217905550808273ffffffffffffffffffffffffffffffffffffffff16611169836108a4565b73ffffffffffffffffffffffffffffffffffffffff167f8c5be1e5ebec7d5bd14f71427d1e84f3dd0314c0f7b2291e5b200ac8c7c3b92560405160405180910390a45050565b60006111ba82611082565b6111f9576040517f08c379a00000000000000000000000000000000000000000000000000000000081526004016111f090612bff565b60405180910390fd5b6000611204836108a4565b90508073ffffffffffffffffffffffffffffffffffffffff168473ffffffffffffffffffffffffffffffffffffffff16148061124657506112458185610e7c565b5b8061128457508373ffffffffffffffffffffffffffffffffffffffff1661126c84610488565b73ffffffffffffffffffffffffffffffffffffffff16145b91505092915050565b8273ffffffffffffffffffffffffffffffffffffffff166112ad826108a4565b73ffffffffffffffffffffffffffffffffffffffff1614611303576040517f08c379a00000000000000000000000000000000000000000000000000000000081526004016112fa90612b7f565b60405180910390fd5b600073ffffffffffffffffffffffffffffffffffffffff168273ffffffffffffffffffffffffffffffffffffffff161415611373576040517f08c379a000000000000000000000000000000000000000000000000000000000815260040161136a90612bbf565b60405180910390fd5b61137e838383611ad5565b6113896000826110f6565b6001600360008573ffffffffffffffffffffffffffffffffffffffff1673ffffffffffffffffffffffffffffffffffffffff16815260200190815260200160002060008282546113d99190612f71565b925050819055506001600360008473ffffffffffffffffffffffffffffffffffffffff1673ffffffffffffffffffffffffffffffffffffffff16815260200190815260200160002060008282546114309190612e90565b92505081905550816002600083815260200190815260200160002060006101000a81548173ffffffffffffffffffffffffffffffffffffffff021916908373ffffffffffffffffffffffffffffffffffffffff160217905550808273ffffffffffffffffffffffffffffffffffffffff168473ffffffffffffffffffffffffffffffffffffffff167fddf252ad1be2c89b69c2b068fc378daa952ba7f163c4a11628f55a4df523b3ef60405160405180910390a46114ef838383611ada565b505050565b6000600760009054906101000a900473ffffffffffffffffffffffffffffffffffffffff16905081600760006101000a81548173ffffffffffffffffffffffffffffffffffffffff021916908373ffffffffffffffffffffffffffffffffffffffff1602179055508173ffffffffffffffffffffffffffffffffffffffff168173ffffffffffffffffffffffffffffffffffffffff167f8be0079c531659141344cd1fd0a4f28419497f9722a3daafe3b4186f6b6457e060405160405180910390a35050565b8173ffffffffffffffffffffffffffffffffffffffff168373ffffffffffffffffffffffffffffffffffffffff161415611629576040517f08c379a000000000000000000000000000000000000000000000000000000000815260040161162090612bdf565b60405180910390fd5b80600560008573ffffffffffffffffffffffffffffffffffffffff1673ffffffffffffffffffffffffffffffffffffffff16815260200190815260200160002060008473ffffffffffffffffffffffffffffffffffffffff1673ffffffffffffffffffffffffffffffffffffffff16815260200190815260200160002060006101000a81548160ff0219169083151502179055508173ffffffffffffffffffffffffffffffffffffffff168373ffffffffffffffffffffffffffffffffffffffff167f17307eab39ab6107e8899845ad3d59bd9653f200f220920489ca2b5937696c318360405161171a9190612ae2565b60405180910390a3505050565b600081600001549050919050565b6001816000016000828254019250508190555050565b611765828260405180602001604052806000815250611adf565b5050565b6127108111156117ae576040517f08c379a00000000000000000000000000000000000000000000000000000000081526004016117a590612b1f565b60405180910390fd5b60405180604001604052808373ffffffffffffffffffffffffffffffffffffffff1681526020018262ffffff168152506008600085815260200190815260200160002060008201518160000160006101000a81548173ffffffffffffffffffffffffffffffffffffffff021916908373ffffffffffffffffffffffffffffffffffffffff16021790555060208201518160000160146101000a81548162ffffff021916908362ffffff160217905550905050505050565b61186e82611082565b6118ad576040517f08c379a00000000000000000000000000000000000000000000000000000000081526004016118a490612c7f565b60405180910390fd5b806006600084815260200190815260200160002090805190602001906118d49291906120e5565b505050565b6118e484848461128d565b6118f084848484611b3a565b61192f576040517f08c379a000000000000000000000000000000000000000000000000000000000815260040161192690612b3f565b60405180910390fd5b50505050565b606060405180602001604052806000815250905090565b606061195782611082565b611996576040517f08c379a000000000000000000000000000000000000000000000000000000000815260040161198d90612d1f565b60405180910390fd5b60006119a0611935565b905060008151116119c057604051806020016040528060008152506119eb565b806119ca84611cd1565b6040516020016119db929190612a2e565b6040516020818303038152906040525b915050919050565b60007f80ac58cd000000000000000000000000000000000000000000000000000000007bffffffffffffffffffffffffffffffffffffffffffffffffffffffff1916827bffffffffffffffffffffffffffffffffffffffffffffffffffffffff19161480611abe57507f5b5e139f000000000000000000000000000000000000000000000000000000007bffffffffffffffffffffffffffffffffffffffffffffffffffffffff1916827bffffffffffffffffffffffffffffffffffffffffffffffffffffffff1916145b80611ace5750611acd82611e7e565b5b9050919050565b505050565b505050565b611ae98383611ee8565b611af66000848484611b3a565b611b35576040517f08c379a0000000000000000000000000000000000000000000000000000000008152600401611b2c90612b3f565b60405180910390fd5b505050565b6000611b5b8473ffffffffffffffffffffffffffffffffffffffff166120c2565b15611cc4578373ffffffffffffffffffffffffffffffffffffffff1663150b7a02611b846110ee565b8786866040518563ffffffff1660e01b8152600401611ba69493929190612a6d565b602060405180830381600087803b158015611bc057600080fd5b505af1925050508015611bf157506040513d601f19601f82011682018060405250810190611bee9190612637565b60015b611c74573d8060008114611c21576040519150601f19603f3d011682016040523d82523d6000602084013e611c26565b606091505b50600081511415611c6c576040517f08c379a0000000000000000000000000000000000000000000000000000000008152600401611c6390612b3f565b60405180910390fd5b805181602001fd5b63150b7a0260e01b7bffffffffffffffffffffffffffffffffffffffffffffffffffffffff1916817bffffffffffffffffffffffffffffffffffffffffffffffffffffffff191614915050611cc9565b600190505b949350505050565b60606000821415611d19576040518060400160405280600181526020017f30000000000000000000000000000000000000000000000000000000000000008152509050611e79565b600082905060005b60008214611d4b578080611d34906130be565b915050600a82611d449190612ee6565b9150611d21565b60008167ffffffffffffffff811115611d8d577f4e487b7100000000000000000000000000000000000000000000000000000000600052604160045260246000fd5b6040519080825280601f01601f191660200182016040528015611dbf5781602001600182028036833780820191505090505b5090505b60008514611e7257600182611dd89190612f71565b9150600a85611de79190613107565b6030611df39190612e90565b60f81b818381518110611e2f577f4e487b7100000000000000000000000000000000000000000000000000000000600052603260045260246000fd5b60200101907effffffffffffffffffffffffffffffffffffffffffffffffffffffffffffff1916908160001a905350600a85611e6b9190612ee6565b9450611dc3565b8093505050505b919050565b60007f01ffc9a7000000000000000000000000000000000000000000000000000000007bffffffffffffffffffffffffffffffffffffffffffffffffffffffff1916827bffffffffffffffffffffffffffffffffffffffffffffffffffffffff1916149050919050565b600073ffffffffffffffffffffffffffffffffffffffff168273ffffffffffffffffffffffffffffffffffffffff161415611f58576040517f08c379a0000000000000000000000000000000000000000000000000000000008152600401611f4f90612c9f565b60405180910390fd5b611f6181611082565b15611fa1576040517f08c379a0000000000000000000000000000000000000000000000000000000008152600401611f9890612b9f565b60405180910390fd5b611fad60008383611ad5565b6001600360008473ffffffffffffffffffffffffffffffffffffffff1673ffffffffffffffffffffffffffffffffffffffff1681526020019081526020016000206000828254611ffd9190612e90565b92505081905550816002600083815260200190815260200160002060006101000a81548173ffffffffffffffffffffffffffffffffffffffff021916908373ffffffffffffffffffffffffffffffffffffffff160217905550808273ffffffffffffffffffffffffffffffffffffffff16600073ffffffffffffffffffffffffffffffffffffffff167fddf252ad1be2c89b69c2b068fc378daa952ba7f163c4a11628f55a4df523b3ef60405160405180910390a46120be60008383611ada565b5050565b6000808273ffffffffffffffffffffffffffffffffffffffff163b119050919050565b8280546120f19061305b565b90600052602060002090601f016020900481019282612113576000855561215a565b82601f1061212c57805160ff191683800117855561215a565b8280016001018555821561215a579182015b8281111561215957825182559160200191906001019061213e565b5b509050612167919061216b565b5090565b5b8082111561218457600081600090555060010161216c565b5090565b600061219b61219684612dbf565b612d9a565b905080838252602082019050828560208602820111156121ba57600080fd5b60005b8581101561220457813567ffffffffffffffff8111156121dc57600080fd5b8086016121e98982612332565b855260208501945060208401935050506001810190506121bd565b5050509392505050565b600061222161221c84612deb565b612d9a565b90508281526020810184848401111561223957600080fd5b612244848285613019565b509392505050565b600061225f61225a84612e1c565b612d9a565b90508281526020810184848401111561227757600080fd5b612282848285613019565b509392505050565b60008135905061229981613724565b92915050565b600082601f8301126122b057600080fd5b81356122c0848260208601612188565b91505092915050565b6000813590506122d88161373b565b92915050565b6000813590506122ed81613752565b92915050565b60008151905061230281613752565b92915050565b600082601f83011261231957600080fd5b813561232984826020860161220e565b91505092915050565b600082601f83011261234357600080fd5b813561235384826020860161224c565b91505092915050565b60008135905061236b81613769565b92915050565b60006020828403121561238357600080fd5b60006123918482850161228a565b91505092915050565b600080604083850312156123ad57600080fd5b60006123bb8582860161228a565b92505060206123cc8582860161228a565b9150509250929050565b6000806000606084860312156123eb57600080fd5b60006123f98682870161228a565b935050602061240a8682870161228a565b925050604061241b8682870161235c565b9150509250925092565b6000806000806080858703121561243b57600080fd5b60006124498782880161228a565b945050602061245a8782880161228a565b935050604061246b8782880161235c565b925050606085013567ffffffffffffffff81111561248857600080fd5b61249487828801612308565b91505092959194509250565b600080600080608085870312156124b657600080fd5b60006124c48782880161228a565b945050602085013567ffffffffffffffff8111156124e157600080fd5b6124ed8782880161229f565b93505060406124fe8782880161228a565b925050606061250f8782880161235c565b91505092959194509250565b6000806040838503121561252e57600080fd5b600061253c8582860161228a565b925050602061254d858286016122c9565b9150509250929050565b6000806000806080858703121561256d57600080fd5b600061257b8782880161228a565b945050602085013567ffffffffffffffff81111561259857600080fd5b6125a487828801612332565b93505060406125b58782880161228a565b92505060606125c68782880161235c565b91505092959194509250565b600080604083850312156125e557600080fd5b60006125f38582860161228a565b92505060206126048582860161235c565b9150509250929050565b60006020828403121561262057600080fd5b600061262e848285016122de565b91505092915050565b60006020828403121561264957600080fd5b6000612657848285016122f3565b91505092915050565b60006020828403121561267257600080fd5b60006126808482850161235c565b91505092915050565b6000806040838503121561269c57600080fd5b60006126aa8582860161235c565b92505060206126bb8582860161235c565b9150509250929050565b6126ce81612fa5565b82525050565b6126dd81612fb7565b82525050565b60006126ee82612e4d565b6126f88185612e63565b9350612708818560208601613028565b612711816131f4565b840191505092915050565b600061272782612e58565b6127318185612e74565b9350612741818560208601613028565b61274a816131f4565b840191505092915050565b600061276082612e58565b61276a8185612e85565b935061277a818560208601613028565b80840191505092915050565b6000612793601a83612e74565b915061279e82613205565b602082019050919050565b60006127b6603283612e74565b91506127c18261322e565b604082019050919050565b60006127d9602683612e74565b91506127e48261327d565b604082019050919050565b60006127fc602583612e74565b9150612807826132cc565b604082019050919050565b600061281f601c83612e74565b915061282a8261331b565b602082019050919050565b6000612842602483612e74565b915061284d82613344565b604082019050919050565b6000612865601983612e74565b915061287082613393565b602082019050919050565b6000612888602c83612e74565b9150612893826133bc565b604082019050919050565b60006128ab603883612e74565b91506128b68261340b565b604082019050919050565b60006128ce602a83612e74565b91506128d98261345a565b604082019050919050565b60006128f1602983612e74565b91506128fc826134a9565b604082019050919050565b6000612914602e83612e74565b915061291f826134f8565b604082019050919050565b6000612937602083612e74565b915061294282613547565b602082019050919050565b600061295a603183612e74565b915061296582613570565b604082019050919050565b600061297d602c83612e74565b9150612988826135bf565b604082019050919050565b60006129a0602083612e74565b91506129ab8261360e565b602082019050919050565b60006129c3602f83612e74565b91506129ce82613637565b604082019050919050565b60006129e6602183612e74565b91506129f182613686565b604082019050919050565b6000612a09603183612e74565b9150612a14826136d5565b604082019050919050565b612a288161300f565b82525050565b6000612a3a8285612755565b9150612a468284612755565b91508190509392505050565b6000602082019050612a6760008301846126c5565b92915050565b6000608082019050612a8260008301876126c5565b612a8f60208301866126c5565b612a9c6040830185612a1f565b8181036060830152612aae81846126e3565b905095945050505050565b6000604082019050612ace60008301856126c5565b612adb6020830184612a1f565b9392505050565b6000602082019050612af760008301846126d4565b92915050565b60006020820190508181036000830152612b17818461271c565b905092915050565b60006020820190508181036000830152612b3881612786565b9050919050565b60006020820190508181036000830152612b58816127a9565b9050919050565b60006020820190508181036000830152612b78816127cc565b9050919050565b60006020820190508181036000830152612b98816127ef565b9050919050565b60006020820190508181036000830152612bb881612812565b9050919050565b60006020820190508181036000830152612bd881612835565b9050919050565b60006020820190508181036000830152612bf881612858565b9050919050565b60006020820190508181036000830152612c188161287b565b9050919050565b60006020820190508181036000830152612c388161289e565b9050919050565b60006020820190508181036000830152612c58816128c1565b9050919050565b60006020820190508181036000830152612c78816128e4565b9050919050565b60006020820190508181036000830152612c9881612907565b9050919050565b60006020820190508181036000830152612cb88161292a565b9050919050565b60006020820190508181036000830152612cd88161294d565b9050919050565b60006020820190508181036000830152612cf881612970565b9050919050565b60006020820190508181036000830152612d1881612993565b9050919050565b60006020820190508181036000830152612d38816129b6565b9050919050565b60006020820190508181036000830152612d58816129d9565b9050919050565b60006020820190508181036000830152612d78816129fc565b9050919050565b6000602082019050612d946000830184612a1f565b92915050565b6000612da4612db5565b9050612db0828261308d565b919050565b6000604051905090565b600067ffffffffffffffff821115612dda57612dd96131c5565b5b602082029050602081019050919050565b600067ffffffffffffffff821115612e0657612e056131c5565b5b612e0f826131f4565b9050602081019050919050565b600067ffffffffffffffff821115612e3757612e366131c5565b5b612e40826131f4565b9050602081019050919050565b600081519050919050565b600081519050919050565b600082825260208201905092915050565b600082825260208201905092915050565b600081905092915050565b6000612e9b8261300f565b9150612ea68361300f565b9250827fffffffffffffffffffffffffffffffffffffffffffffffffffffffffffffffff03821115612edb57612eda613138565b5b828201905092915050565b6000612ef18261300f565b9150612efc8361300f565b925082612f0c57612f0b613167565b5b828204905092915050565b6000612f228261300f565b9150612f2d8361300f565b9250817fffffffffffffffffffffffffffffffffffffffffffffffffffffffffffffffff0483118215151615612f6657612f65613138565b5b828202905092915050565b6000612f7c8261300f565b9150612f878361300f565b925082821015612f9a57612f99613138565b5b828203905092915050565b6000612fb082612fef565b9050919050565b60008115159050919050565b60007fffffffff0000000000000000000000000000000000000000000000000000000082169050919050565b600073ffffffffffffffffffffffffffffffffffffffff82169050919050565b6000819050919050565b82818337600083830152505050565b60005b8381101561304657808201518184015260208101905061302b565b83811115613055576000848401525b50505050565b6000600282049050600182168061307357607f821691505b6020821081141561308757613086613196565b5b50919050565b613096826131f4565b810181811067ffffffffffffffff821117156130b5576130b46131c5565b5b80604052505050565b60006130c98261300f565b91507fffffffffffffffffffffffffffffffffffffffffffffffffffffffffffffffff8214156130fc576130fb613138565b5b600182019050919050565b60006131128261300f565b915061311d8361300f565b92508261312d5761312c613167565b5b828206905092915050565b7f4e487b7100000000000000000000000000000000000000000000000000000000600052601160045260246000fd5b7f4e487b7100000000000000000000000000000000000000000000000000000000600052601260045260246000fd5b7f4e487b7100000000000000000000000000000000000000000000000000000000600052602260045260246000fd5b7f4e487b7100000000000000000000000000000000000000000000000000000000600052604160045260246000fd5b6000601f19601f8301169050919050565b7f45524332393831526f79616c746965733a20546f6f2068696768000000000000600082015250565b7f4552433732313a207472616e7366657220746f206e6f6e20455243373231526560008201527f63656976657220696d706c656d656e7465720000000000000000000000000000602082015250565b7f4f776e61626c653a206e6577206f776e657220697320746865207a65726f206160008201527f6464726573730000000000000000000000000000000000000000000000000000602082015250565b7f4552433732313a207472616e736665722066726f6d20696e636f72726563742060008201527f6f776e6572000000000000000000000000000000000000000000000000000000602082015250565b7f4552433732313a20746f6b656e20616c7265616479206d696e74656400000000600082015250565b7f4552433732313a207472616e7366657220746f20746865207a65726f2061646460008201527f7265737300000000000000000000000000000000000000000000000000000000602082015250565b7f4552433732313a20617070726f766520746f2063616c6c657200000000000000600082015250565b7f4552433732313a206f70657261746f7220717565727920666f72206e6f6e657860008201527f697374656e7420746f6b656e0000000000000000000000000000000000000000602082015250565b7f4552433732313a20617070726f76652063616c6c6572206973206e6f74206f7760008201527f6e6572206e6f7220617070726f76656420666f7220616c6c0000000000000000602082015250565b7f4552433732313a2062616c616e636520717565727920666f7220746865207a6560008201527f726f206164647265737300000000000000000000000000000000000000000000602082015250565b7f4552433732313a206f776e657220717565727920666f72206e6f6e657869737460008201527f656e7420746f6b656e0000000000000000000000000000000000000000000000602082015250565b7f45524337323155524953746f726167653a2055524920736574206f66206e6f6e60008201527f6578697374656e7420746f6b656e000000000000000000000000000000000000602082015250565b7f4552433732313a206d696e7420746f20746865207a65726f2061646472657373600082015250565b7f45524337323155524953746f726167653a2055524920717565727920666f722060008201527f6e6f6e6578697374656e7420746f6b656e000000000000000000000000000000602082015250565b7f4552433732313a20617070726f76656420717565727920666f72206e6f6e657860008201527f697374656e7420746f6b656e0000000000000000000000000000000000000000602082015250565b7f4f776e61626c653a2063616c6c6572206973206e6f7420746865206f776e6572600082015250565b7f4552433732314d657461646174613a2055524920717565727920666f72206e6f60008201527f6e6578697374656e7420746f6b656e0000000000000000000000000000000000602082015250565b7f4552433732313a20617070726f76616c20746f2063757272656e74206f776e6560008201527f7200000000000000000000000000000000000000000000000000000000000000602082015250565b7f4552433732313a207472616e736665722063616c6c6572206973206e6f74206f60008201527f776e6572206e6f7220617070726f766564000000000000000000000000000000602082015250565b61372d81612fa5565b811461373857600080fd5b50565b61374481612fb7565b811461374f57600080fd5b50565b61375b81612fc3565b811461376657600080fd5b50565b6137728161300f565b811461377d57600080fd5b5056fea26469706673582212208b2d528be45c206fa6cbce687841f06a2e23f85e2cbc4c36d3c74c85aa3274e664736f6c63430008040033",
  "linkReferences": {},
  "deployedLinkReferences": {}
}