{
  "_format": "hh-sol-artifact-1",
  "contractName": "NFTBadgesERC1155",
  "sourceName": "contracts/ERC1155NFTBadgesContract.sol",
  "abi": [
    {
      "inputs": [
        {
          "internalType": "string",
          "name": "_name",
          "type": "string"
        },
        {
          "internalType": "string",
          "name": "_symbol",
          "type": "string"
        }
      ],
      "stateMutability": "nonpayable",
      "type": "constructor"
    },
    {
      "anonymous": false,
      "inputs": [
        {
          "indexed": true,
          "internalType": "address",
          "name": "account",
          "type": "address"
        },
        {
          "indexed": true,
          "internalType": "address",
          "name": "operator",
          "type": "address"
        },
        {
          "indexed": false,
          "internalType": "bool",
          "name": "approved",
          "type": "bool"
        }
      ],
      "name": "ApprovalForAll",
      "type": "event"
    },
    {
      "anonymous": false,
      "inputs": [
        {
          "indexed": true,
          "internalType": "address",
          "name": "previousOwner",
          "type": "address"
        },
        {
          "indexed": true,
          "internalType": "address",
          "name": "newOwner",
          "type": "address"
        }
      ],
      "name": "OwnershipTransferred",
      "type": "event"
    },
    {
      "anonymous": false,
      "inputs": [
        {
          "indexed": true,
          "internalType": "bytes32",
          "name": "role",
          "type": "bytes32"
        },
        {
          "indexed": true,
          "internalType": "bytes32",
          "name": "previousAdminRole",
          "type": "bytes32"
        },
        {
          "indexed": true,
          "internalType": "bytes32",
          "name": "newAdminRole",
          "type": "bytes32"
        }
      ],
      "name": "RoleAdminChanged",
      "type": "event"
    },
    {
      "anonymous": false,
      "inputs": [
        {
          "indexed": true,
          "internalType": "bytes32",
          "name": "role",
          "type": "bytes32"
        },
        {
          "indexed": true,
          "internalType": "address",
          "name": "account",
          "type": "address"
        },
        {
          "indexed": true,
          "internalType": "address",
          "name": "sender",
          "type": "address"
        }
      ],
      "name": "RoleGranted",
      "type": "event"
    },
    {
      "anonymous": false,
      "inputs": [
        {
          "indexed": true,
          "internalType": "bytes32",
          "name": "role",
          "type": "bytes32"
        },
        {
          "indexed": true,
          "internalType": "address",
          "name": "account",
          "type": "address"
        },
        {
          "indexed": true,
          "internalType": "address",
          "name": "sender",
          "type": "address"
        }
      ],
      "name": "RoleRevoked",
      "type": "event"
    },
    {
      "anonymous": false,
      "inputs": [
        {
          "indexed": true,
          "internalType": "address",
          "name": "operator",
          "type": "address"
        },
        {
          "indexed": true,
          "internalType": "address",
          "name": "from",
          "type": "address"
        },
        {
          "indexed": true,
          "internalType": "address",
          "name": "to",
          "type": "address"
        },
        {
          "indexed": false,
          "internalType": "uint256[]",
          "name": "ids",
          "type": "uint256[]"
        },
        {
          "indexed": false,
          "internalType": "uint256[]",
          "name": "values",
          "type": "uint256[]"
        }
      ],
      "name": "TransferBatch",
      "type": "event"
    },
    {
      "anonymous": false,
      "inputs": [
        {
          "indexed": true,
          "internalType": "address",
          "name": "operator",
          "type": "address"
        },
        {
          "indexed": true,
          "internalType": "address",
          "name": "from",
          "type": "address"
        },
        {
          "indexed": true,
          "internalType": "address",
          "name": "to",
          "type": "address"
        },
        {
          "indexed": false,
          "internalType": "uint256",
          "name": "id",
          "type": "uint256"
        },
        {
          "indexed": false,
          "internalType": "uint256",
          "name": "value",
          "type": "uint256"
        }
      ],
      "name": "TransferSingle",
      "type": "event"
    },
    {
      "anonymous": false,
      "inputs": [
        {
          "indexed": false,
          "internalType": "string",
          "name": "value",
          "type": "string"
        },
        {
          "indexed": true,
          "internalType": "uint256",
          "name": "id",
          "type": "uint256"
        }
      ],
      "name": "URI",
      "type": "event"
    },
    {
      "inputs": [],
      "name": "DEFAULT_ADMIN_ROLE",
      "outputs": [
        {
          "internalType": "bytes32",
          "name": "",
          "type": "bytes32"
        }
      ],
      "stateMutability": "view",
      "type": "function"
    },
    {
      "inputs": [],
      "name": "MINTER_ROLE",
      "outputs": [
        {
          "internalType": "bytes32",
          "name": "",
          "type": "bytes32"
        }
      ],
      "stateMutability": "view",
      "type": "function"
    },
    {
      "inputs": [],
      "name": "URI_SETTER_ROLE",
      "outputs": [
        {
          "internalType": "bytes32",
          "name": "",
          "type": "bytes32"
        }
      ],
      "stateMutability": "view",
      "type": "function"
    },
    {
      "inputs": [
        {
          "internalType": "address",
          "name": "account",
          "type": "address"
        },
        {
          "internalType": "uint256",
          "name": "id",
          "type": "uint256"
        }
      ],
      "name": "balanceOf",
      "outputs": [
        {
          "internalType": "uint256",
          "name": "",
          "type": "uint256"
        }
      ],
      "stateMutability": "view",
      "type": "function"
    },
    {
      "inputs": [
        {
          "internalType": "address[]",
          "name": "accounts",
          "type": "address[]"
        },
        {
          "internalType": "uint256[]",
          "name": "ids",
          "type": "uint256[]"
        }
      ],
      "name": "balanceOfBatch",
      "outputs": [
        {
          "internalType": "uint256[]",
          "name": "",
          "type": "uint256[]"
        }
      ],
      "stateMutability": "view",
      "type": "function"
    },
    {
      "inputs": [
        {
          "internalType": "address",
          "name": "_account",
          "type": "address"
        },
        {
          "internalType": "string",
          "name": "tokenName",
          "type": "string"
        }
      ],
      "name": "getBalance",
      "outputs": [
        {
          "internalType": "uint256",
          "name": "",
          "type": "uint256"
        }
      ],
      "stateMutability": "view",
      "type": "function"
    },
    {
      "inputs": [
        {
          "internalType": "address[]",
          "name": "accounts",
          "type": "address[]"
        },
        {
          "internalType": "string[]",
          "name": "tokenNames",
          "type": "string[]"
        }
      ],
      "name": "getBalanceBatch",
      "outputs": [
        {
          "internalType": "uint256[]",
          "name": "",
          "type": "uint256[]"
        }
      ],
      "stateMutability": "view",
      "type": "function"
    },
    {
      "inputs": [
        {
          "internalType": "bytes32",
          "name": "role",
          "type": "bytes32"
        }
      ],
      "name": "getRoleAdmin",
      "outputs": [
        {
          "internalType": "bytes32",
          "name": "",
          "type": "bytes32"
        }
      ],
      "stateMutability": "view",
      "type": "function"
    },
    {
      "inputs": [],
      "name": "getTokenCount",
      "outputs": [
        {
          "internalType": "uint256",
          "name": "",
          "type": "uint256"
        }
      ],
      "stateMutability": "view",
      "type": "function"
    },
    {
      "inputs": [
        {
          "internalType": "string",
          "name": "tokenName",
          "type": "string"
        }
      ],
      "name": "getTokenId",
      "outputs": [
        {
          "internalType": "uint256",
          "name": "",
          "type": "uint256"
        }
      ],
      "stateMutability": "view",
      "type": "function"
    },
    {
      "inputs": [
        {
          "internalType": "string",
          "name": "tokenName",
          "type": "string"
        }
      ],
      "name": "getTokenUri",
      "outputs": [
        {
          "internalType": "string",
          "name": "",
          "type": "string"
        }
      ],
      "stateMutability": "view",
      "type": "function"
    },
    {
      "inputs": [
        {
          "internalType": "bytes32",
          "name": "role",
          "type": "bytes32"
        },
        {
          "internalType": "address",
          "name": "account",
          "type": "address"
        }
      ],
      "name": "grantRole",
      "outputs": [],
      "stateMutability": "nonpayable",
      "type": "function"
    },
    {
      "inputs": [
        {
          "internalType": "bytes32",
          "name": "role",
          "type": "bytes32"
        },
        {
          "internalType": "address",
          "name": "account",
          "type": "address"
        }
      ],
      "name": "hasRole",
      "outputs": [
        {
          "internalType": "bool",
          "name": "",
          "type": "bool"
        }
      ],
      "stateMutability": "view",
      "type": "function"
    },
    {
      "inputs": [
        {
          "internalType": "address",
          "name": "account",
          "type": "address"
        },
        {
          "internalType": "address",
          "name": "operator",
          "type": "address"
        }
      ],
      "name": "isApprovedForAll",
      "outputs": [
        {
          "internalType": "bool",
          "name": "",
          "type": "bool"
        }
      ],
      "stateMutability": "view",
      "type": "function"
    },
    {
      "inputs": [
        {
          "internalType": "address",
          "name": "account",
          "type": "address"
        },
        {
          "internalType": "string",
          "name": "tokenName",
          "type": "string"
        },
        {
          "internalType": "uint256",
          "name": "amount",
          "type": "uint256"
        },
        {
          "internalType": "bytes",
          "name": "data",
          "type": "bytes"
        }
      ],
      "name": "mint",
      "outputs": [],
      "stateMutability": "nonpayable",
      "type": "function"
    },
    {
      "inputs": [
        {
          "internalType": "address",
          "name": "to",
          "type": "address"
        },
        {
          "internalType": "string[]",
          "name": "tokenNames",
          "type": "string[]"
        },
        {
          "internalType": "uint256[]",
          "name": "amounts",
          "type": "uint256[]"
        },
        {
          "internalType": "bytes",
          "name": "data",
          "type": "bytes"
        }
      ],
      "name": "mintBatch",
      "outputs": [],
      "stateMutability": "nonpayable",
      "type": "function"
    },
    {
      "inputs": [],
      "name": "name",
      "outputs": [
        {
          "internalType": "string",
          "name": "",
          "type": "string"
        }
      ],
      "stateMutability": "view",
      "type": "function"
    },
    {
      "inputs": [],
      "name": "owner",
      "outputs": [
        {
          "internalType": "address",
          "name": "",
          "type": "address"
        }
      ],
      "stateMutability": "view",
      "type": "function"
    },
    {
      "inputs": [],
      "name": "renounceOwnership",
      "outputs": [],
      "stateMutability": "nonpayable",
      "type": "function"
    },
    {
      "inputs": [
        {
          "internalType": "bytes32",
          "name": "role",
          "type": "bytes32"
        },
        {
          "internalType": "address",
          "name": "account",
          "type": "address"
        }
      ],
      "name": "renounceRole",
      "outputs": [],
      "stateMutability": "nonpayable",
      "type": "function"
    },
    {
      "inputs": [
        {
          "internalType": "bytes32",
          "name": "role",
          "type": "bytes32"
        },
        {
          "internalType": "address",
          "name": "account",
          "type": "address"
        }
      ],
      "name": "revokeRole",
      "outputs": [],
      "stateMutability": "nonpayable",
      "type": "function"
    },
    {
      "inputs": [
        {
          "internalType": "address",
          "name": "from",
          "type": "address"
        },
        {
          "internalType": "address",
          "name": "to",
          "type": "address"
        },
        {
          "internalType": "uint256[]",
          "name": "ids",
          "type": "uint256[]"
        },
        {
          "internalType": "uint256[]",
          "name": "amounts",
          "type": "uint256[]"
        },
        {
          "internalType": "bytes",
          "name": "data",
          "type": "bytes"
        }
      ],
      "name": "safeBatchTransferFrom",
      "outputs": [],
      "stateMutability": "nonpayable",
      "type": "function"
    },
    {
      "inputs": [
        {
          "internalType": "address",
          "name": "from",
          "type": "address"
        },
        {
          "internalType": "address",
          "name": "to",
          "type": "address"
        },
        {
          "internalType": "uint256",
          "name": "id",
          "type": "uint256"
        },
        {
          "internalType": "uint256",
          "name": "amount",
          "type": "uint256"
        },
        {
          "internalType": "bytes",
          "name": "data",
          "type": "bytes"
        }
      ],
      "name": "safeTransferFrom",
      "outputs": [],
      "stateMutability": "nonpayable",
      "type": "function"
    },
    {
      "inputs": [
        {
          "internalType": "address",
          "name": "operator",
          "type": "address"
        },
        {
          "internalType": "bool",
          "name": "approved",
          "type": "bool"
        }
      ],
      "name": "setApprovalForAll",
      "outputs": [],
      "stateMutability": "nonpayable",
      "type": "function"
    },
    {
      "inputs": [
        {
          "internalType": "string",
          "name": "tokenName",
          "type": "string"
        },
        {
          "internalType": "string",
          "name": "_uri",
          "type": "string"
        }
      ],
      "name": "setToken",
      "outputs": [],
      "stateMutability": "nonpayable",
      "type": "function"
    },
    {
      "inputs": [
        {
          "internalType": "string",
          "name": "tokenName",
          "type": "string"
        }
      ],
      "name": "setTokenId",
      "outputs": [],
      "stateMutability": "nonpayable",
      "type": "function"
    },
    {
      "inputs": [
        {
          "internalType": "string",
          "name": "tokenName",
          "type": "string"
        },
        {
          "internalType": "string",
          "name": "_uri",
          "type": "string"
        }
      ],
      "name": "setTokenUri",
      "outputs": [],
      "stateMutability": "nonpayable",
      "type": "function"
    },
    {
      "inputs": [
        {
          "internalType": "uint256",
          "name": "tokenId",
          "type": "uint256"
        },
        {
          "internalType": "string",
          "name": "_uri",
          "type": "string"
        }
      ],
      "name": "setTokenUriById",
      "outputs": [],
      "stateMutability": "nonpayable",
      "type": "function"
    },
    {
      "inputs": [
        {
          "internalType": "bytes4",
          "name": "interfaceId",
          "type": "bytes4"
        }
      ],
      "name": "supportsInterface",
      "outputs": [
        {
          "internalType": "bool",
          "name": "",
          "type": "bool"
        }
      ],
      "stateMutability": "view",
      "type": "function"
    },
    {
      "inputs": [],
      "name": "symbol",
      "outputs": [
        {
          "internalType": "string",
          "name": "",
          "type": "string"
        }
      ],
      "stateMutability": "view",
      "type": "function"
    },
    {
      "inputs": [
        {
          "internalType": "address",
          "name": "newOwner",
          "type": "address"
        }
      ],
      "name": "transferOwnership",
      "outputs": [],
      "stateMutability": "nonpayable",
      "type": "function"
    },
    {
      "inputs": [
        {
          "internalType": "uint256",
          "name": "tokenId",
          "type": "uint256"
        }
      ],
      "name": "uri",
      "outputs": [
        {
          "internalType": "string",
          "name": "",
          "type": "string"
        }
      ],
      "stateMutability": "view",
      "type": "function"
    }
  ],
  "bytecode": "0x60806040523480156200001157600080fd5b5060405162005387380380620053878339818101604052810190620000379190620004c2565b6040518060200160405280600081525062000058816200014360201b60201c565b50620000796200006d6200015f60201b60201c565b6200016760201b60201c565b6200008e6000801b336200022d60201b60201c565b620000c07f7804d923f43a17d325d77e781528e0793b2edd9890ab45fc64efd7b4b427744c336200022d60201b60201c565b620000f27f9f2df0fed2c77648de5860a4cc508cd0818c85b8b8a1ab4ceeef8d981c8956a6336200022d60201b60201c565b81600690805190602001906200010a929190620003a0565b50806007908051906020019062000123929190620003a0565b506200013b60056200031f60201b620016171760201c565b5050620006a5565b80600290805190602001906200015b929190620003a0565b5050565b600033905090565b6000600460009054906101000a900473ffffffffffffffffffffffffffffffffffffffff16905081600460006101000a81548173ffffffffffffffffffffffffffffffffffffffff021916908373ffffffffffffffffffffffffffffffffffffffff1602179055508173ffffffffffffffffffffffffffffffffffffffff168173ffffffffffffffffffffffffffffffffffffffff167f8be0079c531659141344cd1fd0a4f28419497f9722a3daafe3b4186f6b6457e060405160405180910390a35050565b6200023f82826200033560201b60201c565b6200031b5760016003600084815260200190815260200160002060000160008373ffffffffffffffffffffffffffffffffffffffff1673ffffffffffffffffffffffffffffffffffffffff16815260200190815260200160002060006101000a81548160ff021916908315150217905550620002c06200015f60201b60201c565b73ffffffffffffffffffffffffffffffffffffffff168173ffffffffffffffffffffffffffffffffffffffff16837f2f8788117e7eff1d82e926ec794901d17c78024a50270940304540a733656f0d60405160405180910390a45b5050565b6001816000016000828254019250508190555050565b60006003600084815260200190815260200160002060000160008373ffffffffffffffffffffffffffffffffffffffff1673ffffffffffffffffffffffffffffffffffffffff16815260200190815260200160002060009054906101000a900460ff16905092915050565b828054620003ae90620005ca565b90600052602060002090601f016020900481019282620003d257600085556200041e565b82601f10620003ed57805160ff19168380011785556200041e565b828001600101855582156200041e579182015b828111156200041d57825182559160200191906001019062000400565b5b5090506200042d919062000431565b5090565b5b808211156200044c57600081600090555060010162000432565b5090565b60006200046762000461846200055e565b62000535565b9050828152602081018484840111156200048057600080fd5b6200048d84828562000594565b509392505050565b600082601f830112620004a757600080fd5b8151620004b984826020860162000450565b91505092915050565b60008060408385031215620004d657600080fd5b600083015167ffffffffffffffff811115620004f157600080fd5b620004ff8582860162000495565b925050602083015167ffffffffffffffff8111156200051d57600080fd5b6200052b8582860162000495565b9150509250929050565b60006200054162000554565b90506200054f828262000600565b919050565b6000604051905090565b600067ffffffffffffffff8211156200057c576200057b62000665565b5b620005878262000694565b9050602081019050919050565b60005b83811015620005b457808201518184015260208101905062000597565b83811115620005c4576000848401525b50505050565b60006002820490506001821680620005e357607f821691505b60208210811415620005fa57620005f962000636565b5b50919050565b6200060b8262000694565b810181811067ffffffffffffffff821117156200062d576200062c62000665565b5b80604052505050565b7f4e487b7100000000000000000000000000000000000000000000000000000000600052602260045260246000fd5b7f4e487b7100000000000000000000000000000000000000000000000000000000600052604160045260246000fd5b6000601f19601f8301169050919050565b614cd280620006b56000396000f3fe608060405234801561001057600080fd5b50600436106101ef5760003560e01c806378a895671161010f578063a22cb465116100a2578063e985e9c511610071578063e985e9c5146105c8578063f242432a146105f8578063f2fde38b14610614578063fd55e73c14610630576101ef565b8063a22cb46514610556578063d539139314610572578063d547741f14610590578063dcfd616f146105ac576101ef565b806391d14854116100de57806391d14854146104ba57806395d89b41146104ea5780639c1f1b8c14610508578063a217fddf14610538576101ef565b806378a89567146104305780637f3457101461044e5780638da5cb5b1461046c5780638e3b6e4a1461048a576101ef565b80632f2ff15d116101875780634e238d5a116101565780634e238d5a146103d25780635523c250146103ee5780636f7525481461040a578063715018a614610426576101ef565b80632f2ff15d1461034e57806336568abe1461036a578063428a328b146103865780634e1273f4146103a2576101ef565b80631dd7cecf116101c35780631dd7cecf146102a25780631e7663bc146102d2578063248a9ca3146103025780632eb2c2d614610332576101ef565b8062fdd58e146101f457806301ffc9a71461022457806306fdde03146102545780630e89341c14610272575b600080fd5b61020e600480360381019061020991906135f3565b61064c565b60405161021b919061416a565b60405180910390f35b61023e6004803603810190610239919061376c565b610715565b60405161024b9190613eb2565b60405180910390f35b61025c610727565b6040516102699190613ee8565b60405180910390f35b61028c6004803603810190610287919061386b565b6107b5565b6040516102999190613ee8565b60405180910390f35b6102bc60048036038101906102b7919061350c565b6108bd565b6040516102c9919061416a565b60405180910390f35b6102ec60048036038101906102e791906137be565b6108ed565b6040516102f9919061416a565b60405180910390f35b61031c60048036038101906103179190613707565b610975565b6040516103299190613ecd565b60405180910390f35b61034c600480360381019061034791906132d7565b610995565b005b61036860048036038101906103639190613730565b610a36565b005b610384600480360381019061037f9190613730565b610a57565b005b6103a0600480360381019061039b9190613425565b610ada565b005b6103bc60048036038101906103b7919061369b565b610c3a565b6040516103c99190613e59565b60405180910390f35b6103ec60048036038101906103e791906137ff565b610deb565b005b61040860048036038101906104039190613560565b610e2d565b005b610424600480360381019061041f9190613894565b610e78565b005b61042e610f31565b005b610438610fb9565b604051610445919061416a565b60405180910390f35b610456610fca565b6040516104639190613ecd565b60405180910390f35b610474610fee565b6040516104819190613d7c565b60405180910390f35b6104a4600480360381019061049f919061362f565b611018565b6040516104b19190613e59565b60405180910390f35b6104d460048036038101906104cf9190613730565b61115d565b6040516104e19190613eb2565b60405180910390f35b6104f26111c8565b6040516104ff9190613ee8565b60405180910390f35b610522600480360381019061051d91906137be565b611256565b60405161052f9190613ee8565b60405180910390f35b610540611276565b60405161054d9190613ecd565b60405180910390f35b610570600480360381019061056b91906134d0565b61127d565b005b61057a611293565b6040516105879190613ecd565b60405180910390f35b6105aa60048036038101906105a59190613730565b6112b7565b005b6105c660048036038101906105c191906137be565b6112d8565b005b6105e260048036038101906105dd919061329b565b6113a3565b6040516105ef9190613eb2565b60405180910390f35b610612600480360381019061060d9190613396565b611437565b005b61062e60048036038101906106299190613272565b6114d8565b005b61064a600480360381019061064591906137ff565b6115d0565b005b60008073ffffffffffffffffffffffffffffffffffffffff168373ffffffffffffffffffffffffffffffffffffffff1614156106bd576040517f08c379a00000000000000000000000000000000000000000000000000000000081526004016106b490613f6a565b60405180910390fd5b60008083815260200190815260200160002060008473ffffffffffffffffffffffffffffffffffffffff1673ffffffffffffffffffffffffffffffffffffffff16815260200190815260200160002054905092915050565b60006107208261162d565b9050919050565b60068054610734906144cf565b80601f0160208091040260200160405190810160405280929190818152602001828054610760906144cf565b80156107ad5780601f10610782576101008083540402835291602001916107ad565b820191906000526020600020905b81548152906001019060200180831161079057829003601f168201915b505050505081565b606060006008600084815260200190815260200160002080546107d7906144cf565b9050141561081a576040517f08c379a00000000000000000000000000000000000000000000000000000000081526004016108119061404a565b60405180910390fd5b600860008381526020019081526020016000208054610838906144cf565b80601f0160208091040260200160405190810160405280929190818152602001828054610864906144cf565b80156108b15780601f10610886576101008083540402835291602001916108b1565b820191906000526020600020905b81548152906001019060200180831161089457829003601f168201915b50505050509050919050565b60008060001b6108cc816116a7565b60006108d7846108ed565b90506108e3858261064c565b9250505092915050565b6000806009836040516109009190613d2b565b9081526020016040518091039020541161094f576040517f08c379a000000000000000000000000000000000000000000000000000000000815260040161094690613fca565b60405180910390fd5b60098260405161095f9190613d2b565b9081526020016040518091039020549050919050565b600060036000838152602001908152602001600020600101549050919050565b61099d6116bb565b73ffffffffffffffffffffffffffffffffffffffff168573ffffffffffffffffffffffffffffffffffffffff1614806109e357506109e2856109dd6116bb565b6113a3565b5b610a22576040517f08c379a0000000000000000000000000000000000000000000000000000000008152600401610a199061400a565b60405180910390fd5b610a2f85858585856116c3565b5050505050565b610a3f82610975565b610a48816116a7565b610a528383611a31565b505050565b610a5f6116bb565b73ffffffffffffffffffffffffffffffffffffffff168173ffffffffffffffffffffffffffffffffffffffff1614610acc576040517f08c379a0000000000000000000000000000000000000000000000000000000008152600401610ac39061414a565b60405180910390fd5b610ad68282611b12565b5050565b7f9f2df0fed2c77648de5860a4cc508cd0818c85b8b8a1ab4ceeef8d981c8956a6610b04816116a7565b6000845167ffffffffffffffff811115610b47577f4e487b7100000000000000000000000000000000000000000000000000000000600052604160045260246000fd5b604051908082528060200260200182016040528015610b755781602001602082028036833780820191505090505b50905060005b8551811015610c2557610bcd868281518110610bc0577f4e487b7100000000000000000000000000000000000000000000000000000000600052603260045260246000fd5b60200260200101516108ed565b828281518110610c06577f4e487b7100000000000000000000000000000000000000000000000000000000600052603260045260246000fd5b6020026020010181815250508080610c1d90614532565b915050610b7b565b50610c3286828686611bf4565b505050505050565b60608151835114610c80576040517f08c379a0000000000000000000000000000000000000000000000000000000008152600401610c77906140ea565b60405180910390fd5b6000835167ffffffffffffffff811115610cc3577f4e487b7100000000000000000000000000000000000000000000000000000000600052604160045260246000fd5b604051908082528060200260200182016040528015610cf15781602001602082028036833780820191505090505b50905060005b8451811015610de057610d8a858281518110610d3c577f4e487b7100000000000000000000000000000000000000000000000000000000600052603260045260246000fd5b6020026020010151858381518110610d7d577f4e487b7100000000000000000000000000000000000000000000000000000000600052603260045260246000fd5b602002602001015161064c565b828281518110610dc3577f4e487b7100000000000000000000000000000000000000000000000000000000600052603260045260246000fd5b60200260200101818152505080610dd990614532565b9050610cf7565b508091505092915050565b7f7804d923f43a17d325d77e781528e0793b2edd9890ab45fc64efd7b4b427744c610e15816116a7565b610e1e836112d8565b610e2883836115d0565b505050565b7f9f2df0fed2c77648de5860a4cc508cd0818c85b8b8a1ab4ceeef8d981c8956a6610e57816116a7565b6000610e62856108ed565b9050610e7086828686611e6d565b505050505050565b7f7804d923f43a17d325d77e781528e0793b2edd9890ab45fc64efd7b4b427744c610ea2816116a7565b6000600860008581526020019081526020016000208054610ec2906144cf565b905014610f04576040517f08c379a0000000000000000000000000000000000000000000000000000000008152600401610efb9061402a565b60405180910390fd5b81600860008581526020019081526020016000209080519060200190610f2b929190612ea5565b50505050565b610f396116bb565b73ffffffffffffffffffffffffffffffffffffffff16610f57610fee565b73ffffffffffffffffffffffffffffffffffffffff1614610fad576040517f08c379a0000000000000000000000000000000000000000000000000000000008152600401610fa49061408a565b60405180910390fd5b610fb7600061201e565b565b6000610fc560056120e4565b905090565b7f7804d923f43a17d325d77e781528e0793b2edd9890ab45fc64efd7b4b427744c81565b6000600460009054906101000a900473ffffffffffffffffffffffffffffffffffffffff16905090565b60606000801b611027816116a7565b6000835167ffffffffffffffff81111561106a577f4e487b7100000000000000000000000000000000000000000000000000000000600052604160045260246000fd5b6040519080825280602002602001820160405280156110985781602001602082028036833780820191505090505b50905060005b8451811015611148576110f08582815181106110e3577f4e487b7100000000000000000000000000000000000000000000000000000000600052603260045260246000fd5b60200260200101516108ed565b828281518110611129577f4e487b7100000000000000000000000000000000000000000000000000000000600052603260045260246000fd5b602002602001018181525050808061114090614532565b91505061109e565b506111538582610c3a565b9250505092915050565b60006003600084815260200190815260200160002060000160008373ffffffffffffffffffffffffffffffffffffffff1673ffffffffffffffffffffffffffffffffffffffff16815260200190815260200160002060009054906101000a900460ff16905092915050565b600780546111d5906144cf565b80601f0160208091040260200160405190810160405280929190818152602001828054611201906144cf565b801561124e5780601f106112235761010080835404028352916020019161124e565b820191906000526020600020905b81548152906001019060200180831161123157829003601f168201915b505050505081565b60606000611263836108ed565b905061126e816107b5565b915050919050565b6000801b81565b61128f6112886116bb565b83836120f2565b5050565b7f9f2df0fed2c77648de5860a4cc508cd0818c85b8b8a1ab4ceeef8d981c8956a681565b6112c082610975565b6112c9816116a7565b6112d38383611b12565b505050565b7f7804d923f43a17d325d77e781528e0793b2edd9890ab45fc64efd7b4b427744c611302816116a7565b60006009836040516113149190613d2b565b90815260200160405180910390205414611363576040517f08c379a000000000000000000000000000000000000000000000000000000000815260040161135a906140aa565b60405180910390fd5b600061136f60056120e4565b9050806009846040516113829190613d2b565b90815260200160405180910390208190555061139e6005611617565b505050565b6000600160008473ffffffffffffffffffffffffffffffffffffffff1673ffffffffffffffffffffffffffffffffffffffff16815260200190815260200160002060008373ffffffffffffffffffffffffffffffffffffffff1673ffffffffffffffffffffffffffffffffffffffff16815260200190815260200160002060009054906101000a900460ff16905092915050565b61143f6116bb565b73ffffffffffffffffffffffffffffffffffffffff168573ffffffffffffffffffffffffffffffffffffffff16148061148557506114848561147f6116bb565b6113a3565b5b6114c4576040517f08c379a00000000000000000000000000000000000000000000000000000000081526004016114bb90613faa565b60405180910390fd5b6114d1858585858561225f565b5050505050565b6114e06116bb565b73ffffffffffffffffffffffffffffffffffffffff166114fe610fee565b73ffffffffffffffffffffffffffffffffffffffff1614611554576040517f08c379a000000000000000000000000000000000000000000000000000000000815260040161154b9061408a565b60405180910390fd5b600073ffffffffffffffffffffffffffffffffffffffff168173ffffffffffffffffffffffffffffffffffffffff1614156115c4576040517f08c379a00000000000000000000000000000000000000000000000000000000081526004016115bb90613f8a565b60405180910390fd5b6115cd8161201e565b50565b7f7804d923f43a17d325d77e781528e0793b2edd9890ab45fc64efd7b4b427744c6115fa816116a7565b6000611605846108ed565b90506116118184610e78565b50505050565b6001816000016000828254019250508190555050565b60007f7965db0b000000000000000000000000000000000000000000000000000000007bffffffffffffffffffffffffffffffffffffffffffffffffffffffff1916827bffffffffffffffffffffffffffffffffffffffffffffffffffffffff191614806116a0575061169f826124fb565b5b9050919050565b6116b8816116b36116bb565b6125dd565b50565b600033905090565b8151835114611707576040517f08c379a00000000000000000000000000000000000000000000000000000000081526004016116fe9061410a565b60405180910390fd5b600073ffffffffffffffffffffffffffffffffffffffff168473ffffffffffffffffffffffffffffffffffffffff161415611777576040517f08c379a000000000000000000000000000000000000000000000000000000000815260040161176e90613fea565b60405180910390fd5b60006117816116bb565b905061179181878787878761267a565b60005b845181101561198e5760008582815181106117d8577f4e487b7100000000000000000000000000000000000000000000000000000000600052603260045260246000fd5b60200260200101519050600085838151811061181d577f4e487b7100000000000000000000000000000000000000000000000000000000600052603260045260246000fd5b60200260200101519050600080600084815260200190815260200160002060008b73ffffffffffffffffffffffffffffffffffffffff1673ffffffffffffffffffffffffffffffffffffffff168152602001908152602001600020549050818110156118be576040517f08c379a00000000000000000000000000000000000000000000000000000000081526004016118b59061406a565b60405180910390fd5b81810360008085815260200190815260200160002060008c73ffffffffffffffffffffffffffffffffffffffff1673ffffffffffffffffffffffffffffffffffffffff168152602001908152602001600020819055508160008085815260200190815260200160002060008b73ffffffffffffffffffffffffffffffffffffffff1673ffffffffffffffffffffffffffffffffffffffff16815260200190815260200160002060008282546119739190614335565b925050819055505050508061198790614532565b9050611794565b508473ffffffffffffffffffffffffffffffffffffffff168673ffffffffffffffffffffffffffffffffffffffff168273ffffffffffffffffffffffffffffffffffffffff167f4a39dc06d4c0dbc64b70af90fd698a233a518aa5d07e595d983b8c0526c8f7fb8787604051611a05929190613e7b565b60405180910390a4611a1b818787878787612682565b611a2981878787878761268a565b505050505050565b611a3b828261115d565b611b0e5760016003600084815260200190815260200160002060000160008373ffffffffffffffffffffffffffffffffffffffff1673ffffffffffffffffffffffffffffffffffffffff16815260200190815260200160002060006101000a81548160ff021916908315150217905550611ab36116bb565b73ffffffffffffffffffffffffffffffffffffffff168173ffffffffffffffffffffffffffffffffffffffff16837f2f8788117e7eff1d82e926ec794901d17c78024a50270940304540a733656f0d60405160405180910390a45b5050565b611b1c828261115d565b15611bf05760006003600084815260200190815260200160002060000160008373ffffffffffffffffffffffffffffffffffffffff1673ffffffffffffffffffffffffffffffffffffffff16815260200190815260200160002060006101000a81548160ff021916908315150217905550611b956116bb565b73ffffffffffffffffffffffffffffffffffffffff168173ffffffffffffffffffffffffffffffffffffffff16837ff6391f5c32d9c69d2a47ea670b442974b53935d1edc7fd64eb21e047a839171b60405160405180910390a45b5050565b600073ffffffffffffffffffffffffffffffffffffffff168473ffffffffffffffffffffffffffffffffffffffff161415611c64576040517f08c379a0000000000000000000000000000000000000000000000000000000008152600401611c5b9061412a565b60405180910390fd5b8151835114611ca8576040517f08c379a0000000000000000000000000000000000000000000000000000000008152600401611c9f9061410a565b60405180910390fd5b6000611cb26116bb565b9050611cc38160008787878761267a565b60005b8451811015611dc857838181518110611d08577f4e487b7100000000000000000000000000000000000000000000000000000000600052603260045260246000fd5b6020026020010151600080878481518110611d4c577f4e487b7100000000000000000000000000000000000000000000000000000000600052603260045260246000fd5b6020026020010151815260200190815260200160002060008873ffffffffffffffffffffffffffffffffffffffff1673ffffffffffffffffffffffffffffffffffffffff1681526020019081526020016000206000828254611dae9190614335565b925050819055508080611dc090614532565b915050611cc6565b508473ffffffffffffffffffffffffffffffffffffffff16600073ffffffffffffffffffffffffffffffffffffffff168273ffffffffffffffffffffffffffffffffffffffff167f4a39dc06d4c0dbc64b70af90fd698a233a518aa5d07e595d983b8c0526c8f7fb8787604051611e40929190613e7b565b60405180910390a4611e5781600087878787612682565b611e668160008787878761268a565b5050505050565b600073ffffffffffffffffffffffffffffffffffffffff168473ffffffffffffffffffffffffffffffffffffffff161415611edd576040517f08c379a0000000000000000000000000000000000000000000000000000000008152600401611ed49061412a565b60405180910390fd5b6000611ee76116bb565b90506000611ef485612871565b90506000611f0185612871565b9050611f128360008985858961267a565b8460008088815260200190815260200160002060008973ffffffffffffffffffffffffffffffffffffffff1673ffffffffffffffffffffffffffffffffffffffff1681526020019081526020016000206000828254611f719190614335565b925050819055508673ffffffffffffffffffffffffffffffffffffffff16600073ffffffffffffffffffffffffffffffffffffffff168473ffffffffffffffffffffffffffffffffffffffff167fc3d58168c5ae7397731d063d5bbf3d657854427343f4c083240f7aacaa2d0f628989604051611fef929190614185565b60405180910390a461200683600089858589612682565b61201583600089898989612937565b50505050505050565b6000600460009054906101000a900473ffffffffffffffffffffffffffffffffffffffff16905081600460006101000a81548173ffffffffffffffffffffffffffffffffffffffff021916908373ffffffffffffffffffffffffffffffffffffffff1602179055508173ffffffffffffffffffffffffffffffffffffffff168173ffffffffffffffffffffffffffffffffffffffff167f8be0079c531659141344cd1fd0a4f28419497f9722a3daafe3b4186f6b6457e060405160405180910390a35050565b600081600001549050919050565b8173ffffffffffffffffffffffffffffffffffffffff168373ffffffffffffffffffffffffffffffffffffffff161415612161576040517f08c379a0000000000000000000000000000000000000000000000000000000008152600401612158906140ca565b60405180910390fd5b80600160008573ffffffffffffffffffffffffffffffffffffffff1673ffffffffffffffffffffffffffffffffffffffff16815260200190815260200160002060008473ffffffffffffffffffffffffffffffffffffffff1673ffffffffffffffffffffffffffffffffffffffff16815260200190815260200160002060006101000a81548160ff0219169083151502179055508173ffffffffffffffffffffffffffffffffffffffff168373ffffffffffffffffffffffffffffffffffffffff167f17307eab39ab6107e8899845ad3d59bd9653f200f220920489ca2b5937696c31836040516122529190613eb2565b60405180910390a3505050565b600073ffffffffffffffffffffffffffffffffffffffff168473ffffffffffffffffffffffffffffffffffffffff1614156122cf576040517f08c379a00000000000000000000000000000000000000000000000000000000081526004016122c690613fea565b60405180910390fd5b60006122d96116bb565b905060006122e685612871565b905060006122f385612871565b905061230383898985858961267a565b600080600088815260200190815260200160002060008a73ffffffffffffffffffffffffffffffffffffffff1673ffffffffffffffffffffffffffffffffffffffff1681526020019081526020016000205490508581101561239a576040517f08c379a00000000000000000000000000000000000000000000000000000000081526004016123919061406a565b60405180910390fd5b85810360008089815260200190815260200160002060008b73ffffffffffffffffffffffffffffffffffffffff1673ffffffffffffffffffffffffffffffffffffffff168152602001908152602001600020819055508560008089815260200190815260200160002060008a73ffffffffffffffffffffffffffffffffffffffff1673ffffffffffffffffffffffffffffffffffffffff168152602001908152602001600020600082825461244f9190614335565b925050819055508773ffffffffffffffffffffffffffffffffffffffff168973ffffffffffffffffffffffffffffffffffffffff168573ffffffffffffffffffffffffffffffffffffffff167fc3d58168c5ae7397731d063d5bbf3d657854427343f4c083240f7aacaa2d0f628a8a6040516124cc929190614185565b60405180910390a46124e2848a8a86868a612682565b6124f0848a8a8a8a8a612937565b505050505050505050565b60007fd9b67a26000000000000000000000000000000000000000000000000000000007bffffffffffffffffffffffffffffffffffffffffffffffffffffffff1916827bffffffffffffffffffffffffffffffffffffffffffffffffffffffff191614806125c657507f0e89341c000000000000000000000000000000000000000000000000000000007bffffffffffffffffffffffffffffffffffffffffffffffffffffffff1916827bffffffffffffffffffffffffffffffffffffffffffffffffffffffff1916145b806125d657506125d582612b1e565b5b9050919050565b6125e7828261115d565b6126765761260c8173ffffffffffffffffffffffffffffffffffffffff166014612b88565b61261a8360001c6020612b88565b60405160200161262b929190613d42565b6040516020818303038152906040526040517f08c379a000000000000000000000000000000000000000000000000000000000815260040161266d9190613ee8565b60405180910390fd5b5050565b505050505050565b505050505050565b6126a98473ffffffffffffffffffffffffffffffffffffffff16612e82565b15612869578373ffffffffffffffffffffffffffffffffffffffff1663bc197c8187878686866040518663ffffffff1660e01b81526004016126ef959493929190613d97565b602060405180830381600087803b15801561270957600080fd5b505af192505050801561273a57506040513d601f19601f820116820180604052508101906127379190613795565b60015b6127e057612746614608565b806308c379a014156127a3575061275b614b93565b8061276657506127a5565b806040517f08c379a000000000000000000000000000000000000000000000000000000000815260040161279a9190613ee8565b60405180910390fd5b505b6040517f08c379a00000000000000000000000000000000000000000000000000000000081526004016127d790613f0a565b60405180910390fd5b63bc197c8160e01b7bffffffffffffffffffffffffffffffffffffffffffffffffffffffff1916817bffffffffffffffffffffffffffffffffffffffffffffffffffffffff191614612867576040517f08c379a000000000000000000000000000000000000000000000000000000000815260040161285e90613f4a565b60405180910390fd5b505b505050505050565b60606000600167ffffffffffffffff8111156128b6577f4e487b7100000000000000000000000000000000000000000000000000000000600052604160045260246000fd5b6040519080825280602002602001820160405280156128e45781602001602082028036833780820191505090505b5090508281600081518110612922577f4e487b7100000000000000000000000000000000000000000000000000000000600052603260045260246000fd5b60200260200101818152505080915050919050565b6129568473ffffffffffffffffffffffffffffffffffffffff16612e82565b15612b16578373ffffffffffffffffffffffffffffffffffffffff1663f23a6e6187878686866040518663ffffffff1660e01b815260040161299c959493929190613dff565b602060405180830381600087803b1580156129b657600080fd5b505af19250505080156129e757506040513d601f19601f820116820180604052508101906129e49190613795565b60015b612a8d576129f3614608565b806308c379a01415612a505750612a08614b93565b80612a135750612a52565b806040517f08c379a0000000000000000000000000000000000000000000000000000000008152600401612a479190613ee8565b60405180910390fd5b505b6040517f08c379a0000000000000000000000000000000000000000000000000000000008152600401612a8490613f0a565b60405180910390fd5b63f23a6e6160e01b7bffffffffffffffffffffffffffffffffffffffffffffffffffffffff1916817bffffffffffffffffffffffffffffffffffffffffffffffffffffffff191614612b14576040517f08c379a0000000000000000000000000000000000000000000000000000000008152600401612b0b90613f4a565b60405180910390fd5b505b505050505050565b60007f01ffc9a7000000000000000000000000000000000000000000000000000000007bffffffffffffffffffffffffffffffffffffffffffffffffffffffff1916827bffffffffffffffffffffffffffffffffffffffffffffffffffffffff1916149050919050565b606060006002836002612b9b919061438b565b612ba59190614335565b67ffffffffffffffff811115612be4577f4e487b7100000000000000000000000000000000000000000000000000000000600052604160045260246000fd5b6040519080825280601f01601f191660200182016040528015612c165781602001600182028036833780820191505090505b5090507f300000000000000000000000000000000000000000000000000000000000000081600081518110612c74577f4e487b7100000000000000000000000000000000000000000000000000000000600052603260045260246000fd5b60200101907effffffffffffffffffffffffffffffffffffffffffffffffffffffffffffff1916908160001a9053507f780000000000000000000000000000000000000000000000000000000000000081600181518110612cfe577f4e487b7100000000000000000000000000000000000000000000000000000000600052603260045260246000fd5b60200101907effffffffffffffffffffffffffffffffffffffffffffffffffffffffffffff1916908160001a90535060006001846002612d3e919061438b565b612d489190614335565b90505b6001811115612e34577f3031323334353637383961626364656600000000000000000000000000000000600f861660108110612db0577f4e487b7100000000000000000000000000000000000000000000000000000000600052603260045260246000fd5b1a60f81b828281518110612ded577f4e487b7100000000000000000000000000000000000000000000000000000000600052603260045260246000fd5b60200101907effffffffffffffffffffffffffffffffffffffffffffffffffffffffffffff1916908160001a905350600485901c945080612e2d906144a5565b9050612d4b565b5060008414612e78576040517f08c379a0000000000000000000000000000000000000000000000000000000008152600401612e6f90613f2a565b60405180910390fd5b8091505092915050565b6000808273ffffffffffffffffffffffffffffffffffffffff163b119050919050565b828054612eb1906144cf565b90600052602060002090601f016020900481019282612ed35760008555612f1a565b82601f10612eec57805160ff1916838001178555612f1a565b82800160010185558215612f1a579182015b82811115612f19578251825591602001919060010190612efe565b5b509050612f279190612f2b565b5090565b5b80821115612f44576000816000905550600101612f2c565b5090565b6000612f5b612f56846141d3565b6141ae565b90508083825260208201905082856020860282011115612f7a57600080fd5b60005b85811015612faa5781612f908882613122565b845260208401935060208301925050600181019050612f7d565b5050509392505050565b6000612fc7612fc2846141ff565b6141ae565b90508083825260208201905082856020860282011115612fe657600080fd5b60005b8581101561303057813567ffffffffffffffff81111561300857600080fd5b8086016130158982613233565b85526020850194506020840193505050600181019050612fe9565b5050509392505050565b600061304d6130488461422b565b6141ae565b9050808382526020820190508285602086028201111561306c57600080fd5b60005b8581101561309c5781613082888261325d565b84526020840193506020830192505060018101905061306f565b5050509392505050565b60006130b96130b484614257565b6141ae565b9050828152602081018484840111156130d157600080fd5b6130dc848285614463565b509392505050565b60006130f76130f284614288565b6141ae565b90508281526020810184848401111561310f57600080fd5b61311a848285614463565b509392505050565b60008135905061313181614c29565b92915050565b600082601f83011261314857600080fd5b8135613158848260208601612f48565b91505092915050565b600082601f83011261317257600080fd5b8135613182848260208601612fb4565b91505092915050565b600082601f83011261319c57600080fd5b81356131ac84826020860161303a565b91505092915050565b6000813590506131c481614c40565b92915050565b6000813590506131d981614c57565b92915050565b6000813590506131ee81614c6e565b92915050565b60008151905061320381614c6e565b92915050565b600082601f83011261321a57600080fd5b813561322a8482602086016130a6565b91505092915050565b600082601f83011261324457600080fd5b81356132548482602086016130e4565b91505092915050565b60008135905061326c81614c85565b92915050565b60006020828403121561328457600080fd5b600061329284828501613122565b91505092915050565b600080604083850312156132ae57600080fd5b60006132bc85828601613122565b92505060206132cd85828601613122565b9150509250929050565b600080600080600060a086880312156132ef57600080fd5b60006132fd88828901613122565b955050602061330e88828901613122565b945050604086013567ffffffffffffffff81111561332b57600080fd5b6133378882890161318b565b935050606086013567ffffffffffffffff81111561335457600080fd5b6133608882890161318b565b925050608086013567ffffffffffffffff81111561337d57600080fd5b61338988828901613209565b9150509295509295909350565b600080600080600060a086880312156133ae57600080fd5b60006133bc88828901613122565b95505060206133cd88828901613122565b94505060406133de8882890161325d565b93505060606133ef8882890161325d565b925050608086013567ffffffffffffffff81111561340c57600080fd5b61341888828901613209565b9150509295509295909350565b6000806000806080858703121561343b57600080fd5b600061344987828801613122565b945050602085013567ffffffffffffffff81111561346657600080fd5b61347287828801613161565b935050604085013567ffffffffffffffff81111561348f57600080fd5b61349b8782880161318b565b925050606085013567ffffffffffffffff8111156134b857600080fd5b6134c487828801613209565b91505092959194509250565b600080604083850312156134e357600080fd5b60006134f185828601613122565b9250506020613502858286016131b5565b9150509250929050565b6000806040838503121561351f57600080fd5b600061352d85828601613122565b925050602083013567ffffffffffffffff81111561354a57600080fd5b61355685828601613233565b9150509250929050565b6000806000806080858703121561357657600080fd5b600061358487828801613122565b945050602085013567ffffffffffffffff8111156135a157600080fd5b6135ad87828801613233565b93505060406135be8782880161325d565b925050606085013567ffffffffffffffff8111156135db57600080fd5b6135e787828801613209565b91505092959194509250565b6000806040838503121561360657600080fd5b600061361485828601613122565b92505060206136258582860161325d565b9150509250929050565b6000806040838503121561364257600080fd5b600083013567ffffffffffffffff81111561365c57600080fd5b61366885828601613137565b925050602083013567ffffffffffffffff81111561368557600080fd5b61369185828601613161565b9150509250929050565b600080604083850312156136ae57600080fd5b600083013567ffffffffffffffff8111156136c857600080fd5b6136d485828601613137565b925050602083013567ffffffffffffffff8111156136f157600080fd5b6136fd8582860161318b565b9150509250929050565b60006020828403121561371957600080fd5b6000613727848285016131ca565b91505092915050565b6000806040838503121561374357600080fd5b6000613751858286016131ca565b925050602061376285828601613122565b9150509250929050565b60006020828403121561377e57600080fd5b600061378c848285016131df565b91505092915050565b6000602082840312156137a757600080fd5b60006137b5848285016131f4565b91505092915050565b6000602082840312156137d057600080fd5b600082013567ffffffffffffffff8111156137ea57600080fd5b6137f684828501613233565b91505092915050565b6000806040838503121561381257600080fd5b600083013567ffffffffffffffff81111561382c57600080fd5b61383885828601613233565b925050602083013567ffffffffffffffff81111561385557600080fd5b61386185828601613233565b9150509250929050565b60006020828403121561387d57600080fd5b600061388b8482850161325d565b91505092915050565b600080604083850312156138a757600080fd5b60006138b58582860161325d565b925050602083013567ffffffffffffffff8111156138d257600080fd5b6138de85828601613233565b9150509250929050565b60006138f48383613d0d565b60208301905092915050565b613909816143e5565b82525050565b600061391a826142c9565b61392481856142f7565b935061392f836142b9565b8060005b8381101561396057815161394788826138e8565b9750613952836142ea565b925050600181019050613933565b5085935050505092915050565b613976816143f7565b82525050565b61398581614403565b82525050565b6000613996826142d4565b6139a08185614308565b93506139b0818560208601614472565b6139b98161462a565b840191505092915050565b60006139cf826142df565b6139d98185614319565b93506139e9818560208601614472565b6139f28161462a565b840191505092915050565b6000613a08826142df565b613a12818561432a565b9350613a22818560208601614472565b80840191505092915050565b6000613a3b603483614319565b9150613a4682614648565b604082019050919050565b6000613a5e602083614319565b9150613a6982614697565b602082019050919050565b6000613a81602883614319565b9150613a8c826146c0565b604082019050919050565b6000613aa4602b83614319565b9150613aaf8261470f565b604082019050919050565b6000613ac7602683614319565b9150613ad28261475e565b604082019050919050565b6000613aea602983614319565b9150613af5826147ad565b604082019050919050565b6000613b0d601d83614319565b9150613b18826147fc565b602082019050919050565b6000613b30602583614319565b9150613b3b82614825565b604082019050919050565b6000613b53603283614319565b9150613b5e82614874565b604082019050919050565b6000613b76601483614319565b9150613b81826148c3565b602082019050919050565b6000613b99602083614319565b9150613ba4826148ec565b602082019050919050565b6000613bbc602a83614319565b9150613bc782614915565b604082019050919050565b6000613bdf602083614319565b9150613bea82614964565b602082019050919050565b6000613c02601b83614319565b9150613c0d8261498d565b602082019050919050565b6000613c2560178361432a565b9150613c30826149b6565b601782019050919050565b6000613c48602983614319565b9150613c53826149df565b604082019050919050565b6000613c6b602983614319565b9150613c7682614a2e565b604082019050919050565b6000613c8e602883614319565b9150613c9982614a7d565b604082019050919050565b6000613cb1602183614319565b9150613cbc82614acc565b604082019050919050565b6000613cd460118361432a565b9150613cdf82614b1b565b601182019050919050565b6000613cf7602f83614319565b9150613d0282614b44565b604082019050919050565b613d1681614459565b82525050565b613d2581614459565b82525050565b6000613d3782846139fd565b915081905092915050565b6000613d4d82613c18565b9150613d5982856139fd565b9150613d6482613cc7565b9150613d7082846139fd565b91508190509392505050565b6000602082019050613d916000830184613900565b92915050565b600060a082019050613dac6000830188613900565b613db96020830187613900565b8181036040830152613dcb818661390f565b90508181036060830152613ddf818561390f565b90508181036080830152613df3818461398b565b90509695505050505050565b600060a082019050613e146000830188613900565b613e216020830187613900565b613e2e6040830186613d1c565b613e3b6060830185613d1c565b8181036080830152613e4d818461398b565b90509695505050505050565b60006020820190508181036000830152613e73818461390f565b905092915050565b60006040820190508181036000830152613e95818561390f565b90508181036020830152613ea9818461390f565b90509392505050565b6000602082019050613ec7600083018461396d565b92915050565b6000602082019050613ee2600083018461397c565b92915050565b60006020820190508181036000830152613f0281846139c4565b905092915050565b60006020820190508181036000830152613f2381613a2e565b9050919050565b60006020820190508181036000830152613f4381613a51565b9050919050565b60006020820190508181036000830152613f6381613a74565b9050919050565b60006020820190508181036000830152613f8381613a97565b9050919050565b60006020820190508181036000830152613fa381613aba565b9050919050565b60006020820190508181036000830152613fc381613add565b9050919050565b60006020820190508181036000830152613fe381613b00565b9050919050565b6000602082019050818103600083015261400381613b23565b9050919050565b6000602082019050818103600083015261402381613b46565b9050919050565b6000602082019050818103600083015261404381613b69565b9050919050565b6000602082019050818103600083015261406381613b8c565b9050919050565b6000602082019050818103600083015261408381613baf565b9050919050565b600060208201905081810360008301526140a381613bd2565b9050919050565b600060208201905081810360008301526140c381613bf5565b9050919050565b600060208201905081810360008301526140e381613c3b565b9050919050565b6000602082019050818103600083015261410381613c5e565b9050919050565b6000602082019050818103600083015261412381613c81565b9050919050565b6000602082019050818103600083015261414381613ca4565b9050919050565b6000602082019050818103600083015261416381613cea565b9050919050565b600060208201905061417f6000830184613d1c565b92915050565b600060408201905061419a6000830185613d1c565b6141a76020830184613d1c565b9392505050565b60006141b86141c9565b90506141c48282614501565b919050565b6000604051905090565b600067ffffffffffffffff8211156141ee576141ed6145d9565b5b602082029050602081019050919050565b600067ffffffffffffffff82111561421a576142196145d9565b5b602082029050602081019050919050565b600067ffffffffffffffff821115614246576142456145d9565b5b602082029050602081019050919050565b600067ffffffffffffffff821115614272576142716145d9565b5b61427b8261462a565b9050602081019050919050565b600067ffffffffffffffff8211156142a3576142a26145d9565b5b6142ac8261462a565b9050602081019050919050565b6000819050602082019050919050565b600081519050919050565b600081519050919050565b600081519050919050565b6000602082019050919050565b600082825260208201905092915050565b600082825260208201905092915050565b600082825260208201905092915050565b600081905092915050565b600061434082614459565b915061434b83614459565b9250827fffffffffffffffffffffffffffffffffffffffffffffffffffffffffffffffff038211156143805761437f61457b565b5b828201905092915050565b600061439682614459565b91506143a183614459565b9250817fffffffffffffffffffffffffffffffffffffffffffffffffffffffffffffffff04831182151516156143da576143d961457b565b5b828202905092915050565b60006143f082614439565b9050919050565b60008115159050919050565b6000819050919050565b60007fffffffff0000000000000000000000000000000000000000000000000000000082169050919050565b600073ffffffffffffffffffffffffffffffffffffffff82169050919050565b6000819050919050565b82818337600083830152505050565b60005b83811015614490578082015181840152602081019050614475565b8381111561449f576000848401525b50505050565b60006144b082614459565b915060008214156144c4576144c361457b565b5b600182039050919050565b600060028204905060018216806144e757607f821691505b602082108114156144fb576144fa6145aa565b5b50919050565b61450a8261462a565b810181811067ffffffffffffffff82111715614529576145286145d9565b5b80604052505050565b600061453d82614459565b91507fffffffffffffffffffffffffffffffffffffffffffffffffffffffffffffffff8214156145705761456f61457b565b5b600182019050919050565b7f4e487b7100000000000000000000000000000000000000000000000000000000600052601160045260246000fd5b7f4e487b7100000000000000000000000000000000000000000000000000000000600052602260045260246000fd5b7f4e487b7100000000000000000000000000000000000000000000000000000000600052604160045260246000fd5b600060033d11156146275760046000803e61462460005161463b565b90505b90565b6000601f19601f8301169050919050565b60008160e01c9050919050565b7f455243313135353a207472616e7366657220746f206e6f6e204552433131353560008201527f526563656976657220696d706c656d656e746572000000000000000000000000602082015250565b7f537472696e67733a20686578206c656e67746820696e73756666696369656e74600082015250565b7f455243313135353a204552433131353552656365697665722072656a6563746560008201527f6420746f6b656e73000000000000000000000000000000000000000000000000602082015250565b7f455243313135353a2062616c616e636520717565727920666f7220746865207a60008201527f65726f2061646472657373000000000000000000000000000000000000000000602082015250565b7f4f776e61626c653a206e6577206f776e657220697320746865207a65726f206160008201527f6464726573730000000000000000000000000000000000000000000000000000602082015250565b7f455243313135353a2063616c6c6572206973206e6f74206f776e6572206e6f7260008201527f20617070726f7665640000000000000000000000000000000000000000000000602082015250565b7f4e6f20746f6b656e20657869737420776974682074686973206e616d65000000600082015250565b7f455243313135353a207472616e7366657220746f20746865207a65726f20616460008201527f6472657373000000000000000000000000000000000000000000000000000000602082015250565b7f455243313135353a207472616e736665722063616c6c6572206973206e6f742060008201527f6f776e6572206e6f7220617070726f7665640000000000000000000000000000602082015250565b7f43616e6e6f742073657420757269207477696365000000000000000000000000600082015250565b7f75726920666f72207468697320746f6b656e206964206973206e6f7420736574600082015250565b7f455243313135353a20696e73756666696369656e742062616c616e636520666f60008201527f72207472616e7366657200000000000000000000000000000000000000000000602082015250565b7f4f776e61626c653a2063616c6c6572206973206e6f7420746865206f776e6572600082015250565b7f43616e6e6f742073657420746f6b656e206e616d652074776963650000000000600082015250565b7f416363657373436f6e74726f6c3a206163636f756e7420000000000000000000600082015250565b7f455243313135353a2073657474696e6720617070726f76616c2073746174757360008201527f20666f722073656c660000000000000000000000000000000000000000000000602082015250565b7f455243313135353a206163636f756e747320616e6420696473206c656e67746860008201527f206d69736d617463680000000000000000000000000000000000000000000000602082015250565b7f455243313135353a2069647320616e6420616d6f756e7473206c656e6774682060008201527f6d69736d61746368000000000000000000000000000000000000000000000000602082015250565b7f455243313135353a206d696e7420746f20746865207a65726f2061646472657360008201527f7300000000000000000000000000000000000000000000000000000000000000602082015250565b7f206973206d697373696e6720726f6c6520000000000000000000000000000000600082015250565b7f416363657373436f6e74726f6c3a2063616e206f6e6c792072656e6f756e636560008201527f20726f6c657320666f722073656c660000000000000000000000000000000000602082015250565b600060443d1015614ba357614c26565b614bab6141c9565b60043d036004823e80513d602482011167ffffffffffffffff82111715614bd3575050614c26565b808201805167ffffffffffffffff811115614bf15750505050614c26565b80602083010160043d038501811115614c0e575050505050614c26565b614c1d82602001850186614501565b82955050505050505b90565b614c32816143e5565b8114614c3d57600080fd5b50565b614c49816143f7565b8114614c5457600080fd5b50565b614c6081614403565b8114614c6b57600080fd5b50565b614c778161440d565b8114614c8257600080fd5b50565b614c8e81614459565b8114614c9957600080fd5b5056fea2646970667358221220d05fa374ec94cad17e3c01ed5aac306460d96b78cabaf00a0db96c092be1d67364736f6c63430008040033",
  "linkReferences": {},
  "deployedLinkReferences": {}
}