{
  "_format": "hh-sol-artifact-1",
  "contractName": "BlocSkillzNFT001",
  "sourceName": "contracts/BlocSkillzNFT001.sol",
  "abi": [
    {
      "inputs": [],
      "stateMutability": "nonpayable",
      "type": "constructor"
    },
    {
      "anonymous": false,
      "inputs": [
        {
          "indexed": true,
          "internalType": "address",
          "name": "owner",
          "type": "address"
        },
        {
          "indexed": true,
          "internalType": "address",
          "name": "approved",
          "type": "address"
        },
        {
          "indexed": true,
          "internalType": "uint256",
          "name": "tokenId",
          "type": "uint256"
        }
      ],
      "name": "Approval",
      "type": "event"
    },
    {
      "anonymous": false,
      "inputs": [
        {
          "indexed": true,
          "internalType": "address",
          "name": "owner",
          "type": "address"
        },
        {
          "indexed": true,
          "internalType": "address",
          "name": "operator",
          "type": "address"
        },
        {
          "indexed": false,
          "internalType": "bool",
          "name": "approved",
          "type": "bool"
        }
      ],
      "name": "ApprovalForAll",
      "type": "event"
    },
    {
      "anonymous": false,
      "inputs": [
        {
          "indexed": true,
          "internalType": "address",
          "name": "previousOwner",
          "type": "address"
        },
        {
          "indexed": true,
          "internalType": "address",
          "name": "newOwner",
          "type": "address"
        }
      ],
      "name": "OwnershipTransferred",
      "type": "event"
    },
    {
      "anonymous": false,
      "inputs": [
        {
          "indexed": true,
          "internalType": "address",
          "name": "from",
          "type": "address"
        },
        {
          "indexed": true,
          "internalType": "address",
          "name": "to",
          "type": "address"
        },
        {
          "indexed": true,
          "internalType": "uint256",
          "name": "tokenId",
          "type": "uint256"
        }
      ],
      "name": "Transfer",
      "type": "event"
    },
    {
      "inputs": [
        {
          "internalType": "address",
          "name": "to",
          "type": "address"
        },
        {
          "internalType": "uint256",
          "name": "tokenId",
          "type": "uint256"
        }
      ],
      "name": "approve",
      "outputs": [],
      "stateMutability": "nonpayable",
      "type": "function"
    },
    {
      "inputs": [
        {
          "internalType": "address",
          "name": "owner",
          "type": "address"
        }
      ],
      "name": "balanceOf",
      "outputs": [
        {
          "internalType": "uint256",
          "name": "",
          "type": "uint256"
        }
      ],
      "stateMutability": "view",
      "type": "function"
    },
    {
      "inputs": [],
      "name": "contractURI",
      "outputs": [
        {
          "internalType": "string",
          "name": "",
          "type": "string"
        }
      ],
      "stateMutability": "view",
      "type": "function"
    },
    {
      "inputs": [
        {
          "internalType": "uint256",
          "name": "tokenId",
          "type": "uint256"
        }
      ],
      "name": "getApproved",
      "outputs": [
        {
          "internalType": "address",
          "name": "",
          "type": "address"
        }
      ],
      "stateMutability": "view",
      "type": "function"
    },
    {
      "inputs": [
        {
          "internalType": "address",
          "name": "owner",
          "type": "address"
        },
        {
          "internalType": "address",
          "name": "operator",
          "type": "address"
        }
      ],
      "name": "isApprovedForAll",
      "outputs": [
        {
          "internalType": "bool",
          "name": "",
          "type": "bool"
        }
      ],
      "stateMutability": "view",
      "type": "function"
    },
    {
      "inputs": [],
      "name": "name",
      "outputs": [
        {
          "internalType": "string",
          "name": "",
          "type": "string"
        }
      ],
      "stateMutability": "view",
      "type": "function"
    },
    {
      "inputs": [],
      "name": "owner",
      "outputs": [
        {
          "internalType": "address",
          "name": "",
          "type": "address"
        }
      ],
      "stateMutability": "view",
      "type": "function"
    },
    {
      "inputs": [
        {
          "internalType": "uint256",
          "name": "tokenId",
          "type": "uint256"
        }
      ],
      "name": "ownerOf",
      "outputs": [
        {
          "internalType": "address",
          "name": "",
          "type": "address"
        }
      ],
      "stateMutability": "view",
      "type": "function"
    },
    {
      "inputs": [],
      "name": "renounceOwnership",
      "outputs": [],
      "stateMutability": "nonpayable",
      "type": "function"
    },
    {
      "inputs": [
        {
          "internalType": "address",
          "name": "to",
          "type": "address"
        },
        {
          "internalType": "string",
          "name": "uri",
          "type": "string"
        }
      ],
      "name": "safeMint",
      "outputs": [],
      "stateMutability": "nonpayable",
      "type": "function"
    },
    {
      "inputs": [
        {
          "internalType": "address",
          "name": "from",
          "type": "address"
        },
        {
          "internalType": "address",
          "name": "to",
          "type": "address"
        },
        {
          "internalType": "uint256",
          "name": "tokenId",
          "type": "uint256"
        }
      ],
      "name": "safeTransferFrom",
      "outputs": [],
      "stateMutability": "nonpayable",
      "type": "function"
    },
    {
      "inputs": [
        {
          "internalType": "address",
          "name": "from",
          "type": "address"
        },
        {
          "internalType": "address",
          "name": "to",
          "type": "address"
        },
        {
          "internalType": "uint256",
          "name": "tokenId",
          "type": "uint256"
        },
        {
          "internalType": "bytes",
          "name": "_data",
          "type": "bytes"
        }
      ],
      "name": "safeTransferFrom",
      "outputs": [],
      "stateMutability": "nonpayable",
      "type": "function"
    },
    {
      "inputs": [
        {
          "internalType": "address",
          "name": "operator",
          "type": "address"
        },
        {
          "internalType": "bool",
          "name": "approved",
          "type": "bool"
        }
      ],
      "name": "setApprovalForAll",
      "outputs": [],
      "stateMutability": "nonpayable",
      "type": "function"
    },
    {
      "inputs": [
        {
          "internalType": "bytes4",
          "name": "interfaceId",
          "type": "bytes4"
        }
      ],
      "name": "supportsInterface",
      "outputs": [
        {
          "internalType": "bool",
          "name": "",
          "type": "bool"
        }
      ],
      "stateMutability": "view",
      "type": "function"
    },
    {
      "inputs": [],
      "name": "symbol",
      "outputs": [
        {
          "internalType": "string",
          "name": "",
          "type": "string"
        }
      ],
      "stateMutability": "view",
      "type": "function"
    },
    {
      "inputs": [
        {
          "internalType": "uint256",
          "name": "tokenId",
          "type": "uint256"
        }
      ],
      "name": "tokenURI",
      "outputs": [
        {
          "internalType": "string",
          "name": "",
          "type": "string"
        }
      ],
      "stateMutability": "view",
      "type": "function"
    },
    {
      "inputs": [
        {
          "internalType": "address",
          "name": "from",
          "type": "address"
        },
        {
          "internalType": "address",
          "name": "to",
          "type": "address"
        },
        {
          "internalType": "uint256",
          "name": "tokenId",
          "type": "uint256"
        }
      ],
      "name": "transferFrom",
      "outputs": [],
      "stateMutability": "nonpayable",
      "type": "function"
    },
    {
      "inputs": [
        {
          "internalType": "address",
          "name": "newOwner",
          "type": "address"
        }
      ],
      "name": "transferOwnership",
      "outputs": [],
      "stateMutability": "nonpayable",
      "type": "function"
    }
  ],
  "bytecode": "0x608060405260006009556040518060400160405280601481526020017f697066733a2f2f6d657461646174612e6a736f6e000000000000000000000000815250600a908051906020019062000056929190620001f9565b503480156200006457600080fd5b506040518060400160405280600a81526020017f426c6f63536b696c6c7a000000000000000000000000000000000000000000008152506040518060400160405280600381526020017f424c5300000000000000000000000000000000000000000000000000000000008152508160009080519060200190620000e9929190620001f9565b50806001908051906020019062000102929190620001f9565b50505062000125620001196200012b60201b60201c565b6200013360201b60201c565b6200030e565b600033905090565b6000600760009054906101000a900473ffffffffffffffffffffffffffffffffffffffff16905081600760006101000a81548173ffffffffffffffffffffffffffffffffffffffff021916908373ffffffffffffffffffffffffffffffffffffffff1602179055508173ffffffffffffffffffffffffffffffffffffffff168173ffffffffffffffffffffffffffffffffffffffff167f8be0079c531659141344cd1fd0a4f28419497f9722a3daafe3b4186f6b6457e060405160405180910390a35050565b8280546200020790620002a9565b90600052602060002090601f0160209004810192826200022b576000855562000277565b82601f106200024657805160ff191683800117855562000277565b8280016001018555821562000277579182015b828111156200027657825182559160200191906001019062000259565b5b5090506200028691906200028a565b5090565b5b80821115620002a55760008160009055506001016200028b565b5090565b60006002820490506001821680620002c257607f821691505b60208210811415620002d957620002d8620002df565b5b50919050565b7f4e487b7100000000000000000000000000000000000000000000000000000000600052602260045260246000fd5b613143806200031e6000396000f3fe608060405234801561001057600080fd5b50600436106101165760003560e01c80638da5cb5b116100a2578063c87b56dd11610071578063c87b56dd146102cb578063d204c45e146102fb578063e8a3d48514610317578063e985e9c514610335578063f2fde38b1461036557610116565b80638da5cb5b1461025757806395d89b4114610275578063a22cb46514610293578063b88d4fde146102af57610116565b806323b872dd116100e957806323b872dd146101b557806342842e0e146101d15780636352211e146101ed57806370a082311461021d578063715018a61461024d57610116565b806301ffc9a71461011b57806306fdde031461014b578063081812fc14610169578063095ea7b314610199575b600080fd5b610135600480360381019061013091906120a3565b610381565b60405161014291906124fb565b60405180910390f35b610153610463565b6040516101609190612516565b60405180910390f35b610183600480360381019061017e91906120fd565b6104f5565b6040516101909190612494565b60405180910390f35b6101b360048036038101906101ae9190612063565b61057a565b005b6101cf60048036038101906101ca9190611ef1565b610692565b005b6101eb60048036038101906101e69190611ef1565b6106f2565b005b610207600480360381019061020291906120fd565b610712565b6040516102149190612494565b60405180910390f35b61023760048036038101906102329190611e84565b6107c4565b6040516102449190612778565b60405180910390f35b61025561087c565b005b61025f610904565b60405161026c9190612494565b60405180910390f35b61027d61092e565b60405161028a9190612516565b60405180910390f35b6102ad60048036038101906102a89190611fc7565b6109c0565b005b6102c960048036038101906102c49190611f44565b6109d6565b005b6102e560048036038101906102e091906120fd565b610a38565b6040516102f29190612516565b60405180910390f35b61031560048036038101906103109190612007565b610b8a565b005b61031f610c41565b60405161032c9190612516565b60405180910390f35b61034f600480360381019061034a9190611eb1565b610cd3565b60405161035c91906124fb565b60405180910390f35b61037f600480360381019061037a9190611e84565b610d67565b005b60007f80ac58cd000000000000000000000000000000000000000000000000000000007bffffffffffffffffffffffffffffffffffffffffffffffffffffffff1916827bffffffffffffffffffffffffffffffffffffffffffffffffffffffff1916148061044c57507f5b5e139f000000000000000000000000000000000000000000000000000000007bffffffffffffffffffffffffffffffffffffffffffffffffffffffff1916827bffffffffffffffffffffffffffffffffffffffffffffffffffffffff1916145b8061045c575061045b82610e5f565b5b9050919050565b606060008054610472906129ce565b80601f016020809104026020016040519081016040528092919081815260200182805461049e906129ce565b80156104eb5780601f106104c0576101008083540402835291602001916104eb565b820191906000526020600020905b8154815290600101906020018083116104ce57829003601f168201915b5050505050905090565b600061050082610ec9565b61053f576040517f08c379a0000000000000000000000000000000000000000000000000000000008152600401610536906126d8565b60405180910390fd5b6004600083815260200190815260200160002060009054906101000a900473ffffffffffffffffffffffffffffffffffffffff169050919050565b600061058582610712565b90508073ffffffffffffffffffffffffffffffffffffffff168373ffffffffffffffffffffffffffffffffffffffff1614156105f6576040517f08c379a00000000000000000000000000000000000000000000000000000000081526004016105ed90612738565b60405180910390fd5b8073ffffffffffffffffffffffffffffffffffffffff16610615610f35565b73ffffffffffffffffffffffffffffffffffffffff16148061064457506106438161063e610f35565b610cd3565b5b610683576040517f08c379a000000000000000000000000000000000000000000000000000000000815260040161067a90612618565b60405180910390fd5b61068d8383610f3d565b505050565b6106a361069d610f35565b82610ff6565b6106e2576040517f08c379a00000000000000000000000000000000000000000000000000000000081526004016106d990612758565b60405180910390fd5b6106ed8383836110d4565b505050565b61070d838383604051806020016040528060008152506109d6565b505050565b6000806002600084815260200190815260200160002060009054906101000a900473ffffffffffffffffffffffffffffffffffffffff169050600073ffffffffffffffffffffffffffffffffffffffff168173ffffffffffffffffffffffffffffffffffffffff1614156107bb576040517f08c379a00000000000000000000000000000000000000000000000000000000081526004016107b290612658565b60405180910390fd5b80915050919050565b60008073ffffffffffffffffffffffffffffffffffffffff168273ffffffffffffffffffffffffffffffffffffffff161415610835576040517f08c379a000000000000000000000000000000000000000000000000000000000815260040161082c90612638565b60405180910390fd5b600360008373ffffffffffffffffffffffffffffffffffffffff1673ffffffffffffffffffffffffffffffffffffffff168152602001908152602001600020549050919050565b610884610f35565b73ffffffffffffffffffffffffffffffffffffffff166108a2610904565b73ffffffffffffffffffffffffffffffffffffffff16146108f8576040517f08c379a00000000000000000000000000000000000000000000000000000000081526004016108ef906126f8565b60405180910390fd5b610902600061133b565b565b6000600760009054906101000a900473ffffffffffffffffffffffffffffffffffffffff16905090565b60606001805461093d906129ce565b80601f0160208091040260200160405190810160405280929190818152602001828054610969906129ce565b80156109b65780601f1061098b576101008083540402835291602001916109b6565b820191906000526020600020905b81548152906001019060200180831161099957829003601f168201915b5050505050905090565b6109d26109cb610f35565b8383611401565b5050565b6109e76109e1610f35565b83610ff6565b610a26576040517f08c379a0000000000000000000000000000000000000000000000000000000008152600401610a1d90612758565b60405180910390fd5b610a328484848461156e565b50505050565b6060610a4382610ec9565b610a82576040517f08c379a0000000000000000000000000000000000000000000000000000000008152600401610a79906126b8565b60405180910390fd5b6000600660008481526020019081526020016000208054610aa2906129ce565b80601f0160208091040260200160405190810160405280929190818152602001828054610ace906129ce565b8015610b1b5780601f10610af057610100808354040283529160200191610b1b565b820191906000526020600020905b815481529060010190602001808311610afe57829003601f168201915b505050505090506000610b2c6115ca565b9050600081511415610b42578192505050610b85565b600082511115610b77578082604051602001610b5f929190612470565b60405160208183030381529060405292505050610b85565b610b80846115e1565b925050505b919050565b610b92610f35565b73ffffffffffffffffffffffffffffffffffffffff16610bb0610904565b73ffffffffffffffffffffffffffffffffffffffff1614610c06576040517f08c379a0000000000000000000000000000000000000000000000000000000008152600401610bfd906126f8565b60405180910390fd5b6000610c126008611688565b9050610c1d81610ec9565b50610c286008611696565b610c3283826116ac565b610c3c81836116ca565b505050565b6060600a8054610c50906129ce565b80601f0160208091040260200160405190810160405280929190818152602001828054610c7c906129ce565b8015610cc95780601f10610c9e57610100808354040283529160200191610cc9565b820191906000526020600020905b815481529060010190602001808311610cac57829003601f168201915b5050505050905090565b6000600560008473ffffffffffffffffffffffffffffffffffffffff1673ffffffffffffffffffffffffffffffffffffffff16815260200190815260200160002060008373ffffffffffffffffffffffffffffffffffffffff1673ffffffffffffffffffffffffffffffffffffffff16815260200190815260200160002060009054906101000a900460ff16905092915050565b610d6f610f35565b73ffffffffffffffffffffffffffffffffffffffff16610d8d610904565b73ffffffffffffffffffffffffffffffffffffffff1614610de3576040517f08c379a0000000000000000000000000000000000000000000000000000000008152600401610dda906126f8565b60405180910390fd5b600073ffffffffffffffffffffffffffffffffffffffff168173ffffffffffffffffffffffffffffffffffffffff161415610e53576040517f08c379a0000000000000000000000000000000000000000000000000000000008152600401610e4a90612558565b60405180910390fd5b610e5c8161133b565b50565b60007f01ffc9a7000000000000000000000000000000000000000000000000000000007bffffffffffffffffffffffffffffffffffffffffffffffffffffffff1916827bffffffffffffffffffffffffffffffffffffffffffffffffffffffff1916149050919050565b60008073ffffffffffffffffffffffffffffffffffffffff166002600084815260200190815260200160002060009054906101000a900473ffffffffffffffffffffffffffffffffffffffff1673ffffffffffffffffffffffffffffffffffffffff1614159050919050565b600033905090565b816004600083815260200190815260200160002060006101000a81548173ffffffffffffffffffffffffffffffffffffffff021916908373ffffffffffffffffffffffffffffffffffffffff160217905550808273ffffffffffffffffffffffffffffffffffffffff16610fb083610712565b73ffffffffffffffffffffffffffffffffffffffff167f8c5be1e5ebec7d5bd14f71427d1e84f3dd0314c0f7b2291e5b200ac8c7c3b92560405160405180910390a45050565b600061100182610ec9565b611040576040517f08c379a0000000000000000000000000000000000000000000000000000000008152600401611037906125f8565b60405180910390fd5b600061104b83610712565b90508073ffffffffffffffffffffffffffffffffffffffff168473ffffffffffffffffffffffffffffffffffffffff16148061108d575061108c8185610cd3565b5b806110cb57508373ffffffffffffffffffffffffffffffffffffffff166110b3846104f5565b73ffffffffffffffffffffffffffffffffffffffff16145b91505092915050565b8273ffffffffffffffffffffffffffffffffffffffff166110f482610712565b73ffffffffffffffffffffffffffffffffffffffff161461114a576040517f08c379a000000000000000000000000000000000000000000000000000000000815260040161114190612578565b60405180910390fd5b600073ffffffffffffffffffffffffffffffffffffffff168273ffffffffffffffffffffffffffffffffffffffff1614156111ba576040517f08c379a00000000000000000000000000000000000000000000000000000000081526004016111b1906125b8565b60405180910390fd5b6111c583838361173e565b6111d0600082610f3d565b6001600360008573ffffffffffffffffffffffffffffffffffffffff1673ffffffffffffffffffffffffffffffffffffffff168152602001908152602001600020600082825461122091906128e4565b925050819055506001600360008473ffffffffffffffffffffffffffffffffffffffff1673ffffffffffffffffffffffffffffffffffffffff1681526020019081526020016000206000828254611277919061285d565b92505081905550816002600083815260200190815260200160002060006101000a81548173ffffffffffffffffffffffffffffffffffffffff021916908373ffffffffffffffffffffffffffffffffffffffff160217905550808273ffffffffffffffffffffffffffffffffffffffff168473ffffffffffffffffffffffffffffffffffffffff167fddf252ad1be2c89b69c2b068fc378daa952ba7f163c4a11628f55a4df523b3ef60405160405180910390a4611336838383611743565b505050565b6000600760009054906101000a900473ffffffffffffffffffffffffffffffffffffffff16905081600760006101000a81548173ffffffffffffffffffffffffffffffffffffffff021916908373ffffffffffffffffffffffffffffffffffffffff1602179055508173ffffffffffffffffffffffffffffffffffffffff168173ffffffffffffffffffffffffffffffffffffffff167f8be0079c531659141344cd1fd0a4f28419497f9722a3daafe3b4186f6b6457e060405160405180910390a35050565b8173ffffffffffffffffffffffffffffffffffffffff168373ffffffffffffffffffffffffffffffffffffffff161415611470576040517f08c379a0000000000000000000000000000000000000000000000000000000008152600401611467906125d8565b60405180910390fd5b80600560008573ffffffffffffffffffffffffffffffffffffffff1673ffffffffffffffffffffffffffffffffffffffff16815260200190815260200160002060008473ffffffffffffffffffffffffffffffffffffffff1673ffffffffffffffffffffffffffffffffffffffff16815260200190815260200160002060006101000a81548160ff0219169083151502179055508173ffffffffffffffffffffffffffffffffffffffff168373ffffffffffffffffffffffffffffffffffffffff167f17307eab39ab6107e8899845ad3d59bd9653f200f220920489ca2b5937696c318360405161156191906124fb565b60405180910390a3505050565b6115798484846110d4565b61158584848484611748565b6115c4576040517f08c379a00000000000000000000000000000000000000000000000000000000081526004016115bb90612538565b60405180910390fd5b50505050565b606060405180602001604052806000815250905090565b60606115ec82610ec9565b61162b576040517f08c379a000000000000000000000000000000000000000000000000000000000815260040161162290612718565b60405180910390fd5b60006116356115ca565b905060008151116116555760405180602001604052806000815250611680565b8061165f846118df565b604051602001611670929190612470565b6040516020818303038152906040525b915050919050565b600081600001549050919050565b6001816000016000828254019250508190555050565b6116c6828260405180602001604052806000815250611a40565b5050565b6116d382610ec9565b611712576040517f08c379a000000000000000000000000000000000000000000000000000000000815260040161170990612678565b60405180910390fd5b80600660008481526020019081526020016000209080519060200190611739929190611c98565b505050565b505050565b505050565b60006117698473ffffffffffffffffffffffffffffffffffffffff16611a9b565b156118d2578373ffffffffffffffffffffffffffffffffffffffff1663150b7a02611792610f35565b8786866040518563ffffffff1660e01b81526004016117b494939291906124af565b602060405180830381600087803b1580156117ce57600080fd5b505af19250505080156117ff57506040513d601f19601f820116820180604052508101906117fc91906120d0565b60015b611882573d806000811461182f576040519150601f19603f3d011682016040523d82523d6000602084013e611834565b606091505b5060008151141561187a576040517f08c379a000000000000000000000000000000000000000000000000000000000815260040161187190612538565b60405180910390fd5b805181602001fd5b63150b7a0260e01b7bffffffffffffffffffffffffffffffffffffffffffffffffffffffff1916817bffffffffffffffffffffffffffffffffffffffffffffffffffffffff1916149150506118d7565b600190505b949350505050565b60606000821415611927576040518060400160405280600181526020017f30000000000000000000000000000000000000000000000000000000000000008152509050611a3b565b600082905060005b6000821461195957808061194290612a31565b915050600a8261195291906128b3565b915061192f565b60008167ffffffffffffffff81111561197557611974612b67565b5b6040519080825280601f01601f1916602001820160405280156119a75781602001600182028036833780820191505090505b5090505b60008514611a34576001826119c091906128e4565b9150600a856119cf9190612a7a565b60306119db919061285d565b60f81b8183815181106119f1576119f0612b38565b5b60200101907effffffffffffffffffffffffffffffffffffffffffffffffffffffffffffff1916908160001a905350600a85611a2d91906128b3565b94506119ab565b8093505050505b919050565b611a4a8383611abe565b611a576000848484611748565b611a96576040517f08c379a0000000000000000000000000000000000000000000000000000000008152600401611a8d90612538565b60405180910390fd5b505050565b6000808273ffffffffffffffffffffffffffffffffffffffff163b119050919050565b600073ffffffffffffffffffffffffffffffffffffffff168273ffffffffffffffffffffffffffffffffffffffff161415611b2e576040517f08c379a0000000000000000000000000000000000000000000000000000000008152600401611b2590612698565b60405180910390fd5b611b3781610ec9565b15611b77576040517f08c379a0000000000000000000000000000000000000000000000000000000008152600401611b6e90612598565b60405180910390fd5b611b836000838361173e565b6001600360008473ffffffffffffffffffffffffffffffffffffffff1673ffffffffffffffffffffffffffffffffffffffff1681526020019081526020016000206000828254611bd3919061285d565b92505081905550816002600083815260200190815260200160002060006101000a81548173ffffffffffffffffffffffffffffffffffffffff021916908373ffffffffffffffffffffffffffffffffffffffff160217905550808273ffffffffffffffffffffffffffffffffffffffff16600073ffffffffffffffffffffffffffffffffffffffff167fddf252ad1be2c89b69c2b068fc378daa952ba7f163c4a11628f55a4df523b3ef60405160405180910390a4611c9460008383611743565b5050565b828054611ca4906129ce565b90600052602060002090601f016020900481019282611cc65760008555611d0d565b82601f10611cdf57805160ff1916838001178555611d0d565b82800160010185558215611d0d579182015b82811115611d0c578251825591602001919060010190611cf1565b5b509050611d1a9190611d1e565b5090565b5b80821115611d37576000816000905550600101611d1f565b5090565b6000611d4e611d49846127b8565b612793565b905082815260208101848484011115611d6a57611d69612b9b565b5b611d7584828561298c565b509392505050565b6000611d90611d8b846127e9565b612793565b905082815260208101848484011115611dac57611dab612b9b565b5b611db784828561298c565b509392505050565b600081359050611dce816130b1565b92915050565b600081359050611de3816130c8565b92915050565b600081359050611df8816130df565b92915050565b600081519050611e0d816130df565b92915050565b600082601f830112611e2857611e27612b96565b5b8135611e38848260208601611d3b565b91505092915050565b600082601f830112611e5657611e55612b96565b5b8135611e66848260208601611d7d565b91505092915050565b600081359050611e7e816130f6565b92915050565b600060208284031215611e9a57611e99612ba5565b5b6000611ea884828501611dbf565b91505092915050565b60008060408385031215611ec857611ec7612ba5565b5b6000611ed685828601611dbf565b9250506020611ee785828601611dbf565b9150509250929050565b600080600060608486031215611f0a57611f09612ba5565b5b6000611f1886828701611dbf565b9350506020611f2986828701611dbf565b9250506040611f3a86828701611e6f565b9150509250925092565b60008060008060808587031215611f5e57611f5d612ba5565b5b6000611f6c87828801611dbf565b9450506020611f7d87828801611dbf565b9350506040611f8e87828801611e6f565b925050606085013567ffffffffffffffff811115611faf57611fae612ba0565b5b611fbb87828801611e13565b91505092959194509250565b60008060408385031215611fde57611fdd612ba5565b5b6000611fec85828601611dbf565b9250506020611ffd85828601611dd4565b9150509250929050565b6000806040838503121561201e5761201d612ba5565b5b600061202c85828601611dbf565b925050602083013567ffffffffffffffff81111561204d5761204c612ba0565b5b61205985828601611e41565b9150509250929050565b6000806040838503121561207a57612079612ba5565b5b600061208885828601611dbf565b925050602061209985828601611e6f565b9150509250929050565b6000602082840312156120b9576120b8612ba5565b5b60006120c784828501611de9565b91505092915050565b6000602082840312156120e6576120e5612ba5565b5b60006120f484828501611dfe565b91505092915050565b60006020828403121561211357612112612ba5565b5b600061212184828501611e6f565b91505092915050565b61213381612918565b82525050565b6121428161292a565b82525050565b60006121538261281a565b61215d8185612830565b935061216d81856020860161299b565b61217681612baa565b840191505092915050565b600061218c82612825565b6121968185612841565b93506121a681856020860161299b565b6121af81612baa565b840191505092915050565b60006121c582612825565b6121cf8185612852565b93506121df81856020860161299b565b80840191505092915050565b60006121f8603283612841565b915061220382612bbb565b604082019050919050565b600061221b602683612841565b915061222682612c0a565b604082019050919050565b600061223e602583612841565b915061224982612c59565b604082019050919050565b6000612261601c83612841565b915061226c82612ca8565b602082019050919050565b6000612284602483612841565b915061228f82612cd1565b604082019050919050565b60006122a7601983612841565b91506122b282612d20565b602082019050919050565b60006122ca602c83612841565b91506122d582612d49565b604082019050919050565b60006122ed603883612841565b91506122f882612d98565b604082019050919050565b6000612310602a83612841565b915061231b82612de7565b604082019050919050565b6000612333602983612841565b915061233e82612e36565b604082019050919050565b6000612356602e83612841565b915061236182612e85565b604082019050919050565b6000612379602083612841565b915061238482612ed4565b602082019050919050565b600061239c603183612841565b91506123a782612efd565b604082019050919050565b60006123bf602c83612841565b91506123ca82612f4c565b604082019050919050565b60006123e2602083612841565b91506123ed82612f9b565b602082019050919050565b6000612405602f83612841565b915061241082612fc4565b604082019050919050565b6000612428602183612841565b915061243382613013565b604082019050919050565b600061244b603183612841565b915061245682613062565b604082019050919050565b61246a81612982565b82525050565b600061247c82856121ba565b915061248882846121ba565b91508190509392505050565b60006020820190506124a9600083018461212a565b92915050565b60006080820190506124c4600083018761212a565b6124d1602083018661212a565b6124de6040830185612461565b81810360608301526124f08184612148565b905095945050505050565b60006020820190506125106000830184612139565b92915050565b600060208201905081810360008301526125308184612181565b905092915050565b60006020820190508181036000830152612551816121eb565b9050919050565b600060208201905081810360008301526125718161220e565b9050919050565b6000602082019050818103600083015261259181612231565b9050919050565b600060208201905081810360008301526125b181612254565b9050919050565b600060208201905081810360008301526125d181612277565b9050919050565b600060208201905081810360008301526125f18161229a565b9050919050565b60006020820190508181036000830152612611816122bd565b9050919050565b60006020820190508181036000830152612631816122e0565b9050919050565b6000602082019050818103600083015261265181612303565b9050919050565b6000602082019050818103600083015261267181612326565b9050919050565b6000602082019050818103600083015261269181612349565b9050919050565b600060208201905081810360008301526126b18161236c565b9050919050565b600060208201905081810360008301526126d18161238f565b9050919050565b600060208201905081810360008301526126f1816123b2565b9050919050565b60006020820190508181036000830152612711816123d5565b9050919050565b60006020820190508181036000830152612731816123f8565b9050919050565b600060208201905081810360008301526127518161241b565b9050919050565b600060208201905081810360008301526127718161243e565b9050919050565b600060208201905061278d6000830184612461565b92915050565b600061279d6127ae565b90506127a98282612a00565b919050565b6000604051905090565b600067ffffffffffffffff8211156127d3576127d2612b67565b5b6127dc82612baa565b9050602081019050919050565b600067ffffffffffffffff82111561280457612803612b67565b5b61280d82612baa565b9050602081019050919050565b600081519050919050565b600081519050919050565b600082825260208201905092915050565b600082825260208201905092915050565b600081905092915050565b600061286882612982565b915061287383612982565b9250827fffffffffffffffffffffffffffffffffffffffffffffffffffffffffffffffff038211156128a8576128a7612aab565b5b828201905092915050565b60006128be82612982565b91506128c983612982565b9250826128d9576128d8612ada565b5b828204905092915050565b60006128ef82612982565b91506128fa83612982565b92508282101561290d5761290c612aab565b5b828203905092915050565b600061292382612962565b9050919050565b60008115159050919050565b60007fffffffff0000000000000000000000000000000000000000000000000000000082169050919050565b600073ffffffffffffffffffffffffffffffffffffffff82169050919050565b6000819050919050565b82818337600083830152505050565b60005b838110156129b957808201518184015260208101905061299e565b838111156129c8576000848401525b50505050565b600060028204905060018216806129e657607f821691505b602082108114156129fa576129f9612b09565b5b50919050565b612a0982612baa565b810181811067ffffffffffffffff82111715612a2857612a27612b67565b5b80604052505050565b6000612a3c82612982565b91507fffffffffffffffffffffffffffffffffffffffffffffffffffffffffffffffff821415612a6f57612a6e612aab565b5b600182019050919050565b6000612a8582612982565b9150612a9083612982565b925082612aa057612a9f612ada565b5b828206905092915050565b7f4e487b7100000000000000000000000000000000000000000000000000000000600052601160045260246000fd5b7f4e487b7100000000000000000000000000000000000000000000000000000000600052601260045260246000fd5b7f4e487b7100000000000000000000000000000000000000000000000000000000600052602260045260246000fd5b7f4e487b7100000000000000000000000000000000000000000000000000000000600052603260045260246000fd5b7f4e487b7100000000000000000000000000000000000000000000000000000000600052604160045260246000fd5b600080fd5b600080fd5b600080fd5b600080fd5b6000601f19601f8301169050919050565b7f4552433732313a207472616e7366657220746f206e6f6e20455243373231526560008201527f63656976657220696d706c656d656e7465720000000000000000000000000000602082015250565b7f4f776e61626c653a206e6577206f776e657220697320746865207a65726f206160008201527f6464726573730000000000000000000000000000000000000000000000000000602082015250565b7f4552433732313a207472616e736665722066726f6d20696e636f72726563742060008201527f6f776e6572000000000000000000000000000000000000000000000000000000602082015250565b7f4552433732313a20746f6b656e20616c7265616479206d696e74656400000000600082015250565b7f4552433732313a207472616e7366657220746f20746865207a65726f2061646460008201527f7265737300000000000000000000000000000000000000000000000000000000602082015250565b7f4552433732313a20617070726f766520746f2063616c6c657200000000000000600082015250565b7f4552433732313a206f70657261746f7220717565727920666f72206e6f6e657860008201527f697374656e7420746f6b656e0000000000000000000000000000000000000000602082015250565b7f4552433732313a20617070726f76652063616c6c6572206973206e6f74206f7760008201527f6e6572206e6f7220617070726f76656420666f7220616c6c0000000000000000602082015250565b7f4552433732313a2062616c616e636520717565727920666f7220746865207a6560008201527f726f206164647265737300000000000000000000000000000000000000000000602082015250565b7f4552433732313a206f776e657220717565727920666f72206e6f6e657869737460008201527f656e7420746f6b656e0000000000000000000000000000000000000000000000602082015250565b7f45524337323155524953746f726167653a2055524920736574206f66206e6f6e60008201527f6578697374656e7420746f6b656e000000000000000000000000000000000000602082015250565b7f4552433732313a206d696e7420746f20746865207a65726f2061646472657373600082015250565b7f45524337323155524953746f726167653a2055524920717565727920666f722060008201527f6e6f6e6578697374656e7420746f6b656e000000000000000000000000000000602082015250565b7f4552433732313a20617070726f76656420717565727920666f72206e6f6e657860008201527f697374656e7420746f6b656e0000000000000000000000000000000000000000602082015250565b7f4f776e61626c653a2063616c6c6572206973206e6f7420746865206f776e6572600082015250565b7f4552433732314d657461646174613a2055524920717565727920666f72206e6f60008201527f6e6578697374656e7420746f6b656e0000000000000000000000000000000000602082015250565b7f4552433732313a20617070726f76616c20746f2063757272656e74206f776e6560008201527f7200000000000000000000000000000000000000000000000000000000000000602082015250565b7f4552433732313a207472616e736665722063616c6c6572206973206e6f74206f60008201527f776e6572206e6f7220617070726f766564000000000000000000000000000000602082015250565b6130ba81612918565b81146130c557600080fd5b50565b6130d18161292a565b81146130dc57600080fd5b50565b6130e881612936565b81146130f357600080fd5b50565b6130ff81612982565b811461310a57600080fd5b5056fea2646970667358221220da85543fba6118043f823582ab14deb2caaab2a520d0fe79314c64673d9c796f64736f6c63430008060033",
  "linkReferences": {},
  "deployedLinkReferences": {}
}